{
  "_format": "hh-sol-artifact-1",
  "contractName": "NFT",
  "sourceName": "contracts/NFT.sol",
  "abi": [
    {
      "inputs": [
        {
          "internalType": "string",
          "name": "_name",
          "type": "string"
        },
        {
          "internalType": "string",
          "name": "_ticker",
          "type": "string"
        }
      ],
      "stateMutability": "nonpayable",
      "type": "constructor"
    },
    {
      "anonymous": false,
      "inputs": [
        {
          "indexed": true,
          "internalType": "address",
          "name": "owner",
          "type": "address"
        },
        {
          "indexed": true,
          "internalType": "address",
          "name": "approved",
          "type": "address"
        },
        {
          "indexed": true,
          "internalType": "uint256",
          "name": "tokenId",
          "type": "uint256"
        }
      ],
      "name": "Approval",
      "type": "event"
    },
    {
      "anonymous": false,
      "inputs": [
        {
          "indexed": true,
          "internalType": "address",
          "name": "owner",
          "type": "address"
        },
        {
          "indexed": true,
          "internalType": "address",
          "name": "operator",
          "type": "address"
        },
        {
          "indexed": false,
          "internalType": "bool",
          "name": "approved",
          "type": "bool"
        }
      ],
      "name": "ApprovalForAll",
      "type": "event"
    },
    {
      "anonymous": false,
      "inputs": [
        {
          "indexed": true,
          "internalType": "address",
          "name": "from",
          "type": "address"
        },
        {
          "indexed": true,
          "internalType": "address",
          "name": "to",
          "type": "address"
        },
        {
          "indexed": true,
          "internalType": "uint256",
          "name": "tokenId",
          "type": "uint256"
        }
      ],
      "name": "Transfer",
      "type": "event"
    },
    {
      "inputs": [
        {
          "internalType": "address",
          "name": "to",
          "type": "address"
        },
        {
          "internalType": "uint256",
          "name": "tokenId",
          "type": "uint256"
        }
      ],
      "name": "approve",
      "outputs": [],
      "stateMutability": "nonpayable",
      "type": "function"
    },
    {
      "inputs": [
        {
          "internalType": "address",
          "name": "owner",
          "type": "address"
        }
      ],
      "name": "balanceOf",
      "outputs": [
        {
          "internalType": "uint256",
          "name": "",
          "type": "uint256"
        }
      ],
      "stateMutability": "view",
      "type": "function"
    },
    {
      "inputs": [
        {
          "internalType": "uint256",
          "name": "tokenId",
          "type": "uint256"
        }
      ],
      "name": "getApproved",
      "outputs": [
        {
          "internalType": "address",
          "name": "",
          "type": "address"
        }
      ],
      "stateMutability": "view",
      "type": "function"
    },
    {
      "inputs": [
        {
          "internalType": "address",
          "name": "owner",
          "type": "address"
        },
        {
          "internalType": "address",
          "name": "operator",
          "type": "address"
        }
      ],
      "name": "isApprovedForAll",
      "outputs": [
        {
          "internalType": "bool",
          "name": "",
          "type": "bool"
        }
      ],
      "stateMutability": "view",
      "type": "function"
    },
    {
      "inputs": [
        {
          "internalType": "string",
          "name": "_tokenURI",
          "type": "string"
        },
        {
          "internalType": "address",
          "name": "_owner",
          "type": "address"
        }
      ],
      "name": "mint",
      "outputs": [
        {
          "internalType": "uint256",
          "name": "",
          "type": "uint256"
        }
      ],
      "stateMutability": "nonpayable",
      "type": "function"
    },
    {
      "inputs": [],
      "name": "name",
      "outputs": [
        {
          "internalType": "string",
          "name": "",
          "type": "string"
        }
      ],
      "stateMutability": "view",
      "type": "function"
    },
    {
      "inputs": [
        {
          "internalType": "uint256",
          "name": "tokenId",
          "type": "uint256"
        }
      ],
      "name": "ownerOf",
      "outputs": [
        {
          "internalType": "address",
          "name": "",
          "type": "address"
        }
      ],
      "stateMutability": "view",
      "type": "function"
    },
    {
      "inputs": [
        {
          "internalType": "address",
          "name": "from",
          "type": "address"
        },
        {
          "internalType": "address",
          "name": "to",
          "type": "address"
        },
        {
          "internalType": "uint256",
          "name": "tokenId",
          "type": "uint256"
        }
      ],
      "name": "safeTransferFrom",
      "outputs": [],
      "stateMutability": "nonpayable",
      "type": "function"
    },
    {
      "inputs": [
        {
          "internalType": "address",
          "name": "from",
          "type": "address"
        },
        {
          "internalType": "address",
          "name": "to",
          "type": "address"
        },
        {
          "internalType": "uint256",
          "name": "tokenId",
          "type": "uint256"
        },
        {
          "internalType": "bytes",
          "name": "_data",
          "type": "bytes"
        }
      ],
      "name": "safeTransferFrom",
      "outputs": [],
      "stateMutability": "nonpayable",
      "type": "function"
    },
    {
      "inputs": [
        {
          "internalType": "address",
          "name": "operator",
          "type": "address"
        },
        {
          "internalType": "bool",
          "name": "approved",
          "type": "bool"
        }
      ],
      "name": "setApprovalForAll",
      "outputs": [],
      "stateMutability": "nonpayable",
      "type": "function"
    },
    {
      "inputs": [
        {
          "internalType": "bytes4",
          "name": "interfaceId",
          "type": "bytes4"
        }
      ],
      "name": "supportsInterface",
      "outputs": [
        {
          "internalType": "bool",
          "name": "",
          "type": "bool"
        }
      ],
      "stateMutability": "view",
      "type": "function"
    },
    {
      "inputs": [],
      "name": "symbol",
      "outputs": [
        {
          "internalType": "string",
          "name": "",
          "type": "string"
        }
      ],
      "stateMutability": "view",
      "type": "function"
    },
    {
      "inputs": [],
      "name": "tokenCount",
      "outputs": [
        {
          "internalType": "uint256",
          "name": "_value",
          "type": "uint256"
        }
      ],
      "stateMutability": "view",
      "type": "function"
    },
    {
      "inputs": [
        {
          "internalType": "uint256",
          "name": "tokenId",
          "type": "uint256"
        }
      ],
      "name": "tokenURI",
      "outputs": [
        {
          "internalType": "string",
          "name": "",
          "type": "string"
        }
      ],
      "stateMutability": "view",
      "type": "function"
    },
    {
      "inputs": [
        {
          "internalType": "address",
          "name": "from",
          "type": "address"
        },
        {
          "internalType": "address",
          "name": "to",
          "type": "address"
        },
        {
          "internalType": "uint256",
          "name": "tokenId",
          "type": "uint256"
        }
      ],
      "name": "transferFrom",
      "outputs": [],
      "stateMutability": "nonpayable",
      "type": "function"
    }
  ],
  "bytecode": "0x60806040523480156200001157600080fd5b5060405162002fde38038062002fde833981810160405281019062000037919062000197565b818181600090805190602001906200005192919062000075565b5080600190805190602001906200006a92919062000075565b50505050506200037a565b82805462000083906200029f565b90600052602060002090601f016020900481019282620000a75760008555620000f3565b82601f10620000c257805160ff1916838001178555620000f3565b82800160010185558215620000f3579182015b82811115620000f2578251825591602001919060010190620000d5565b5b50905062000102919062000106565b5090565b5b808211156200012157600081600090555060010162000107565b5090565b60006200013c620001368462000233565b6200020a565b9050828152602081018484840111156200015557600080fd5b6200016284828562000269565b509392505050565b600082601f8301126200017c57600080fd5b81516200018e84826020860162000125565b91505092915050565b60008060408385031215620001ab57600080fd5b600083015167ffffffffffffffff811115620001c657600080fd5b620001d4858286016200016a565b925050602083015167ffffffffffffffff811115620001f257600080fd5b62000200858286016200016a565b9150509250929050565b60006200021662000229565b9050620002248282620002d5565b919050565b6000604051905090565b600067ffffffffffffffff8211156200025157620002506200033a565b5b6200025c8262000369565b9050602081019050919050565b60005b83811015620002895780820151818401526020810190506200026c565b8381111562000299576000848401525b50505050565b60006002820490506001821680620002b857607f821691505b60208210811415620002cf57620002ce6200030b565b5b50919050565b620002e08262000369565b810181811067ffffffffffffffff821117156200030257620003016200033a565b5b80604052505050565b7f4e487b7100000000000000000000000000000000000000000000000000000000600052602260045260246000fd5b7f4e487b7100000000000000000000000000000000000000000000000000000000600052604160045260246000fd5b6000601f19601f8301169050919050565b612c54806200038a6000396000f3fe608060405234801561001057600080fd5b50600436106100f55760003560e01c80636352211e11610097578063a22cb46511610066578063a22cb46514610298578063b88d4fde146102b4578063c87b56dd146102d0578063e985e9c514610300576100f5565b80636352211e146101fc57806370a082311461022c57806395d89b411461025c5780639f181b5e1461027a576100f5565b8063095ea7b3116100d3578063095ea7b3146101785780631c351a9d1461019457806323b872dd146101c457806342842e0e146101e0576100f5565b806301ffc9a7146100fa57806306fdde031461012a578063081812fc14610148575b600080fd5b610114600480360381019061010f9190611cad565b610330565b6040516101219190612107565b60405180910390f35b610132610412565b60405161013f9190612122565b60405180910390f35b610162600480360381019061015d9190611d53565b6104a4565b60405161016f91906120a0565b60405180910390f35b610192600480360381019061018d9190611c71565b610529565b005b6101ae60048036038101906101a99190611cff565b610641565b6040516101bb9190612344565b60405180910390f35b6101de60048036038101906101d99190611b6b565b610685565b005b6101fa60048036038101906101f59190611b6b565b6106e5565b005b61021660048036038101906102119190611d53565b610705565b60405161022391906120a0565b60405180910390f35b61024660048036038101906102419190611b06565b6107b7565b6040516102539190612344565b60405180910390f35b61026461086f565b6040516102719190612122565b60405180910390f35b610282610901565b60405161028f9190612344565b60405180910390f35b6102b260048036038101906102ad9190611c35565b61090d565b005b6102ce60048036038101906102c99190611bba565b610923565b005b6102ea60048036038101906102e59190611d53565b610985565b6040516102f79190612122565b60405180910390f35b61031a60048036038101906103159190611b2f565b610ad7565b6040516103279190612107565b60405180910390f35b60007f80ac58cd000000000000000000000000000000000000000000000000000000007bffffffffffffffffffffffffffffffffffffffffffffffffffffffff1916827bffffffffffffffffffffffffffffffffffffffffffffffffffffffff191614806103fb57507f5b5e139f000000000000000000000000000000000000000000000000000000007bffffffffffffffffffffffffffffffffffffffffffffffffffffffff1916827bffffffffffffffffffffffffffffffffffffffffffffffffffffffff1916145b8061040b575061040a82610b6b565b5b9050919050565b6060600080546104219061259a565b80601f016020809104026020016040519081016040528092919081815260200182805461044d9061259a565b801561049a5780601f1061046f5761010080835404028352916020019161049a565b820191906000526020600020905b81548152906001019060200180831161047d57829003601f168201915b5050505050905090565b60006104af82610bd5565b6104ee576040517f08c379a00000000000000000000000000000000000000000000000000000000081526004016104e5906122c4565b60405180910390fd5b6004600083815260200190815260200160002060009054906101000a900473ffffffffffffffffffffffffffffffffffffffff169050919050565b600061053482610705565b90508073ffffffffffffffffffffffffffffffffffffffff168373ffffffffffffffffffffffffffffffffffffffff1614156105a5576040517f08c379a000000000000000000000000000000000000000000000000000000000815260040161059c90612304565b60405180910390fd5b8073ffffffffffffffffffffffffffffffffffffffff166105c4610c41565b73ffffffffffffffffffffffffffffffffffffffff1614806105f357506105f2816105ed610c41565b610ad7565b5b610632576040517f08c379a000000000000000000000000000000000000000000000000000000000815260040161062990612204565b60405180910390fd5b61063c8383610c49565b505050565b600061064d6007610d02565b6106608261065b6007610d18565b610d26565b61067361066d6007610d18565b84610d44565b61067d6007610d18565b905092915050565b610696610690610c41565b82610db8565b6106d5576040517f08c379a00000000000000000000000000000000000000000000000000000000081526004016106cc90612324565b60405180910390fd5b6106e0838383610e96565b505050565b61070083838360405180602001604052806000815250610923565b505050565b6000806002600084815260200190815260200160002060009054906101000a900473ffffffffffffffffffffffffffffffffffffffff169050600073ffffffffffffffffffffffffffffffffffffffff168173ffffffffffffffffffffffffffffffffffffffff1614156107ae576040517f08c379a00000000000000000000000000000000000000000000000000000000081526004016107a590612244565b60405180910390fd5b80915050919050565b60008073ffffffffffffffffffffffffffffffffffffffff168273ffffffffffffffffffffffffffffffffffffffff161415610828576040517f08c379a000000000000000000000000000000000000000000000000000000000815260040161081f90612224565b60405180910390fd5b600360008373ffffffffffffffffffffffffffffffffffffffff1673ffffffffffffffffffffffffffffffffffffffff168152602001908152602001600020549050919050565b60606001805461087e9061259a565b80601f01602080910402602001604051908101604052809291908181526020018280546108aa9061259a565b80156108f75780601f106108cc576101008083540402835291602001916108f7565b820191906000526020600020905b8154815290600101906020018083116108da57829003601f168201915b5050505050905090565b60078060000154905081565b61091f610918610c41565b83836110fd565b5050565b61093461092e610c41565b83610db8565b610973576040517f08c379a000000000000000000000000000000000000000000000000000000000815260040161096a90612324565b60405180910390fd5b61097f8484848461126a565b50505050565b606061099082610bd5565b6109cf576040517f08c379a00000000000000000000000000000000000000000000000000000000081526004016109c6906122a4565b60405180910390fd5b60006006600084815260200190815260200160002080546109ef9061259a565b80601f0160208091040260200160405190810160405280929190818152602001828054610a1b9061259a565b8015610a685780601f10610a3d57610100808354040283529160200191610a68565b820191906000526020600020905b815481529060010190602001808311610a4b57829003601f168201915b505050505090506000610a796112c6565b9050600081511415610a8f578192505050610ad2565b600082511115610ac4578082604051602001610aac92919061207c565b60405160208183030381529060405292505050610ad2565b610acd846112dd565b925050505b919050565b6000600560008473ffffffffffffffffffffffffffffffffffffffff1673ffffffffffffffffffffffffffffffffffffffff16815260200190815260200160002060008373ffffffffffffffffffffffffffffffffffffffff1673ffffffffffffffffffffffffffffffffffffffff16815260200190815260200160002060009054906101000a900460ff16905092915050565b60007f01ffc9a7000000000000000000000000000000000000000000000000000000007bffffffffffffffffffffffffffffffffffffffffffffffffffffffff1916827bffffffffffffffffffffffffffffffffffffffffffffffffffffffff1916149050919050565b60008073ffffffffffffffffffffffffffffffffffffffff166002600084815260200190815260200160002060009054906101000a900473ffffffffffffffffffffffffffffffffffffffff1673ffffffffffffffffffffffffffffffffffffffff1614159050919050565b600033905090565b816004600083815260200190815260200160002060006101000a81548173ffffffffffffffffffffffffffffffffffffffff021916908373ffffffffffffffffffffffffffffffffffffffff160217905550808273ffffffffffffffffffffffffffffffffffffffff16610cbc83610705565b73ffffffffffffffffffffffffffffffffffffffff167f8c5be1e5ebec7d5bd14f71427d1e84f3dd0314c0f7b2291e5b200ac8c7c3b92560405160405180910390a45050565b6001816000016000828254019250508190555050565b600081600001549050919050565b610d40828260405180602001604052806000815250611384565b5050565b610d4d82610bd5565b610d8c576040517f08c379a0000000000000000000000000000000000000000000000000000000008152600401610d8390612264565b60405180910390fd5b80600660008481526020019081526020016000209080519060200190610db392919061192a565b505050565b6000610dc382610bd5565b610e02576040517f08c379a0000000000000000000000000000000000000000000000000000000008152600401610df9906121e4565b60405180910390fd5b6000610e0d83610705565b90508073ffffffffffffffffffffffffffffffffffffffff168473ffffffffffffffffffffffffffffffffffffffff161480610e7c57508373ffffffffffffffffffffffffffffffffffffffff16610e64846104a4565b73ffffffffffffffffffffffffffffffffffffffff16145b80610e8d5750610e8c8185610ad7565b5b91505092915050565b8273ffffffffffffffffffffffffffffffffffffffff16610eb682610705565b73ffffffffffffffffffffffffffffffffffffffff1614610f0c576040517f08c379a0000000000000000000000000000000000000000000000000000000008152600401610f0390612164565b60405180910390fd5b600073ffffffffffffffffffffffffffffffffffffffff168273ffffffffffffffffffffffffffffffffffffffff161415610f7c576040517f08c379a0000000000000000000000000000000000000000000000000000000008152600401610f73906121a4565b60405180910390fd5b610f878383836113df565b610f92600082610c49565b6001600360008573ffffffffffffffffffffffffffffffffffffffff1673ffffffffffffffffffffffffffffffffffffffff1681526020019081526020016000206000828254610fe291906124b0565b925050819055506001600360008473ffffffffffffffffffffffffffffffffffffffff1673ffffffffffffffffffffffffffffffffffffffff16815260200190815260200160002060008282546110399190612429565b92505081905550816002600083815260200190815260200160002060006101000a81548173ffffffffffffffffffffffffffffffffffffffff021916908373ffffffffffffffffffffffffffffffffffffffff160217905550808273ffffffffffffffffffffffffffffffffffffffff168473ffffffffffffffffffffffffffffffffffffffff167fddf252ad1be2c89b69c2b068fc378daa952ba7f163c4a11628f55a4df523b3ef60405160405180910390a46110f88383836113e4565b505050565b8173ffffffffffffffffffffffffffffffffffffffff168373ffffffffffffffffffffffffffffffffffffffff16141561116c576040517f08c379a0000000000000000000000000000000000000000000000000000000008152600401611163906121c4565b60405180910390fd5b80600560008573ffffffffffffffffffffffffffffffffffffffff1673ffffffffffffffffffffffffffffffffffffffff16815260200190815260200160002060008473ffffffffffffffffffffffffffffffffffffffff1673ffffffffffffffffffffffffffffffffffffffff16815260200190815260200160002060006101000a81548160ff0219169083151502179055508173ffffffffffffffffffffffffffffffffffffffff168373ffffffffffffffffffffffffffffffffffffffff167f17307eab39ab6107e8899845ad3d59bd9653f200f220920489ca2b5937696c318360405161125d9190612107565b60405180910390a3505050565b611275848484610e96565b611281848484846113e9565b6112c0576040517f08c379a00000000000000000000000000000000000000000000000000000000081526004016112b790612144565b60405180910390fd5b50505050565b606060405180602001604052806000815250905090565b60606112e882610bd5565b611327576040517f08c379a000000000000000000000000000000000000000000000000000000000815260040161131e906122e4565b60405180910390fd5b60006113316112c6565b90506000815111611351576040518060200160405280600081525061137c565b8061135b84611580565b60405160200161136c92919061207c565b6040516020818303038152906040525b915050919050565b61138e838361172d565b61139b60008484846113e9565b6113da576040517f08c379a00000000000000000000000000000000000000000000000000000000081526004016113d190612144565b60405180910390fd5b505050565b505050565b505050565b600061140a8473ffffffffffffffffffffffffffffffffffffffff16611907565b15611573578373ffffffffffffffffffffffffffffffffffffffff1663150b7a02611433610c41565b8786866040518563ffffffff1660e01b815260040161145594939291906120bb565b602060405180830381600087803b15801561146f57600080fd5b505af19250505080156114a057506040513d601f19601f8201168201806040525081019061149d9190611cd6565b60015b611523573d80600081146114d0576040519150601f19603f3d011682016040523d82523d6000602084013e6114d5565b606091505b5060008151141561151b576040517f08c379a000000000000000000000000000000000000000000000000000000000815260040161151290612144565b60405180910390fd5b805181602001fd5b63150b7a0260e01b7bffffffffffffffffffffffffffffffffffffffffffffffffffffffff1916817bffffffffffffffffffffffffffffffffffffffffffffffffffffffff191614915050611578565b600190505b949350505050565b606060008214156115c8576040518060400160405280600181526020017f30000000000000000000000000000000000000000000000000000000000000008152509050611728565b600082905060005b600082146115fa5780806115e3906125fd565b915050600a826115f3919061247f565b91506115d0565b60008167ffffffffffffffff81111561163c577f4e487b7100000000000000000000000000000000000000000000000000000000600052604160045260246000fd5b6040519080825280601f01601f19166020018201604052801561166e5781602001600182028036833780820191505090505b5090505b600085146117215760018261168791906124b0565b9150600a856116969190612646565b60306116a29190612429565b60f81b8183815181106116de577f4e487b7100000000000000000000000000000000000000000000000000000000600052603260045260246000fd5b60200101907effffffffffffffffffffffffffffffffffffffffffffffffffffffffffffff1916908160001a905350600a8561171a919061247f565b9450611672565b8093505050505b919050565b600073ffffffffffffffffffffffffffffffffffffffff168273ffffffffffffffffffffffffffffffffffffffff16141561179d576040517f08c379a000000000000000000000000000000000000000000000000000000000815260040161179490612284565b60405180910390fd5b6117a681610bd5565b156117e6576040517f08c379a00000000000000000000000000000000000000000000000000000000081526004016117dd90612184565b60405180910390fd5b6117f2600083836113df565b6001600360008473ffffffffffffffffffffffffffffffffffffffff1673ffffffffffffffffffffffffffffffffffffffff16815260200190815260200160002060008282546118429190612429565b92505081905550816002600083815260200190815260200160002060006101000a81548173ffffffffffffffffffffffffffffffffffffffff021916908373ffffffffffffffffffffffffffffffffffffffff160217905550808273ffffffffffffffffffffffffffffffffffffffff16600073ffffffffffffffffffffffffffffffffffffffff167fddf252ad1be2c89b69c2b068fc378daa952ba7f163c4a11628f55a4df523b3ef60405160405180910390a4611903600083836113e4565b5050565b6000808273ffffffffffffffffffffffffffffffffffffffff163b119050919050565b8280546119369061259a565b90600052602060002090601f016020900481019282611958576000855561199f565b82601f1061197157805160ff191683800117855561199f565b8280016001018555821561199f579182015b8281111561199e578251825591602001919060010190611983565b5b5090506119ac91906119b0565b5090565b5b808211156119c95760008160009055506001016119b1565b5090565b60006119e06119db84612384565b61235f565b9050828152602081018484840111156119f857600080fd5b611a03848285612558565b509392505050565b6000611a1e611a19846123b5565b61235f565b905082815260208101848484011115611a3657600080fd5b611a41848285612558565b509392505050565b600081359050611a5881612bc2565b92915050565b600081359050611a6d81612bd9565b92915050565b600081359050611a8281612bf0565b92915050565b600081519050611a9781612bf0565b92915050565b600082601f830112611aae57600080fd5b8135611abe8482602086016119cd565b91505092915050565b600082601f830112611ad857600080fd5b8135611ae8848260208601611a0b565b91505092915050565b600081359050611b0081612c07565b92915050565b600060208284031215611b1857600080fd5b6000611b2684828501611a49565b91505092915050565b60008060408385031215611b4257600080fd5b6000611b5085828601611a49565b9250506020611b6185828601611a49565b9150509250929050565b600080600060608486031215611b8057600080fd5b6000611b8e86828701611a49565b9350506020611b9f86828701611a49565b9250506040611bb086828701611af1565b9150509250925092565b60008060008060808587031215611bd057600080fd5b6000611bde87828801611a49565b9450506020611bef87828801611a49565b9350506040611c0087828801611af1565b925050606085013567ffffffffffffffff811115611c1d57600080fd5b611c2987828801611a9d565b91505092959194509250565b60008060408385031215611c4857600080fd5b6000611c5685828601611a49565b9250506020611c6785828601611a5e565b9150509250929050565b60008060408385031215611c8457600080fd5b6000611c9285828601611a49565b9250506020611ca385828601611af1565b9150509250929050565b600060208284031215611cbf57600080fd5b6000611ccd84828501611a73565b91505092915050565b600060208284031215611ce857600080fd5b6000611cf684828501611a88565b91505092915050565b60008060408385031215611d1257600080fd5b600083013567ffffffffffffffff811115611d2c57600080fd5b611d3885828601611ac7565b9250506020611d4985828601611a49565b9150509250929050565b600060208284031215611d6557600080fd5b6000611d7384828501611af1565b91505092915050565b611d85816124e4565b82525050565b611d94816124f6565b82525050565b6000611da5826123e6565b611daf81856123fc565b9350611dbf818560208601612567565b611dc881612733565b840191505092915050565b6000611dde826123f1565b611de8818561240d565b9350611df8818560208601612567565b611e0181612733565b840191505092915050565b6000611e17826123f1565b611e21818561241e565b9350611e31818560208601612567565b80840191505092915050565b6000611e4a60328361240d565b9150611e5582612744565b604082019050919050565b6000611e6d60258361240d565b9150611e7882612793565b604082019050919050565b6000611e90601c8361240d565b9150611e9b826127e2565b602082019050919050565b6000611eb360248361240d565b9150611ebe8261280b565b604082019050919050565b6000611ed660198361240d565b9150611ee18261285a565b602082019050919050565b6000611ef9602c8361240d565b9150611f0482612883565b604082019050919050565b6000611f1c60388361240d565b9150611f27826128d2565b604082019050919050565b6000611f3f602a8361240d565b9150611f4a82612921565b604082019050919050565b6000611f6260298361240d565b9150611f6d82612970565b604082019050919050565b6000611f85602e8361240d565b9150611f90826129bf565b604082019050919050565b6000611fa860208361240d565b9150611fb382612a0e565b602082019050919050565b6000611fcb60318361240d565b9150611fd682612a37565b604082019050919050565b6000611fee602c8361240d565b9150611ff982612a86565b604082019050919050565b6000612011602f8361240d565b915061201c82612ad5565b604082019050919050565b600061203460218361240d565b915061203f82612b24565b604082019050919050565b600061205760318361240d565b915061206282612b73565b604082019050919050565b6120768161254e565b82525050565b60006120888285611e0c565b91506120948284611e0c565b91508190509392505050565b60006020820190506120b56000830184611d7c565b92915050565b60006080820190506120d06000830187611d7c565b6120dd6020830186611d7c565b6120ea604083018561206d565b81810360608301526120fc8184611d9a565b905095945050505050565b600060208201905061211c6000830184611d8b565b92915050565b6000602082019050818103600083015261213c8184611dd3565b905092915050565b6000602082019050818103600083015261215d81611e3d565b9050919050565b6000602082019050818103600083015261217d81611e60565b9050919050565b6000602082019050818103600083015261219d81611e83565b9050919050565b600060208201905081810360008301526121bd81611ea6565b9050919050565b600060208201905081810360008301526121dd81611ec9565b9050919050565b600060208201905081810360008301526121fd81611eec565b9050919050565b6000602082019050818103600083015261221d81611f0f565b9050919050565b6000602082019050818103600083015261223d81611f32565b9050919050565b6000602082019050818103600083015261225d81611f55565b9050919050565b6000602082019050818103600083015261227d81611f78565b9050919050565b6000602082019050818103600083015261229d81611f9b565b9050919050565b600060208201905081810360008301526122bd81611fbe565b9050919050565b600060208201905081810360008301526122dd81611fe1565b9050919050565b600060208201905081810360008301526122fd81612004565b9050919050565b6000602082019050818103600083015261231d81612027565b9050919050565b6000602082019050818103600083015261233d8161204a565b9050919050565b6000602082019050612359600083018461206d565b92915050565b600061236961237a565b905061237582826125cc565b919050565b6000604051905090565b600067ffffffffffffffff82111561239f5761239e612704565b5b6123a882612733565b9050602081019050919050565b600067ffffffffffffffff8211156123d0576123cf612704565b5b6123d982612733565b9050602081019050919050565b600081519050919050565b600081519050919050565b600082825260208201905092915050565b600082825260208201905092915050565b600081905092915050565b60006124348261254e565b915061243f8361254e565b9250827fffffffffffffffffffffffffffffffffffffffffffffffffffffffffffffffff0382111561247457612473612677565b5b828201905092915050565b600061248a8261254e565b91506124958361254e565b9250826124a5576124a46126a6565b5b828204905092915050565b60006124bb8261254e565b91506124c68361254e565b9250828210156124d9576124d8612677565b5b828203905092915050565b60006124ef8261252e565b9050919050565b60008115159050919050565b60007fffffffff0000000000000000000000000000000000000000000000000000000082169050919050565b600073ffffffffffffffffffffffffffffffffffffffff82169050919050565b6000819050919050565b82818337600083830152505050565b60005b8381101561258557808201518184015260208101905061256a565b83811115612594576000848401525b50505050565b600060028204905060018216806125b257607f821691505b602082108114156125c6576125c56126d5565b5b50919050565b6125d582612733565b810181811067ffffffffffffffff821117156125f4576125f3612704565b5b80604052505050565b60006126088261254e565b91507fffffffffffffffffffffffffffffffffffffffffffffffffffffffffffffffff82141561263b5761263a612677565b5b600182019050919050565b60006126518261254e565b915061265c8361254e565b92508261266c5761266b6126a6565b5b828206905092915050565b7f4e487b7100000000000000000000000000000000000000000000000000000000600052601160045260246000fd5b7f4e487b7100000000000000000000000000000000000000000000000000000000600052601260045260246000fd5b7f4e487b7100000000000000000000000000000000000000000000000000000000600052602260045260246000fd5b7f4e487b7100000000000000000000000000000000000000000000000000000000600052604160045260246000fd5b6000601f19601f8301169050919050565b7f4552433732313a207472616e7366657220746f206e6f6e20455243373231526560008201527f63656976657220696d706c656d656e7465720000000000000000000000000000602082015250565b7f4552433732313a207472616e736665722066726f6d20696e636f72726563742060008201527f6f776e6572000000000000000000000000000000000000000000000000000000602082015250565b7f4552433732313a20746f6b656e20616c7265616479206d696e74656400000000600082015250565b7f4552433732313a207472616e7366657220746f20746865207a65726f2061646460008201527f7265737300000000000000000000000000000000000000000000000000000000602082015250565b7f4552433732313a20617070726f766520746f2063616c6c657200000000000000600082015250565b7f4552433732313a206f70657261746f7220717565727920666f72206e6f6e657860008201527f697374656e7420746f6b656e0000000000000000000000000000000000000000602082015250565b7f4552433732313a20617070726f76652063616c6c6572206973206e6f74206f7760008201527f6e6572206e6f7220617070726f76656420666f7220616c6c0000000000000000602082015250565b7f4552433732313a2062616c616e636520717565727920666f7220746865207a6560008201527f726f206164647265737300000000000000000000000000000000000000000000602082015250565b7f4552433732313a206f776e657220717565727920666f72206e6f6e657869737460008201527f656e7420746f6b656e0000000000000000000000000000000000000000000000602082015250565b7f45524337323155524953746f726167653a2055524920736574206f66206e6f6e60008201527f6578697374656e7420746f6b656e000000000000000000000000000000000000602082015250565b7f4552433732313a206d696e7420746f20746865207a65726f2061646472657373600082015250565b7f45524337323155524953746f726167653a2055524920717565727920666f722060008201527f6e6f6e6578697374656e7420746f6b656e000000000000000000000000000000602082015250565b7f4552433732313a20617070726f76656420717565727920666f72206e6f6e657860008201527f697374656e7420746f6b656e0000000000000000000000000000000000000000602082015250565b7f4552433732314d657461646174613a2055524920717565727920666f72206e6f60008201527f6e6578697374656e7420746f6b656e0000000000000000000000000000000000602082015250565b7f4552433732313a20617070726f76616c20746f2063757272656e74206f776e6560008201527f7200000000000000000000000000000000000000000000000000000000000000602082015250565b7f4552433732313a207472616e736665722063616c6c6572206973206e6f74206f60008201527f776e6572206e6f7220617070726f766564000000000000000000000000000000602082015250565b612bcb816124e4565b8114612bd657600080fd5b50565b612be2816124f6565b8114612bed57600080fd5b50565b612bf981612502565b8114612c0457600080fd5b50565b612c108161254e565b8114612c1b57600080fd5b5056fea2646970667358221220cf8cbeb7d260cd9203d05f48dd1a80bc8c89497c642dbd2e5448de8e7f73badb64736f6c63430008040033",
  "linkReferences": {},
  "deployedLinkReferences": {}
}