{
  "_format": "hh-sol-artifact-1",
  "contractName": "Marketplace",
  "sourceName": "contracts/marketplace.sol",
  "abi": [
    {
      "inputs": [],
      "stateMutability": "nonpayable",
      "type": "constructor"
    },
    {
      "anonymous": false,
      "inputs": [
        {
          "indexed": false,
          "internalType": "address",
          "name": "collectionAddress",
          "type": "address"
        },
        {
          "indexed": false,
          "internalType": "address",
          "name": "owner",
          "type": "address"
        }
      ],
      "name": "newCollection",
      "type": "event"
    },
    {
      "anonymous": false,
      "inputs": [
        {
          "indexed": false,
          "internalType": "string",
          "name": "action",
          "type": "string"
        },
        {
          "indexed": false,
          "internalType": "uint256",
          "name": "id",
          "type": "uint256"
        },
        {
          "indexed": false,
          "internalType": "address",
          "name": "issuer",
          "type": "address"
        }
      ],
      "name": "nft",
      "type": "event"
    },
    {
      "inputs": [],
      "name": "NFTFactoryContract",
      "outputs": [
        {
          "internalType": "contract NFTFactory",
          "name": "",
          "type": "address"
        }
      ],
      "stateMutability": "view",
      "type": "function"
    },
    {
      "inputs": [
        {
          "internalType": "uint256",
          "name": "_itemId",
          "type": "uint256"
        }
      ],
      "name": "acceptBid",
      "outputs": [],
      "stateMutability": "payable",
      "type": "function"
    },
    {
      "inputs": [
        {
          "internalType": "uint256",
          "name": "_itemId",
          "type": "uint256"
        }
      ],
      "name": "bidOnNFT",
      "outputs": [],
      "stateMutability": "payable",
      "type": "function"
    },
    {
      "inputs": [
        {
          "internalType": "uint256",
          "name": "_itemId",
          "type": "uint256"
        }
      ],
      "name": "buyNFT",
      "outputs": [],
      "stateMutability": "payable",
      "type": "function"
    },
    {
      "inputs": [
        {
          "internalType": "uint256",
          "name": "_itemId",
          "type": "uint256"
        }
      ],
      "name": "cancelSell",
      "outputs": [],
      "stateMutability": "nonpayable",
      "type": "function"
    },
    {
      "inputs": [
        {
          "internalType": "uint256",
          "name": "",
          "type": "uint256"
        }
      ],
      "name": "collections",
      "outputs": [
        {
          "internalType": "contract ERC721Upgradeable",
          "name": "Contract",
          "type": "address"
        },
        {
          "internalType": "address",
          "name": "Owner",
          "type": "address"
        },
        {
          "internalType": "string",
          "name": "imageLink",
          "type": "string"
        },
        {
          "internalType": "string",
          "name": "info",
          "type": "string"
        }
      ],
      "stateMutability": "view",
      "type": "function"
    },
    {
      "inputs": [
        {
          "internalType": "string",
          "name": "_name",
          "type": "string"
        },
        {
          "internalType": "string",
          "name": "_ticker",
          "type": "string"
        },
        {
          "internalType": "string",
          "name": "_imageLink",
          "type": "string"
        },
        {
          "internalType": "string",
          "name": "_info",
          "type": "string"
        }
      ],
      "name": "createCollection",
      "outputs": [],
      "stateMutability": "nonpayable",
      "type": "function"
    },
    {
      "inputs": [
        {
          "internalType": "uint256",
          "name": "_itemId",
          "type": "uint256"
        }
      ],
      "name": "getApproved",
      "outputs": [
        {
          "internalType": "address",
          "name": "",
          "type": "address"
        }
      ],
      "stateMutability": "view",
      "type": "function"
    },
    {
      "inputs": [],
      "name": "getBalance",
      "outputs": [
        {
          "internalType": "uint256",
          "name": "",
          "type": "uint256"
        }
      ],
      "stateMutability": "view",
      "type": "function"
    },
    {
      "inputs": [
        {
          "internalType": "uint256",
          "name": "",
          "type": "uint256"
        }
      ],
      "name": "items",
      "outputs": [
        {
          "internalType": "uint256",
          "name": "tokenId",
          "type": "uint256"
        },
        {
          "internalType": "contract ERC721Upgradeable",
          "name": "nft",
          "type": "address"
        },
        {
          "internalType": "uint256",
          "name": "price",
          "type": "uint256"
        },
        {
          "internalType": "uint256",
          "name": "bidPrice",
          "type": "uint256"
        },
        {
          "internalType": "address",
          "name": "bidAddress",
          "type": "address"
        },
        {
          "internalType": "bool",
          "name": "forSell",
          "type": "bool"
        }
      ],
      "stateMutability": "view",
      "type": "function"
    },
    {
      "inputs": [
        {
          "internalType": "uint256",
          "name": "_collectionId",
          "type": "uint256"
        },
        {
          "internalType": "string",
          "name": "_tokenURI",
          "type": "string"
        }
      ],
      "name": "mintNFT",
      "outputs": [],
      "stateMutability": "nonpayable",
      "type": "function"
    },
    {
      "inputs": [],
      "name": "returnCollections",
      "outputs": [
        {
          "components": [
            {
              "internalType": "contract ERC721Upgradeable",
              "name": "Contract",
              "type": "address"
            },
            {
              "internalType": "address",
              "name": "Owner",
              "type": "address"
            },
            {
              "internalType": "string",
              "name": "imageLink",
              "type": "string"
            },
            {
              "internalType": "string",
              "name": "info",
              "type": "string"
            }
          ],
          "internalType": "struct Marketplace.collection[]",
          "name": "",
          "type": "tuple[]"
        }
      ],
      "stateMutability": "view",
      "type": "function"
    },
    {
      "inputs": [],
      "name": "returnCollectionsLength",
      "outputs": [
        {
          "internalType": "uint256",
          "name": "",
          "type": "uint256"
        }
      ],
      "stateMutability": "view",
      "type": "function"
    },
    {
      "inputs": [],
      "name": "returnItemsLength",
      "outputs": [
        {
          "internalType": "uint256",
          "name": "",
          "type": "uint256"
        }
      ],
      "stateMutability": "view",
      "type": "function"
    },
    {
      "inputs": [
        {
          "internalType": "uint256",
          "name": "_itemId",
          "type": "uint256"
        },
        {
          "internalType": "uint256",
          "name": "_price",
          "type": "uint256"
        }
      ],
      "name": "sellNFT",
      "outputs": [],
      "stateMutability": "nonpayable",
      "type": "function"
    },
    {
      "inputs": [],
      "name": "tokenCount",
      "outputs": [
        {
          "internalType": "uint256",
          "name": "_value",
          "type": "uint256"
        }
      ],
      "stateMutability": "view",
      "type": "function"
    }
  ],
  "bytecode": "0x60806040523480156200001157600080fd5b50600160008190555060405162000028906200008c565b604051809103906000f08015801562000045573d6000803e3d6000fd5b50600260006101000a81548173ffffffffffffffffffffffffffffffffffffffff021916908373ffffffffffffffffffffffffffffffffffffffff1602179055506200009a565b613aec806200330283390190565b61325880620000aa6000396000f3fe6080604052600436106100f35760003560e01c806351ed82881161008a5780639f181b5e116100595780639f181b5e146102db578063bfb231d214610306578063fa15927814610348578063fdbda0ec14610371576100f3565b806351ed8288146102405780636ab3bd791461025c578063783488db1461028757806391a48a1e146102b2576100f3565b80631a0c8fa0116100c65780631a0c8fa0146101b457806327bf3410146101dd5780632a0b4f02146101f95780632b1fd58a14610224576100f3565b806307c9cd45146100f8578063081812fc1461012157806312065fe01461015e57806315ab8a7114610189575b600080fd5b34801561010457600080fd5b5061011f600480360381019061011a9190612151565b6103b1565b005b34801561012d57600080fd5b5061014860048036038101906101439190612151565b61055e565b60405161015591906126c2565b60405180910390f35b34801561016a57600080fd5b5061017361063c565b6040516101809190612b2a565b60405180910390f35b34801561019557600080fd5b5061019e610644565b6040516101ab9190612b2a565b60405180910390f35b3480156101c057600080fd5b506101db60048036038101906101d691906121b6565b610655565b005b6101f760048036038101906101f29190612151565b610a8c565b005b34801561020557600080fd5b5061020e610c16565b60405161021b91906127b2565b60405180910390f35b61023e60048036038101906102399190612151565b610c3c565b005b61025a60048036038101906102559190612151565b611059565b005b34801561026857600080fd5b5061027161140a565b60405161027e919061273d565b60405180910390f35b34801561029357600080fd5b5061029c611639565b6040516102a99190612b2a565b60405180910390f35b3480156102be57600080fd5b506102d960048036038101906102d4919061220a565b611646565b005b3480156102e757600080fd5b506102f0611853565b6040516102fd9190612b2a565b60405180910390f35b34801561031257600080fd5b5061032d60048036038101906103289190612151565b61185f565b60405161033f96959493929190612b45565b60405180910390f35b34801561035457600080fd5b5061036f600480360381019061036a9190612089565b6118e8565b005b34801561037d57600080fd5b5061039860048036038101906103939190612151565b611ba7565b6040516103a8949392919061275f565b60405180910390f35b3373ffffffffffffffffffffffffffffffffffffffff166005600083815260200190815260200160002060010160009054906101000a900473ffffffffffffffffffffffffffffffffffffffff1673ffffffffffffffffffffffffffffffffffffffff16636352211e60056000858152602001908152602001600020600001546040518263ffffffff1660e01b815260040161044d9190612b2a565b60206040518083038186803b15801561046557600080fd5b505afa158015610479573d6000803e3d6000fd5b505050506040513d601f19601f8201168201806040525081019061049d9190612024565b73ffffffffffffffffffffffffffffffffffffffff16146104f3576040517f08c379a00000000000000000000000000000000000000000000000000000000081526004016104ea90612a6e565b60405180910390fd5b60006005600083815260200190815260200160002060040160146101000a81548160ff0219169083151502179055507ff2d297eac80d2d16471c4d7e861e173d751386a6667de8ed5c0eea80959dda108133604051610553929190612aae565b60405180910390a150565b60006005600083815260200190815260200160002060010160009054906101000a900473ffffffffffffffffffffffffffffffffffffffff1673ffffffffffffffffffffffffffffffffffffffff1663081812fc60056000858152602001908152602001600020600001546040518263ffffffff1660e01b81526004016105e59190612b2a565b60206040518083038186803b1580156105fd57600080fd5b505afa158015610611573d6000803e3d6000fd5b505050506040513d601f19601f820116820180604052508101906106359190612024565b9050919050565b600047905090565b60006106506001611d37565b905090565b3373ffffffffffffffffffffffffffffffffffffffff16600483815481106106a6577f4e487b7100000000000000000000000000000000000000000000000000000000600052603260045260246000fd5b906000526020600020906004020160010160009054906101000a900473ffffffffffffffffffffffffffffffffffffffff1673ffffffffffffffffffffffffffffffffffffffff161461072e576040517f08c379a000000000000000000000000000000000000000000000000000000000815260040161072590612956565b60405180910390fd5b60048281548110610768577f4e487b7100000000000000000000000000000000000000000000000000000000600052603260045260246000fd5b906000526020600020906004020160000160009054906101000a900473ffffffffffffffffffffffffffffffffffffffff16600360006101000a81548173ffffffffffffffffffffffffffffffffffffffff021916908373ffffffffffffffffffffffffffffffffffffffff160217905550600080600360009054906101000a900473ffffffffffffffffffffffffffffffffffffffff1673ffffffffffffffffffffffffffffffffffffffff16631c351a9d84336040518363ffffffff1660e01b815260040161083a9291906127cd565b6040805180830381600087803b15801561085357600080fd5b505af1158015610867573d6000803e3d6000fd5b505050506040513d601f19601f8201168201806040525081019061088b919061217a565b91509150806108cf576040517f08c379a00000000000000000000000000000000000000000000000000000000081526004016108c690612a4e565b60405180910390fd5b6108d96001611d45565b6040518060c00160405280838152602001600360009054906101000a900473ffffffffffffffffffffffffffffffffffffffff1673ffffffffffffffffffffffffffffffffffffffff16815260200160008152602001600081526020013073ffffffffffffffffffffffffffffffffffffffff16815260200160001515815250600560006109676001611d37565b81526020019081526020016000206000820151816000015560208201518160010160006101000a81548173ffffffffffffffffffffffffffffffffffffffff021916908373ffffffffffffffffffffffffffffffffffffffff160217905550604082015181600201556060820151816003015560808201518160040160006101000a81548173ffffffffffffffffffffffffffffffffffffffff021916908373ffffffffffffffffffffffffffffffffffffffff16021790555060a08201518160040160146101000a81548160ff0219169083151502179055509050507ff2d297eac80d2d16471c4d7e861e173d751386a6667de8ed5c0eea80959dda10610a6f6001611d37565b33604051610a7e92919061289e565b60405180910390a150505050565b610a94611d5b565b60056000828152602001908152602001600020600301543411610aec576040517f08c379a0000000000000000000000000000000000000000000000000000000008152600401610ae390612a8e565b60405180910390fd5b600060056000838152602001908152602001600020600301541115610b6257610b616005600083815260200190815260200160002060040160009054906101000a900473ffffffffffffffffffffffffffffffffffffffff166005600084815260200190815260200160002060030154611dab565b5b346005600083815260200190815260200160002060030181905550336005600083815260200190815260200160002060040160006101000a81548173ffffffffffffffffffffffffffffffffffffffff021916908373ffffffffffffffffffffffffffffffffffffffff1602179055507ff2d297eac80d2d16471c4d7e861e173d751386a6667de8ed5c0eea80959dda108133604051610c039291906129d2565b60405180910390a1610c13611e5c565b50565b600260009054906101000a900473ffffffffffffffffffffffffffffffffffffffff1681565b610c44611d5b565b6000600560008381526020019081526020016000206003015411610c9d576040517f08c379a0000000000000000000000000000000000000000000000000000000008152600401610c9490612842565b60405180910390fd5b60006005600083815260200190815260200160002060010160009054906101000a900473ffffffffffffffffffffffffffffffffffffffff1673ffffffffffffffffffffffffffffffffffffffff16636352211e60056000858152602001908152602001600020600001546040518263ffffffff1660e01b8152600401610d249190612b2a565b60206040518083038186803b158015610d3c57600080fd5b505afa158015610d50573d6000803e3d6000fd5b505050506040513d601f19601f82011682018060405250810190610d749190612024565b90503373ffffffffffffffffffffffffffffffffffffffff166005600084815260200190815260200160002060010160009054906101000a900473ffffffffffffffffffffffffffffffffffffffff1673ffffffffffffffffffffffffffffffffffffffff16636352211e60056000868152602001908152602001600020600001546040518263ffffffff1660e01b8152600401610e129190612b2a565b60206040518083038186803b158015610e2a57600080fd5b505afa158015610e3e573d6000803e3d6000fd5b505050506040513d601f19601f82011682018060405250810190610e629190612024565b73ffffffffffffffffffffffffffffffffffffffff1614610eb8576040517f08c379a0000000000000000000000000000000000000000000000000000000008152600401610eaf90612a0e565b60405180910390fd5b610ed8816005600085815260200190815260200160002060030154611dab565b6005600083815260200190815260200160002060010160009054906101000a900473ffffffffffffffffffffffffffffffffffffffff1673ffffffffffffffffffffffffffffffffffffffff166323b872dd826005600086815260200190815260200160002060040160009054906101000a900473ffffffffffffffffffffffffffffffffffffffff1660056000878152602001908152602001600020600001546040518463ffffffff1660e01b8152600401610f9793929190612706565b600060405180830381600087803b158015610fb157600080fd5b505af1158015610fc5573d6000803e3d6000fd5b5050505060006005600084815260200190815260200160002060040160146101000a81548160ff021916908315150217905550600060056000848152602001908152602001600020600301819055507ff2d297eac80d2d16471c4d7e861e173d751386a6667de8ed5c0eea80959dda108233604051611045929190612862565b60405180910390a150611056611e5c565b50565b611061611d5b565b600115156005600083815260200190815260200160002060040160149054906101000a900460ff161515146110cb576040517f08c379a00000000000000000000000000000000000000000000000000000000081526004016110c290612a2e565b60405180910390fd5b60056000828152602001908152602001600020600201543414611123576040517f08c379a000000000000000000000000000000000000000000000000000000000815260040161111a90612aea565b60405180910390fd5b60006005600083815260200190815260200160002060010160009054906101000a900473ffffffffffffffffffffffffffffffffffffffff1673ffffffffffffffffffffffffffffffffffffffff16636352211e60056000858152602001908152602001600020600001546040518263ffffffff1660e01b81526004016111aa9190612b2a565b60206040518083038186803b1580156111c257600080fd5b505afa1580156111d6573d6000803e3d6000fd5b505050506040513d601f19601f820116820180604052508101906111fa9190612024565b905060006005600084815260200190815260200160002060040160146101000a81548160ff021916908315150217905550600060056000848152602001908152602001600020600301819055506005600083815260200190815260200160002060010160009054906101000a900473ffffffffffffffffffffffffffffffffffffffff1673ffffffffffffffffffffffffffffffffffffffff166342842e0e823360056000878152602001908152602001600020600001546040518463ffffffff1660e01b81526004016112d093929190612706565b600060405180830381600087803b1580156112ea57600080fd5b505af11580156112fe573d6000803e3d6000fd5b5050505060008173ffffffffffffffffffffffffffffffffffffffff16600560008581526020019081526020016000206002015460405161133e906126ad565b60006040518083038185875af1925050503d806000811461137b576040519150601f19603f3d011682016040523d82523d6000602084013e611380565b606091505b50509050806113c4576040517f08c379a00000000000000000000000000000000000000000000000000000000081526004016113bb90612916565b60405180910390fd5b7ff2d297eac80d2d16471c4d7e861e173d751386a6667de8ed5c0eea80959dda1083336040516113f5929190612996565b60405180910390a15050611407611e5c565b50565b60606004805480602002602001604051908101604052809291908181526020016000905b8282101561163057838290600052602060002090600402016040518060800160405290816000820160009054906101000a900473ffffffffffffffffffffffffffffffffffffffff1673ffffffffffffffffffffffffffffffffffffffff1673ffffffffffffffffffffffffffffffffffffffff1681526020016001820160009054906101000a900473ffffffffffffffffffffffffffffffffffffffff1673ffffffffffffffffffffffffffffffffffffffff1673ffffffffffffffffffffffffffffffffffffffff16815260200160028201805461150d90612d51565b80601f016020809104026020016040519081016040528092919081815260200182805461153990612d51565b80156115865780601f1061155b57610100808354040283529160200191611586565b820191906000526020600020905b81548152906001019060200180831161156957829003601f168201915b5050505050815260200160038201805461159f90612d51565b80601f01602080910402602001604051908101604052809291908181526020018280546115cb90612d51565b80156116185780601f106115ed57610100808354040283529160200191611618565b820191906000526020600020905b8154815290600101906020018083116115fb57829003601f168201915b5050505050815250508152602001906001019061142e565b50505050905090565b6000600480549050905090565b600081141561168a576040517f08c379a000000000000000000000000000000000000000000000000000000000815260040161168190612976565b60405180910390fd5b3373ffffffffffffffffffffffffffffffffffffffff166005600084815260200190815260200160002060010160009054906101000a900473ffffffffffffffffffffffffffffffffffffffff1673ffffffffffffffffffffffffffffffffffffffff16636352211e60056000868152602001908152602001600020600001546040518263ffffffff1660e01b81526004016117269190612b2a565b60206040518083038186803b15801561173e57600080fd5b505afa158015611752573d6000803e3d6000fd5b505050506040513d601f19601f820116820180604052508101906117769190612024565b73ffffffffffffffffffffffffffffffffffffffff16146117cc576040517f08c379a00000000000000000000000000000000000000000000000000000000081526004016117c390612a6e565b60405180910390fd5b80600560008481526020019081526020016000206002018190555060016005600084815260200190815260200160002060040160146101000a81548160ff0219169083151502179055507ff2d297eac80d2d16471c4d7e861e173d751386a6667de8ed5c0eea80959dda1082336040516118479291906128da565b60405180910390a15050565b60018060000154905081565b60056020528060005260406000206000915090508060000154908060010160009054906101000a900473ffffffffffffffffffffffffffffffffffffffff16908060020154908060030154908060040160009054906101000a900473ffffffffffffffffffffffffffffffffffffffff16908060040160149054906101000a900460ff16905086565b600080600260009054906101000a900473ffffffffffffffffffffffffffffffffffffffff1673ffffffffffffffffffffffffffffffffffffffff16630fba44538888336040518463ffffffff1660e01b815260040161194a939291906127fd565b6040805180830381600087803b15801561196357600080fd5b505af1158015611977573d6000803e3d6000fd5b505050506040513d601f19601f8201168201806040525081019061199b919061204d565b91509150806119df576040517f08c379a00000000000000000000000000000000000000000000000000000000081526004016119d690612936565b60405180910390fd5b600460405180608001604052808473ffffffffffffffffffffffffffffffffffffffff1681526020013373ffffffffffffffffffffffffffffffffffffffff16815260200187878080601f016020809104026020016040519081016040528093929190818152602001838380828437600081840152601f19601f82011690508083019250505050505050815260200185815250908060018154018082558091505060019003906000526020600020906004020160009091909190915060008201518160000160006101000a81548173ffffffffffffffffffffffffffffffffffffffff021916908373ffffffffffffffffffffffffffffffffffffffff16021790555060208201518160010160006101000a81548173ffffffffffffffffffffffffffffffffffffffff021916908373ffffffffffffffffffffffffffffffffffffffff1602179055506040820151816002019080519060200190611b45929190611e66565b506060820151816003019080519060200190611b62929190611e66565b5050507f7a2eb8f39b8a781cd83c1b46630618f9cac4768ce34adb76d0ef41f659170a048233604051611b969291906126dd565b60405180910390a150505050505050565b60048181548110611bb757600080fd5b90600052602060002090600402016000915090508060000160009054906101000a900473ffffffffffffffffffffffffffffffffffffffff16908060010160009054906101000a900473ffffffffffffffffffffffffffffffffffffffff1690806002018054611c2690612d51565b80601f0160208091040260200160405190810160405280929190818152602001828054611c5290612d51565b8015611c9f5780601f10611c7457610100808354040283529160200191611c9f565b820191906000526020600020905b815481529060010190602001808311611c8257829003601f168201915b505050505090806003018054611cb490612d51565b80601f0160208091040260200160405190810160405280929190818152602001828054611ce090612d51565b8015611d2d5780601f10611d0257610100808354040283529160200191611d2d565b820191906000526020600020905b815481529060010190602001808311611d1057829003601f168201915b5050505050905084565b600081600001549050919050565b6001816000016000828254019250508190555050565b60026000541415611da1576040517f08c379a0000000000000000000000000000000000000000000000000000000008152600401611d9890612b0a565b60405180910390fd5b6002600081905550565b60008273ffffffffffffffffffffffffffffffffffffffff1682604051611dd1906126ad565b60006040518083038185875af1925050503d8060008114611e0e576040519150601f19603f3d011682016040523d82523d6000602084013e611e13565b606091505b5050905080611e57576040517f08c379a0000000000000000000000000000000000000000000000000000000008152600401611e4e90612916565b60405180910390fd5b505050565b6001600081905550565b828054611e7290612d51565b90600052602060002090601f016020900481019282611e945760008555611edb565b82601f10611ead57805160ff1916838001178555611edb565b82800160010185558215611edb579182015b82811115611eda578251825591602001919060010190611ebf565b5b509050611ee89190611eec565b5090565b5b80821115611f05576000816000905550600101611eed565b5090565b6000611f1c611f1784612bcb565b612ba6565b905082815260208101848484011115611f3457600080fd5b611f3f848285612d0f565b509392505050565b600081519050611f56816131c6565b92915050565b600081519050611f6b816131dd565b92915050565b600081519050611f80816131f4565b92915050565b60008083601f840112611f9857600080fd5b8235905067ffffffffffffffff811115611fb157600080fd5b602083019150836001820283011115611fc957600080fd5b9250929050565b600082601f830112611fe157600080fd5b8135611ff1848260208601611f09565b91505092915050565b6000813590506120098161320b565b92915050565b60008151905061201e8161320b565b92915050565b60006020828403121561203657600080fd5b600061204484828501611f47565b91505092915050565b6000806040838503121561206057600080fd5b600061206e85828601611f71565b925050602061207f85828601611f5c565b9150509250929050565b6000806000806000608086880312156120a157600080fd5b600086013567ffffffffffffffff8111156120bb57600080fd5b6120c788828901611fd0565b955050602086013567ffffffffffffffff8111156120e457600080fd5b6120f088828901611fd0565b945050604086013567ffffffffffffffff81111561210d57600080fd5b61211988828901611f86565b9350935050606086013567ffffffffffffffff81111561213857600080fd5b61214488828901611fd0565b9150509295509295909350565b60006020828403121561216357600080fd5b600061217184828501611ffa565b91505092915050565b6000806040838503121561218d57600080fd5b600061219b8582860161200f565b92505060206121ac85828601611f5c565b9150509250929050565b600080604083850312156121c957600080fd5b60006121d785828601611ffa565b925050602083013567ffffffffffffffff8111156121f457600080fd5b61220085828601611fd0565b9150509250929050565b6000806040838503121561221d57600080fd5b600061222b85828601611ffa565b925050602061223c85828601611ffa565b9150509250929050565b60006122528383612634565b905092915050565b61226381612c6d565b82525050565b61227281612c6d565b82525050565b600061228382612c0c565b61228d8185612c2f565b93508360208202850161229f85612bfc565b8060005b858110156122db57848403895281516122bc8582612246565b94506122c783612c22565b925060208a019950506001810190506122a3565b50829750879550505050505092915050565b6122f681612c7f565b82525050565b61230581612cc7565b82525050565b61231481612cc7565b82525050565b61232381612ceb565b82525050565b600061233482612c17565b61233e8185612c4b565b935061234e818560208601612d1e565b61235781612e12565b840191505092915050565b600061236d82612c17565b6123778185612c5c565b9350612387818560208601612d1e565b61239081612e12565b840191505092915050565b60006123a8602383612c5c565b91506123b382612e23565b604082019050919050565b60006123cb600983612c5c565b91506123d682612e72565b602082019050919050565b60006123ee600483612c5c565b91506123f982612e9b565b602082019050919050565b6000612411600483612c5c565b915061241c82612ec4565b602082019050919050565b6000612434601983612c5c565b915061243f82612eed565b602082019050919050565b6000612457601b83612c5c565b915061246282612f16565b602082019050919050565b600061247a602983612c5c565b915061248582612f3f565b604082019050919050565b600061249d601283612c5c565b91506124a882612f8e565b602082019050919050565b60006124c0600383612c5c565b91506124cb82612fb7565b602082019050919050565b60006124e3600383612c5c565b91506124ee82612fe0565b602082019050919050565b6000612506602283612c5c565b915061251182613009565b604082019050919050565b6000612529601183612c5c565b915061253482613058565b602082019050919050565b600061254c601083612c5c565b915061255782613081565b602082019050919050565b600061256f600083612c40565b915061257a826130aa565b600082019050919050565b6000612592601583612c5c565b915061259d826130ad565b602082019050919050565b60006125b5602d83612c5c565b91506125c0826130d6565b604082019050919050565b60006125d8600a83612c5c565b91506125e382613125565b602082019050919050565b60006125fb602883612c5c565b91506126068261314e565b604082019050919050565b600061261e601f83612c5c565b91506126298261319d565b602082019050919050565b600060808301600083015161264c60008601826122fc565b50602083015161265f602086018261225a565b50604083015184820360408601526126778282612329565b915050606083015184820360608601526126918282612329565b9150508091505092915050565b6126a781612cbd565b82525050565b60006126b882612562565b9150819050919050565b60006020820190506126d76000830184612269565b92915050565b60006040820190506126f26000830185612269565b6126ff6020830184612269565b9392505050565b600060608201905061271b6000830186612269565b6127286020830185612269565b612735604083018461269e565b949350505050565b600060208201905081810360008301526127578184612278565b905092915050565b6000608082019050612774600083018761230b565b6127816020830186612269565b81810360408301526127938185612362565b905081810360608301526127a78184612362565b905095945050505050565b60006020820190506127c7600083018461231a565b92915050565b600060408201905081810360008301526127e78185612362565b90506127f66020830184612269565b9392505050565b600060608201905081810360008301526128178186612362565b9050818103602083015261282b8185612362565b905061283a6040830184612269565b949350505050565b6000602082019050818103600083015261285b8161239b565b9050919050565b6000606082019050818103600083015261287b816123be565b905061288a602083018561269e565b6128976040830184612269565b9392505050565b600060608201905081810360008301526128b7816123e1565b90506128c6602083018561269e565b6128d36040830184612269565b9392505050565b600060608201905081810360008301526128f381612404565b9050612902602083018561269e565b61290f6040830184612269565b9392505050565b6000602082019050818103600083015261292f81612427565b9050919050565b6000602082019050818103600083015261294f8161244a565b9050919050565b6000602082019050818103600083015261296f8161246d565b9050919050565b6000602082019050818103600083015261298f81612490565b9050919050565b600060608201905081810360008301526129af816124b3565b90506129be602083018561269e565b6129cb6040830184612269565b9392505050565b600060608201905081810360008301526129eb816124d6565b90506129fa602083018561269e565b612a076040830184612269565b9392505050565b60006020820190508181036000830152612a27816124f9565b9050919050565b60006020820190508181036000830152612a478161251c565b9050919050565b60006020820190508181036000830152612a678161253f565b9050919050565b60006020820190508181036000830152612a8781612585565b9050919050565b60006020820190508181036000830152612aa7816125a8565b9050919050565b60006060820190508181036000830152612ac7816125cb565b9050612ad6602083018561269e565b612ae36040830184612269565b9392505050565b60006020820190508181036000830152612b03816125ee565b9050919050565b60006020820190508181036000830152612b2381612611565b9050919050565b6000602082019050612b3f600083018461269e565b92915050565b600060c082019050612b5a600083018961269e565b612b67602083018861230b565b612b74604083018761269e565b612b81606083018661269e565b612b8e6080830185612269565b612b9b60a08301846122ed565b979650505050505050565b6000612bb0612bc1565b9050612bbc8282612d83565b919050565b6000604051905090565b600067ffffffffffffffff821115612be657612be5612de3565b5b612bef82612e12565b9050602081019050919050565b6000819050602082019050919050565b600081519050919050565b600081519050919050565b6000602082019050919050565b600082825260208201905092915050565b600081905092915050565b600082825260208201905092915050565b600082825260208201905092915050565b6000612c7882612c9d565b9050919050565b60008115159050919050565b6000612c9682612c6d565b9050919050565b600073ffffffffffffffffffffffffffffffffffffffff82169050919050565b6000819050919050565b6000612cd282612cd9565b9050919050565b6000612ce482612c9d565b9050919050565b6000612cf682612cfd565b9050919050565b6000612d0882612c9d565b9050919050565b82818337600083830152505050565b60005b83811015612d3c578082015181840152602081019050612d21565b83811115612d4b576000848401525b50505050565b60006002820490506001821680612d6957607f821691505b60208210811415612d7d57612d7c612db4565b5b50919050565b612d8c82612e12565b810181811067ffffffffffffffff82111715612dab57612daa612de3565b5b80604052505050565b7f4e487b7100000000000000000000000000000000000000000000000000000000600052602260045260246000fd5b7f4e487b7100000000000000000000000000000000000000000000000000000000600052604160045260246000fd5b6000601f19601f8301169050919050565b7f4e6f20626964732068617665206265656e206d616465206f6e2074686174206e60008201527f66742e0000000000000000000000000000000000000000000000000000000000602082015250565b7f4163636570744269640000000000000000000000000000000000000000000000600082015250565b7f4d696e7400000000000000000000000000000000000000000000000000000000600082015250565b7f53656c6c00000000000000000000000000000000000000000000000000000000600082015250565b7f556e61626c6520746f207472616e736665722066756e64732e00000000000000600082015250565b7f436f6c6c656374696f6e206372656174696f6e206661696c65642e0000000000600082015250565b7f596f7520617265206e6f7420746865206f776e6572206f66207468697320636f60008201527f6c6c656374696f6e2e0000000000000000000000000000000000000000000000602082015250565b7f50726963652063616e6e6f7420626520302e0000000000000000000000000000600082015250565b7f4275790000000000000000000000000000000000000000000000000000000000600082015250565b7f4269640000000000000000000000000000000000000000000000000000000000600082015250565b7f596f7520617265206e6f7420746865206f776e6572206f662074686973204e4660008201527f542e000000000000000000000000000000000000000000000000000000000000602082015250565b7f4e4654204e6f7420666f722073656c6c2e000000000000000000000000000000600082015250565b7f4e4654204d696e74206661696c65642e00000000000000000000000000000000600082015250565b50565b7f54686973206973206e6f7420796f7572204e46542e0000000000000000000000600082015250565b7f596f757220626964206d75737420626520626967676572207468616e2074686560008201527f2063757272656e74206f6e652e00000000000000000000000000000000000000602082015250565b7f43616e63656c53656c6c00000000000000000000000000000000000000000000600082015250565b7f5375626d697474656420707269636520646f65736e2774206d61746368206e6660008201527f742070726963652e000000000000000000000000000000000000000000000000602082015250565b7f5265656e7472616e637947756172643a207265656e7472616e742063616c6c00600082015250565b6131cf81612c6d565b81146131da57600080fd5b50565b6131e681612c7f565b81146131f157600080fd5b50565b6131fd81612c8b565b811461320857600080fd5b50565b61321481612cbd565b811461321f57600080fd5b5056fea2646970667358221220b1ab219489595b3f9181bd76da4c02f0cb7a7529a2773ad1e3f6338baeae211e64736f6c6343000804003360a060405234801561001057600080fd5b5060405161001d90610075565b604051809103906000f080158015610039573d6000803e3d6000fd5b5073ffffffffffffffffffffffffffffffffffffffff1660808173ffffffffffffffffffffffffffffffffffffffff1660601b81525050610082565b6132c98061082383390190565b60805160601c61077c6100a76000396000818161014401526101fc015261077c6000f3fe608060405234801561001057600080fd5b50600436106100415760003560e01c80630fba445314610046578063e6a8ee4f14610077578063ec2adb4b14610095575b600080fd5b610060600480360381019061005b91906103bc565b6100b3565b60405161006e929190610584565b60405180910390f35b61007f610142565b60405161008c9190610547565b60405180910390f35b61009d610166565b6040516100aa9190610562565b60405180910390f35b60008060006100c588888888886101f4565b905060008190506000819080600181540180825580915050600190039060005260206000200160009091909190916101000a81548173ffffffffffffffffffffffffffffffffffffffff021916908373ffffffffffffffffffffffffffffffffffffffff1602179055508093506001925050509550959350505050565b7f000000000000000000000000000000000000000000000000000000000000000081565b606060008054806020026020016040519081016040528092919081815260200182805480156101ea57602002820191906000526020600020905b8160009054906101000a900473ffffffffffffffffffffffffffffffffffffffff1673ffffffffffffffffffffffffffffffffffffffff16815260200190600101908083116101a0575b5050505050905090565b6000806102207f00000000000000000000000000000000000000000000000000000000000000006102a2565b90508073ffffffffffffffffffffffffffffffffffffffff1663077f224a88888888886040518663ffffffff1660e01b81526004016102639594939291906105ad565b600060405180830381600087803b15801561027d57600080fd5b505af1158015610291573d6000803e3d6000fd5b505050508091505095945050505050565b6000763d602d80600a3d3981f3363d3d373d3d3d363d730000008260601b60e81c176000526e5af43d82803e903d91602b57fd5bf38260781b17602052603760096000f09050600073ffffffffffffffffffffffffffffffffffffffff168173ffffffffffffffffffffffffffffffffffffffff161415610358576040517f08c379a000000000000000000000000000000000000000000000000000000000815260040161034f906105f6565b60405180910390fd5b919050565b60008135905061036c8161072f565b92915050565b60008083601f84011261038457600080fd5b8235905067ffffffffffffffff81111561039d57600080fd5b6020830191508360018202830111156103b557600080fd5b9250929050565b6000806000806000606086880312156103d457600080fd5b600086013567ffffffffffffffff8111156103ee57600080fd5b6103fa88828901610372565b9550955050602086013567ffffffffffffffff81111561041957600080fd5b61042588828901610372565b935093505060406104388882890161035d565b9150509295509295909350565b600061045183836104e8565b60208301905092915050565b61046681610660565b82525050565b600061047782610626565b610481818561063e565b935061048c83610616565b8060005b838110156104bd5781516104a48882610445565b97506104af83610631565b925050600181019050610490565b5085935050505092915050565b6104d381610672565b82525050565b6104e28161069e565b82525050565b6104f1816106c2565b82525050565b6000610503838561064f565b93506105108385846106e6565b610519836106f5565b840190509392505050565b600061053160168361064f565b915061053c82610706565b602082019050919050565b600060208201905061055c600083018461045d565b92915050565b6000602082019050818103600083015261057c818461046c565b905092915050565b600060408201905061059960008301856104d9565b6105a660208301846104ca565b9392505050565b600060608201905081810360008301526105c88187896104f7565b905081810360208301526105dd8185876104f7565b90506105ec604083018461045d565b9695505050505050565b6000602082019050818103600083015261060f81610524565b9050919050565b6000819050602082019050919050565b600081519050919050565b6000602082019050919050565b600082825260208201905092915050565b600082825260208201905092915050565b600061066b8261067e565b9050919050565b60008115159050919050565b600073ffffffffffffffffffffffffffffffffffffffff82169050919050565b60006106a9826106b0565b9050919050565b60006106bb8261067e565b9050919050565b60006106cd826106d4565b9050919050565b60006106df8261067e565b9050919050565b82818337600083830152505050565b6000601f19601f8301169050919050565b7f455243313136373a20637265617465206661696c656400000000000000000000600082015250565b61073881610660565b811461074357600080fd5b5056fea26469706673582212207e80777cd748aaac1f6a5a4d46bead38800f41a062d4016614900f9ac881d7b764736f6c63430008040033608060405234801561001057600080fd5b506132a9806100206000396000f3fe608060405234801561001057600080fd5b506004361061010b5760003560e01c80636352211e116100a25780639f181b5e116100715780639f181b5e146102cb578063a22cb465146102e9578063b88d4fde14610305578063c87b56dd14610321578063e985e9c5146103515761010b565b80636352211e1461022f57806370a082311461025f5780638da5cb5b1461028f57806395d89b41146102ad5761010b565b8063095ea7b3116100de578063095ea7b3146101aa5780631c351a9d146101c657806323b872dd146101f757806342842e0e146102135761010b565b806301ffc9a71461011057806306fdde0314610140578063077f224a1461015e578063081812fc1461017a575b600080fd5b61012a600480360381019061012591906123a0565b610381565b6040516101379190612873565b60405180910390f35b610148610463565b60405161015591906128a9565b60405180910390f35b6101786004803603810190610173919061244a565b6104f5565b005b610194600480360381019061018f91906124d3565b610703565b6040516101a1919061280c565b60405180910390f35b6101c460048036038101906101bf9190612364565b610749565b005b6101e060048036038101906101db91906123f2565b610861565b6040516101ee929190612ac6565b60405180910390f35b610211600480360381019061020c919061225e565b610980565b005b61022d6004803603810190610228919061225e565b6109e0565b005b610249600480360381019061024491906124d3565b610a00565b604051610256919061280c565b60405180910390f35b610279600480360381019061027491906121f9565b610a87565b6040516102869190612aab565b60405180910390f35b610297610b3f565b6040516102a4919061280c565b60405180910390f35b6102b5610b65565b6040516102c291906128a9565b60405180910390f35b6102d3610bf7565b6040516102e09190612aab565b60405180910390f35b61030360048036038101906102fe9190612328565b610c03565b005b61031f600480360381019061031a91906122ad565b610c19565b005b61033b600480360381019061033691906124d3565b610c7b565b60405161034891906128a9565b60405180910390f35b61036b60048036038101906103669190612222565b610d8e565b6040516103789190612873565b60405180910390f35b60007f80ac58cd000000000000000000000000000000000000000000000000000000007bffffffffffffffffffffffffffffffffffffffffffffffffffffffff1916827bffffffffffffffffffffffffffffffffffffffffffffffffffffffff1916148061044c57507f5b5e139f000000000000000000000000000000000000000000000000000000007bffffffffffffffffffffffffffffffffffffffffffffffffffffffff1916827bffffffffffffffffffffffffffffffffffffffffffffffffffffffff1916145b8061045c575061045b82610e22565b5b9050919050565b60606065805461047290612ce7565b80601f016020809104026020016040519081016040528092919081815260200182805461049e90612ce7565b80156104eb5780601f106104c0576101008083540402835291602001916104eb565b820191906000526020600020905b8154815290600101906020018083116104ce57829003601f168201915b5050505050905090565b60008060019054906101000a900460ff161590508080156105265750600160008054906101000a900460ff1660ff16105b80610553575061053530610e8c565b1580156105525750600160008054906101000a900460ff1660ff16145b5b610592576040517f08c379a0000000000000000000000000000000000000000000000000000000008152600401610589906129cb565b60405180910390fd5b60016000806101000a81548160ff021916908360ff16021790555080156105cf576001600060016101000a81548160ff0219169083151502179055505b61066186868080601f016020809104026020016040519081016040528093929190818152602001838380828437600081840152601f19601f8201169050808301925050505050505085858080601f016020809104026020016040519081016040528093929190818152602001838380828437600081840152601f19601f82011690508083019250505050505050610eaf565b8160ca60006101000a81548173ffffffffffffffffffffffffffffffffffffffff021916908373ffffffffffffffffffffffffffffffffffffffff16021790555080156106fb5760008060016101000a81548160ff0219169083151502179055507f7f26b83ff96e1f2b6a682f133852f6798a09c465da95921460cefb384740249860016040516106f2919061288e565b60405180910390a15b505050505050565b600061070e82610f0c565b6069600083815260200190815260200160002060009054906101000a900473ffffffffffffffffffffffffffffffffffffffff169050919050565b600061075482610a00565b90508073ffffffffffffffffffffffffffffffffffffffff168373ffffffffffffffffffffffffffffffffffffffff1614156107c5576040517f08c379a00000000000000000000000000000000000000000000000000000000081526004016107bc90612a4b565b60405180910390fd5b8073ffffffffffffffffffffffffffffffffffffffff166107e4610f57565b73ffffffffffffffffffffffffffffffffffffffff16148061081357506108128161080d610f57565b610d8e565b5b610852576040517f08c379a000000000000000000000000000000000000000000000000000000000815260040161084990612a6b565b60405180910390fd5b61085c8383610f5f565b505050565b60008060ca60009054906101000a900473ffffffffffffffffffffffffffffffffffffffff1673ffffffffffffffffffffffffffffffffffffffff163273ffffffffffffffffffffffffffffffffffffffff16146108f4576040517f08c379a00000000000000000000000000000000000000000000000000000000081526004016108eb90612a0b565b60405180910390fd5b6108fe60c9611018565b6109118361090c60c961102e565b61103c565b61096861091e60c961102e565b86868080601f016020809104026020016040519081016040528093929190818152602001838380828437600081840152601f19601f8201169050808301925050505050505061105a565b61097260c961102e565b915060019050935093915050565b61099161098b610f57565b826110ce565b6109d0576040517f08c379a00000000000000000000000000000000000000000000000000000000081526004016109c7906128cb565b60405180910390fd5b6109db838383611163565b505050565b6109fb83838360405180602001604052806000815250610c19565b505050565b600080610a0c8361145d565b9050600073ffffffffffffffffffffffffffffffffffffffff168173ffffffffffffffffffffffffffffffffffffffff161415610a7e576040517f08c379a0000000000000000000000000000000000000000000000000000000008152600401610a7590612a2b565b60405180910390fd5b80915050919050565b60008073ffffffffffffffffffffffffffffffffffffffff168273ffffffffffffffffffffffffffffffffffffffff161415610af8576040517f08c379a0000000000000000000000000000000000000000000000000000000008152600401610aef9061298b565b60405180910390fd5b606860008373ffffffffffffffffffffffffffffffffffffffff1673ffffffffffffffffffffffffffffffffffffffff168152602001908152602001600020549050919050565b60ca60009054906101000a900473ffffffffffffffffffffffffffffffffffffffff1681565b606060668054610b7490612ce7565b80601f0160208091040260200160405190810160405280929190818152602001828054610ba090612ce7565b8015610bed5780601f10610bc257610100808354040283529160200191610bed565b820191906000526020600020905b815481529060010190602001808311610bd057829003601f168201915b5050505050905090565b60c98060000154905081565b610c15610c0e610f57565b838361149a565b5050565b610c2a610c24610f57565b836110ce565b610c69576040517f08c379a0000000000000000000000000000000000000000000000000000000008152600401610c60906128cb565b60405180910390fd5b610c7584848484611607565b50505050565b6060610c8682610f0c565b6000609760008481526020019081526020016000208054610ca690612ce7565b80601f0160208091040260200160405190810160405280929190818152602001828054610cd290612ce7565b8015610d1f5780601f10610cf457610100808354040283529160200191610d1f565b820191906000526020600020905b815481529060010190602001808311610d0257829003601f168201915b505050505090506000610d30611663565b9050600081511415610d46578192505050610d89565b600082511115610d7b578082604051602001610d639291906127e8565b60405160208183030381529060405292505050610d89565b610d848461167a565b925050505b919050565b6000606a60008473ffffffffffffffffffffffffffffffffffffffff1673ffffffffffffffffffffffffffffffffffffffff16815260200190815260200160002060008373ffffffffffffffffffffffffffffffffffffffff1673ffffffffffffffffffffffffffffffffffffffff16815260200190815260200160002060009054906101000a900460ff16905092915050565b60007f01ffc9a7000000000000000000000000000000000000000000000000000000007bffffffffffffffffffffffffffffffffffffffffffffffffffffffff1916827bffffffffffffffffffffffffffffffffffffffffffffffffffffffff1916149050919050565b6000808273ffffffffffffffffffffffffffffffffffffffff163b119050919050565b600060019054906101000a900460ff16610efe576040517f08c379a0000000000000000000000000000000000000000000000000000000008152600401610ef590612a8b565b60405180910390fd5b610f0882826116e2565b5050565b610f1581611763565b610f54576040517f08c379a0000000000000000000000000000000000000000000000000000000008152600401610f4b90612a2b565b60405180910390fd5b50565b600033905090565b816069600083815260200190815260200160002060006101000a81548173ffffffffffffffffffffffffffffffffffffffff021916908373ffffffffffffffffffffffffffffffffffffffff160217905550808273ffffffffffffffffffffffffffffffffffffffff16610fd283610a00565b73ffffffffffffffffffffffffffffffffffffffff167f8c5be1e5ebec7d5bd14f71427d1e84f3dd0314c0f7b2291e5b200ac8c7c3b92560405160405180910390a45050565b6001816000016000828254019250508190555050565b600081600001549050919050565b6110568282604051806020016040528060008152506117a4565b5050565b61106382611763565b6110a2576040517f08c379a0000000000000000000000000000000000000000000000000000000008152600401611099906129ab565b60405180910390fd5b806097600084815260200190815260200160002090805190602001906110c992919061203b565b505050565b6000806110da83610a00565b90508073ffffffffffffffffffffffffffffffffffffffff168473ffffffffffffffffffffffffffffffffffffffff16148061111c575061111b8185610d8e565b5b8061115a57508373ffffffffffffffffffffffffffffffffffffffff1661114284610703565b73ffffffffffffffffffffffffffffffffffffffff16145b91505092915050565b8273ffffffffffffffffffffffffffffffffffffffff1661118382610a00565b73ffffffffffffffffffffffffffffffffffffffff16146111d9576040517f08c379a00000000000000000000000000000000000000000000000000000000081526004016111d09061290b565b60405180910390fd5b600073ffffffffffffffffffffffffffffffffffffffff168273ffffffffffffffffffffffffffffffffffffffff161415611249576040517f08c379a00000000000000000000000000000000000000000000000000000000081526004016112409061294b565b60405180910390fd5b61125683838360016117ff565b8273ffffffffffffffffffffffffffffffffffffffff1661127682610a00565b73ffffffffffffffffffffffffffffffffffffffff16146112cc576040517f08c379a00000000000000000000000000000000000000000000000000000000081526004016112c39061290b565b60405180910390fd5b6069600082815260200190815260200160002060006101000a81549073ffffffffffffffffffffffffffffffffffffffff02191690556001606860008573ffffffffffffffffffffffffffffffffffffffff1673ffffffffffffffffffffffffffffffffffffffff168152602001908152602001600020600082825403925050819055506001606860008473ffffffffffffffffffffffffffffffffffffffff1673ffffffffffffffffffffffffffffffffffffffff16815260200190815260200160002060008282540192505081905550816067600083815260200190815260200160002060006101000a81548173ffffffffffffffffffffffffffffffffffffffff021916908373ffffffffffffffffffffffffffffffffffffffff160217905550808273ffffffffffffffffffffffffffffffffffffffff168473ffffffffffffffffffffffffffffffffffffffff167fddf252ad1be2c89b69c2b068fc378daa952ba7f163c4a11628f55a4df523b3ef60405160405180910390a46114588383836001611925565b505050565b60006067600083815260200190815260200160002060009054906101000a900473ffffffffffffffffffffffffffffffffffffffff169050919050565b8173ffffffffffffffffffffffffffffffffffffffff168373ffffffffffffffffffffffffffffffffffffffff161415611509576040517f08c379a00000000000000000000000000000000000000000000000000000000081526004016115009061296b565b60405180910390fd5b80606a60008573ffffffffffffffffffffffffffffffffffffffff1673ffffffffffffffffffffffffffffffffffffffff16815260200190815260200160002060008473ffffffffffffffffffffffffffffffffffffffff1673ffffffffffffffffffffffffffffffffffffffff16815260200190815260200160002060006101000a81548160ff0219169083151502179055508173ffffffffffffffffffffffffffffffffffffffff168373ffffffffffffffffffffffffffffffffffffffff167f17307eab39ab6107e8899845ad3d59bd9653f200f220920489ca2b5937696c31836040516115fa9190612873565b60405180910390a3505050565b611612848484611163565b61161e8484848461192b565b61165d576040517f08c379a0000000000000000000000000000000000000000000000000000000008152600401611654906128eb565b60405180910390fd5b50505050565b606060405180602001604052806000815250905090565b606061168582610f0c565b600061168f611663565b905060008151116116af57604051806020016040528060008152506116da565b806116b984611ac2565b6040516020016116ca9291906127e8565b6040516020818303038152906040525b915050919050565b600060019054906101000a900460ff16611731576040517f08c379a000000000000000000000000000000000000000000000000000000000815260040161172890612a8b565b60405180910390fd5b816065908051906020019061174792919061203b565b50806066908051906020019061175e92919061203b565b505050565b60008073ffffffffffffffffffffffffffffffffffffffff166117858361145d565b73ffffffffffffffffffffffffffffffffffffffff1614159050919050565b6117ae8383611be6565b6117bb600084848461192b565b6117fa576040517f08c379a00000000000000000000000000000000000000000000000000000000081526004016117f1906128eb565b60405180910390fd5b505050565b600181111561191f57600073ffffffffffffffffffffffffffffffffffffffff168473ffffffffffffffffffffffffffffffffffffffff16146118935780606860008673ffffffffffffffffffffffffffffffffffffffff1673ffffffffffffffffffffffffffffffffffffffff168152602001908152602001600020600082825461188b9190612bde565b925050819055505b600073ffffffffffffffffffffffffffffffffffffffff168373ffffffffffffffffffffffffffffffffffffffff161461191e5780606860008573ffffffffffffffffffffffffffffffffffffffff1673ffffffffffffffffffffffffffffffffffffffff16815260200190815260200160002060008282546119169190612b88565b925050819055505b5b50505050565b50505050565b600061194c8473ffffffffffffffffffffffffffffffffffffffff16610e8c565b15611ab5578373ffffffffffffffffffffffffffffffffffffffff1663150b7a02611975610f57565b8786866040518563ffffffff1660e01b81526004016119979493929190612827565b602060405180830381600087803b1580156119b157600080fd5b505af19250505080156119e257506040513d601f19601f820116820180604052508101906119df91906123c9565b60015b611a65573d8060008114611a12576040519150601f19603f3d011682016040523d82523d6000602084013e611a17565b606091505b50600081511415611a5d576040517f08c379a0000000000000000000000000000000000000000000000000000000008152600401611a54906128eb565b60405180910390fd5b805181602001fd5b63150b7a0260e01b7bffffffffffffffffffffffffffffffffffffffffffffffffffffffff1916817bffffffffffffffffffffffffffffffffffffffffffffffffffffffff191614915050611aba565b600190505b949350505050565b606060006001611ad184611e04565b01905060008167ffffffffffffffff811115611b16577f4e487b7100000000000000000000000000000000000000000000000000000000600052604160045260246000fd5b6040519080825280601f01601f191660200182016040528015611b485781602001600182028036833780820191505090505b509050600082602001820190505b600115611bdb578080600190039150507f3031323334353637383961626364656600000000000000000000000000000000600a86061a8153600a8581611bc5577f4e487b7100000000000000000000000000000000000000000000000000000000600052601260045260246000fd5b0494506000851415611bd657611bdb565b611b56565b819350505050919050565b600073ffffffffffffffffffffffffffffffffffffffff168273ffffffffffffffffffffffffffffffffffffffff161415611c56576040517f08c379a0000000000000000000000000000000000000000000000000000000008152600401611c4d906129eb565b60405180910390fd5b611c5f81611763565b15611c9f576040517f08c379a0000000000000000000000000000000000000000000000000000000008152600401611c969061292b565b60405180910390fd5b611cad6000838360016117ff565b611cb681611763565b15611cf6576040517f08c379a0000000000000000000000000000000000000000000000000000000008152600401611ced9061292b565b60405180910390fd5b6001606860008473ffffffffffffffffffffffffffffffffffffffff1673ffffffffffffffffffffffffffffffffffffffff16815260200190815260200160002060008282540192505081905550816067600083815260200190815260200160002060006101000a81548173ffffffffffffffffffffffffffffffffffffffff021916908373ffffffffffffffffffffffffffffffffffffffff160217905550808273ffffffffffffffffffffffffffffffffffffffff16600073ffffffffffffffffffffffffffffffffffffffff167fddf252ad1be2c89b69c2b068fc378daa952ba7f163c4a11628f55a4df523b3ef60405160405180910390a4611e00600083836001611925565b5050565b600080600090507a184f03e93ff9f4daa797ed6e38ed64bf6a1f0100000000000000008310611e88577a184f03e93ff9f4daa797ed6e38ed64bf6a1f0100000000000000008381611e7e577f4e487b7100000000000000000000000000000000000000000000000000000000600052601260045260246000fd5b0492506040810190505b6d04ee2d6d415b85acef81000000008310611eeb576d04ee2d6d415b85acef81000000008381611ee1577f4e487b7100000000000000000000000000000000000000000000000000000000600052601260045260246000fd5b0492506020810190505b662386f26fc100008310611f4057662386f26fc100008381611f36577f4e487b7100000000000000000000000000000000000000000000000000000000600052601260045260246000fd5b0492506010810190505b6305f5e1008310611f8f576305f5e1008381611f85577f4e487b7100000000000000000000000000000000000000000000000000000000600052601260045260246000fd5b0492506008810190505b6127108310611fda576127108381611fd0577f4e487b7100000000000000000000000000000000000000000000000000000000600052601260045260246000fd5b0492506004810190505b606483106120235760648381612019577f4e487b7100000000000000000000000000000000000000000000000000000000600052601260045260246000fd5b0492506002810190505b600a8310612032576001810190505b80915050919050565b82805461204790612ce7565b90600052602060002090601f01602090048101928261206957600085556120b0565b82601f1061208257805160ff19168380011785556120b0565b828001600101855582156120b0579182015b828111156120af578251825591602001919060010190612094565b5b5090506120bd91906120c1565b5090565b5b808211156120da5760008160009055506001016120c2565b5090565b60006120f16120ec84612b14565b612aef565b90508281526020810184848401111561210957600080fd5b612114848285612ca5565b509392505050565b60008135905061212b81613217565b92915050565b6000813590506121408161322e565b92915050565b60008135905061215581613245565b92915050565b60008151905061216a81613245565b92915050565b600082601f83011261218157600080fd5b81356121918482602086016120de565b91505092915050565b60008083601f8401126121ac57600080fd5b8235905067ffffffffffffffff8111156121c557600080fd5b6020830191508360018202830111156121dd57600080fd5b9250929050565b6000813590506121f38161325c565b92915050565b60006020828403121561220b57600080fd5b60006122198482850161211c565b91505092915050565b6000806040838503121561223557600080fd5b60006122438582860161211c565b92505060206122548582860161211c565b9150509250929050565b60008060006060848603121561227357600080fd5b60006122818682870161211c565b93505060206122928682870161211c565b92505060406122a3868287016121e4565b9150509250925092565b600080600080608085870312156122c357600080fd5b60006122d18782880161211c565b94505060206122e28782880161211c565b93505060406122f3878288016121e4565b925050606085013567ffffffffffffffff81111561231057600080fd5b61231c87828801612170565b91505092959194509250565b6000806040838503121561233b57600080fd5b60006123498582860161211c565b925050602061235a85828601612131565b9150509250929050565b6000806040838503121561237757600080fd5b60006123858582860161211c565b9250506020612396858286016121e4565b9150509250929050565b6000602082840312156123b257600080fd5b60006123c084828501612146565b91505092915050565b6000602082840312156123db57600080fd5b60006123e98482850161215b565b91505092915050565b60008060006040848603121561240757600080fd5b600084013567ffffffffffffffff81111561242157600080fd5b61242d8682870161219a565b935093505060206124408682870161211c565b9150509250925092565b60008060008060006060868803121561246257600080fd5b600086013567ffffffffffffffff81111561247c57600080fd5b6124888882890161219a565b9550955050602086013567ffffffffffffffff8111156124a757600080fd5b6124b38882890161219a565b935093505060406124c68882890161211c565b9150509295509295909350565b6000602082840312156124e557600080fd5b60006124f3848285016121e4565b91505092915050565b61250581612c12565b82525050565b61251481612c24565b82525050565b600061252582612b45565b61252f8185612b5b565b935061253f818560208601612cb4565b61254881612dd7565b840191505092915050565b61255c81612c93565b82525050565b600061256d82612b50565b6125778185612b6c565b9350612587818560208601612cb4565b61259081612dd7565b840191505092915050565b60006125a682612b50565b6125b08185612b7d565b93506125c0818560208601612cb4565b80840191505092915050565b60006125d9602d83612b6c565b91506125e482612de8565b604082019050919050565b60006125fc603283612b6c565b915061260782612e37565b604082019050919050565b600061261f602583612b6c565b915061262a82612e86565b604082019050919050565b6000612642601c83612b6c565b915061264d82612ed5565b602082019050919050565b6000612665602483612b6c565b915061267082612efe565b604082019050919050565b6000612688601983612b6c565b915061269382612f4d565b602082019050919050565b60006126ab602983612b6c565b91506126b682612f76565b604082019050919050565b60006126ce602e83612b6c565b91506126d982612fc5565b604082019050919050565b60006126f1602e83612b6c565b91506126fc82613014565b604082019050919050565b6000612714602083612b6c565b915061271f82613063565b602082019050919050565b6000612737604883612b6c565b91506127428261308c565b606082019050919050565b600061275a601883612b6c565b915061276582613101565b602082019050919050565b600061277d602183612b6c565b91506127888261312a565b604082019050919050565b60006127a0603d83612b6c565b91506127ab82613179565b604082019050919050565b60006127c3602b83612b6c565b91506127ce826131c8565b604082019050919050565b6127e281612c7c565b82525050565b60006127f4828561259b565b9150612800828461259b565b91508190509392505050565b600060208201905061282160008301846124fc565b92915050565b600060808201905061283c60008301876124fc565b61284960208301866124fc565b61285660408301856127d9565b8181036060830152612868818461251a565b905095945050505050565b6000602082019050612888600083018461250b565b92915050565b60006020820190506128a36000830184612553565b92915050565b600060208201905081810360008301526128c38184612562565b905092915050565b600060208201905081810360008301526128e4816125cc565b9050919050565b60006020820190508181036000830152612904816125ef565b9050919050565b6000602082019050818103600083015261292481612612565b9050919050565b6000602082019050818103600083015261294481612635565b9050919050565b6000602082019050818103600083015261296481612658565b9050919050565b600060208201905081810360008301526129848161267b565b9050919050565b600060208201905081810360008301526129a48161269e565b9050919050565b600060208201905081810360008301526129c4816126c1565b9050919050565b600060208201905081810360008301526129e4816126e4565b9050919050565b60006020820190508181036000830152612a0481612707565b9050919050565b60006020820190508181036000830152612a248161272a565b9050919050565b60006020820190508181036000830152612a448161274d565b9050919050565b60006020820190508181036000830152612a6481612770565b9050919050565b60006020820190508181036000830152612a8481612793565b9050919050565b60006020820190508181036000830152612aa4816127b6565b9050919050565b6000602082019050612ac060008301846127d9565b92915050565b6000604082019050612adb60008301856127d9565b612ae8602083018461250b565b9392505050565b6000612af9612b0a565b9050612b058282612d19565b919050565b6000604051905090565b600067ffffffffffffffff821115612b2f57612b2e612da8565b5b612b3882612dd7565b9050602081019050919050565b600081519050919050565b600081519050919050565b600082825260208201905092915050565b600082825260208201905092915050565b600081905092915050565b6000612b9382612c7c565b9150612b9e83612c7c565b9250827fffffffffffffffffffffffffffffffffffffffffffffffffffffffffffffffff03821115612bd357612bd2612d4a565b5b828201905092915050565b6000612be982612c7c565b9150612bf483612c7c565b925082821015612c0757612c06612d4a565b5b828203905092915050565b6000612c1d82612c5c565b9050919050565b60008115159050919050565b60007fffffffff0000000000000000000000000000000000000000000000000000000082169050919050565b600073ffffffffffffffffffffffffffffffffffffffff82169050919050565b6000819050919050565b600060ff82169050919050565b6000612c9e82612c86565b9050919050565b82818337600083830152505050565b60005b83811015612cd2578082015181840152602081019050612cb7565b83811115612ce1576000848401525b50505050565b60006002820490506001821680612cff57607f821691505b60208210811415612d1357612d12612d79565b5b50919050565b612d2282612dd7565b810181811067ffffffffffffffff82111715612d4157612d40612da8565b5b80604052505050565b7f4e487b7100000000000000000000000000000000000000000000000000000000600052601160045260246000fd5b7f4e487b7100000000000000000000000000000000000000000000000000000000600052602260045260246000fd5b7f4e487b7100000000000000000000000000000000000000000000000000000000600052604160045260246000fd5b6000601f19601f8301169050919050565b7f4552433732313a2063616c6c6572206973206e6f7420746f6b656e206f776e6560008201527f72206f7220617070726f76656400000000000000000000000000000000000000602082015250565b7f4552433732313a207472616e7366657220746f206e6f6e20455243373231526560008201527f63656976657220696d706c656d656e7465720000000000000000000000000000602082015250565b7f4552433732313a207472616e736665722066726f6d20696e636f72726563742060008201527f6f776e6572000000000000000000000000000000000000000000000000000000602082015250565b7f4552433732313a20746f6b656e20616c7265616479206d696e74656400000000600082015250565b7f4552433732313a207472616e7366657220746f20746865207a65726f2061646460008201527f7265737300000000000000000000000000000000000000000000000000000000602082015250565b7f4552433732313a20617070726f766520746f2063616c6c657200000000000000600082015250565b7f4552433732313a2061646472657373207a65726f206973206e6f74206120766160008201527f6c6964206f776e65720000000000000000000000000000000000000000000000602082015250565b7f45524337323155524953746f726167653a2055524920736574206f66206e6f6e60008201527f6578697374656e7420746f6b656e000000000000000000000000000000000000602082015250565b7f496e697469616c697a61626c653a20636f6e747261637420697320616c72656160008201527f647920696e697469616c697a6564000000000000000000000000000000000000602082015250565b7f4552433732313a206d696e7420746f20746865207a65726f2061646472657373600082015250565b7f596f7520617265206e6f7420746865206f776e6572206f66207468697320636f60008201527f6c6c656374696f6e206f7220636f6e7472616374206973206e6f7420696e697460208201527f69616c697a65642e000000000000000000000000000000000000000000000000604082015250565b7f4552433732313a20696e76616c696420746f6b656e2049440000000000000000600082015250565b7f4552433732313a20617070726f76616c20746f2063757272656e74206f776e6560008201527f7200000000000000000000000000000000000000000000000000000000000000602082015250565b7f4552433732313a20617070726f76652063616c6c6572206973206e6f7420746f60008201527f6b656e206f776e6572206f7220617070726f76656420666f7220616c6c000000602082015250565b7f496e697469616c697a61626c653a20636f6e7472616374206973206e6f74206960008201527f6e697469616c697a696e67000000000000000000000000000000000000000000602082015250565b61322081612c12565b811461322b57600080fd5b50565b61323781612c24565b811461324257600080fd5b50565b61324e81612c30565b811461325957600080fd5b50565b61326581612c7c565b811461327057600080fd5b5056fea2646970667358221220ac3abdf272c3d1ee38defe4b0b3ed89f61bebc66b60359d58ab8c9e9d2c1addc64736f6c63430008040033",
  "linkReferences": {},
  "deployedLinkReferences": {}
}