{
  "_format": "hh-sol-artifact-1",
  "contractName": "Marketplace",
  "sourceName": "contracts/Marketplace.sol",
  "abi": [
    {
      "inputs": [
        {
          "internalType": "address",
          "name": "NFTFactoryAddress",
          "type": "address"
        }
      ],
      "stateMutability": "nonpayable",
      "type": "constructor"
    },
    {
      "inputs": [
        {
          "internalType": "uint256",
          "name": "_itemId",
          "type": "uint256"
        }
      ],
      "name": "buyNFT",
      "outputs": [],
      "stateMutability": "payable",
      "type": "function"
    },
    {
      "inputs": [
        {
          "internalType": "uint256",
          "name": "_itemId",
          "type": "uint256"
        }
      ],
      "name": "cancelSell",
      "outputs": [],
      "stateMutability": "nonpayable",
      "type": "function"
    },
    {
      "inputs": [
        {
          "internalType": "string",
          "name": "_name",
          "type": "string"
        },
        {
          "internalType": "string",
          "name": "_ticker",
          "type": "string"
        }
      ],
      "name": "createCollection",
      "outputs": [],
      "stateMutability": "nonpayable",
      "type": "function"
    },
    {
      "inputs": [
        {
          "internalType": "uint256",
          "name": "",
          "type": "uint256"
        }
      ],
      "name": "items",
      "outputs": [
        {
          "internalType": "uint256",
          "name": "tokenId",
          "type": "uint256"
        },
        {
          "internalType": "contract ERC721",
          "name": "nft",
          "type": "address"
        },
        {
          "internalType": "uint256",
          "name": "price",
          "type": "uint256"
        },
        {
          "internalType": "bool",
          "name": "forSell",
          "type": "bool"
        }
      ],
      "stateMutability": "view",
      "type": "function"
    },
    {
      "inputs": [],
      "name": "lengthCollections",
      "outputs": [
        {
          "internalType": "uint256",
          "name": "",
          "type": "uint256"
        }
      ],
      "stateMutability": "view",
      "type": "function"
    },
    {
      "inputs": [],
      "name": "lengthItems",
      "outputs": [
        {
          "internalType": "uint256",
          "name": "",
          "type": "uint256"
        }
      ],
      "stateMutability": "view",
      "type": "function"
    },
    {
      "inputs": [
        {
          "internalType": "uint256",
          "name": "_collectionId",
          "type": "uint256"
        },
        {
          "internalType": "string",
          "name": "_tokenURI",
          "type": "string"
        }
      ],
      "name": "mintNFT",
      "outputs": [],
      "stateMutability": "nonpayable",
      "type": "function"
    },
    {
      "inputs": [],
      "name": "returnCollections",
      "outputs": [
        {
          "internalType": "contract ERC721[]",
          "name": "",
          "type": "address[]"
        }
      ],
      "stateMutability": "view",
      "type": "function"
    },
    {
      "inputs": [
        {
          "internalType": "uint256",
          "name": "_itemId",
          "type": "uint256"
        },
        {
          "internalType": "uint256",
          "name": "_price",
          "type": "uint256"
        }
      ],
      "name": "sellNFT",
      "outputs": [],
      "stateMutability": "nonpayable",
      "type": "function"
    },
    {
      "inputs": [],
      "name": "tokenCount",
      "outputs": [
        {
          "internalType": "uint256",
          "name": "_value",
          "type": "uint256"
        }
      ],
      "stateMutability": "view",
      "type": "function"
    }
  ],
  "bytecode": "0x60806040523480156200001157600080fd5b50604051620019053803806200190583398181016040528101906200003791906200009e565b600160008190555080600260006101000a81548173ffffffffffffffffffffffffffffffffffffffff021916908373ffffffffffffffffffffffffffffffffffffffff1602179055505062000118565b6000815190506200009881620000fe565b92915050565b600060208284031215620000b157600080fd5b6000620000c18482850162000087565b91505092915050565b6000620000d782620000de565b9050919050565b600073ffffffffffffffffffffffffffffffffffffffff82169050919050565b6200010981620000ca565b81146200011557600080fd5b50565b6117dd80620001286000396000f3fe6080604052600436106100915760003560e01c80636ab3bd79116100595780636ab3bd791461015857806391a48a1e14610183578063923c25a8146101ac5780639f181b5e146101d7578063bfb231d21461020257610091565b806307c9cd45146100965780631166c1dc146100bf578063176b9b75146100ea5780631a0c8fa01461011357806351ed82881461013c575b600080fd5b3480156100a257600080fd5b506100bd60048036038101906100b89190611048565b610242565b005b3480156100cb57600080fd5b506100d461040c565b6040516100e19190611433565b60405180910390f35b3480156100f657600080fd5b50610111600480360381019061010c9190610fdc565b61041d565b005b34801561011f57600080fd5b5061013a6004803603810190610135919061109a565b610588565b005b61015660048036038101906101519190611048565b61083f565b005b34801561016457600080fd5b5061016d610b7c565b60405161017a919061130a565b60405180910390f35b34801561018f57600080fd5b506101aa60048036038101906101a591906110ee565b610c0a565b005b3480156101b857600080fd5b506101c1610e34565b6040516101ce9190611433565b60405180910390f35b3480156101e357600080fd5b506101ec610e41565b6040516101f99190611433565b60405180910390f35b34801561020e57600080fd5b5061022960048036038101906102249190611048565b610e4d565b604051610239949392919061144e565b60405180910390f35b60026000541415610288576040517f08c379a000000000000000000000000000000000000000000000000000000000815260040161027f90611413565b60405180910390fd5b60026000819055503373ffffffffffffffffffffffffffffffffffffffff166006600083815260200190815260200160002060010160009054906101000a900473ffffffffffffffffffffffffffffffffffffffff1673ffffffffffffffffffffffffffffffffffffffff16636352211e60066000858152602001908152602001600020600001546040518263ffffffff1660e01b815260040161032c9190611433565b60206040518083038186803b15801561034457600080fd5b505afa158015610358573d6000803e3d6000fd5b505050506040513d601f19601f8201168201806040525081019061037c9190610f8a565b73ffffffffffffffffffffffffffffffffffffffff16146103d2576040517f08c379a00000000000000000000000000000000000000000000000000000000081526004016103c9906113d3565b60405180910390fd5b60006006600083815260200190815260200160002060030160006101000a81548160ff021916908315150217905550600160008190555050565b60006104186001610eaa565b905090565b60026000541415610463576040517f08c379a000000000000000000000000000000000000000000000000000000000815260040161045a90611413565b60405180910390fd5b60026000819055506005600260009054906101000a900473ffffffffffffffffffffffffffffffffffffffff1673ffffffffffffffffffffffffffffffffffffffff166314d76ffc84846040518363ffffffff1660e01b81526004016104ca92919061135c565b602060405180830381600087803b1580156104e457600080fd5b505af11580156104f8573d6000803e3d6000fd5b505050506040513d601f19601f8201168201806040525081019061051c9190610fb3565b9080600181540180825580915050600190039060005260206000200160009091909190916101000a81548173ffffffffffffffffffffffffffffffffffffffff021916908373ffffffffffffffffffffffffffffffffffffffff16021790555060016000819055505050565b600260005414156105ce576040517f08c379a00000000000000000000000000000000000000000000000000000000081526004016105c590611413565b60405180910390fd5b600260008190555060058281548110610610577f4e487b7100000000000000000000000000000000000000000000000000000000600052603260045260246000fd5b9060005260206000200160009054906101000a900473ffffffffffffffffffffffffffffffffffffffff16600360006101000a81548173ffffffffffffffffffffffffffffffffffffffff021916908373ffffffffffffffffffffffffffffffffffffffff160217905550600360009054906101000a900473ffffffffffffffffffffffffffffffffffffffff1673ffffffffffffffffffffffffffffffffffffffff16631c351a9d82336040518363ffffffff1660e01b81526004016106d892919061132c565b602060405180830381600087803b1580156106f257600080fd5b505af1158015610706573d6000803e3d6000fd5b505050506040513d601f19601f8201168201806040525081019061072a9190611071565b60048190555061073a6001610eb8565b60405180608001604052806004548152602001600360009054906101000a900473ffffffffffffffffffffffffffffffffffffffff1673ffffffffffffffffffffffffffffffffffffffff1681526020016000815260200160001515815250600660006107a76001610eaa565b81526020019081526020016000206000820151816000015560208201518160010160006101000a81548173ffffffffffffffffffffffffffffffffffffffff021916908373ffffffffffffffffffffffffffffffffffffffff1602179055506040820151816002015560608201518160030160006101000a81548160ff02191690831515021790555090505060016000819055505050565b60026000541415610885576040517f08c379a000000000000000000000000000000000000000000000000000000000815260040161087c90611413565b60405180910390fd5b6002600081905550600115156006600083815260200190815260200160002060030160009054906101000a900460ff161515146108f7576040517f08c379a00000000000000000000000000000000000000000000000000000000081526004016108ee906113b3565b60405180910390fd5b6006600082815260200190815260200160002060020154341015610950576040517f08c379a0000000000000000000000000000000000000000000000000000000008152600401610947906113f3565b60405180910390fd5b60006006600083815260200190815260200160002060010160009054906101000a900473ffffffffffffffffffffffffffffffffffffffff1673ffffffffffffffffffffffffffffffffffffffff16636352211e60066000858152602001908152602001600020600001546040518263ffffffff1660e01b81526004016109d79190611433565b60206040518083038186803b1580156109ef57600080fd5b505afa158015610a03573d6000803e3d6000fd5b505050506040513d601f19601f82011682018060405250810190610a279190610f8a565b90508073ffffffffffffffffffffffffffffffffffffffff166108fc60066000858152602001908152602001600020600201549081150290604051600060405180830381858888f19350505050158015610a85573d6000803e3d6000fd5b506006600083815260200190815260200160002060010160009054906101000a900473ffffffffffffffffffffffffffffffffffffffff1673ffffffffffffffffffffffffffffffffffffffff166323b872dd823360066000878152602001908152602001600020600001546040518463ffffffff1660e01b8152600401610b0f939291906112d3565b600060405180830381600087803b158015610b2957600080fd5b505af1158015610b3d573d6000803e3d6000fd5b5050505060006006600084815260200190815260200160002060030160006101000a81548160ff02191690831515021790555050600160008190555050565b60606005805480602002602001604051908101604052809291908181526020018280548015610c0057602002820191906000526020600020905b8160009054906101000a900473ffffffffffffffffffffffffffffffffffffffff1673ffffffffffffffffffffffffffffffffffffffff1681526020019060010190808311610bb6575b5050505050905090565b60026000541415610c50576040517f08c379a0000000000000000000000000000000000000000000000000000000008152600401610c4790611413565b60405180910390fd5b60026000819055506000811415610c9c576040517f08c379a0000000000000000000000000000000000000000000000000000000008152600401610c9390611393565b60405180910390fd5b3373ffffffffffffffffffffffffffffffffffffffff166006600084815260200190815260200160002060010160009054906101000a900473ffffffffffffffffffffffffffffffffffffffff1673ffffffffffffffffffffffffffffffffffffffff16636352211e60066000868152602001908152602001600020600001546040518263ffffffff1660e01b8152600401610d389190611433565b60206040518083038186803b158015610d5057600080fd5b505afa158015610d64573d6000803e3d6000fd5b505050506040513d601f19601f82011682018060405250810190610d889190610f8a565b73ffffffffffffffffffffffffffffffffffffffff1614610dde576040517f08c379a0000000000000000000000000000000000000000000000000000000008152600401610dd5906113d3565b60405180910390fd5b80600660008481526020019081526020016000206002018190555060016006600084815260200190815260200160002060030160006101000a81548160ff02191690831515021790555060016000819055505050565b6000600580549050905090565b60018060000154905081565b60066020528060005260406000206000915090508060000154908060010160009054906101000a900473ffffffffffffffffffffffffffffffffffffffff16908060020154908060030160009054906101000a900460ff16905084565b600081600001549050919050565b6001816000016000828254019250508190555050565b6000610ee1610edc846114b8565b611493565b905082815260208101848484011115610ef957600080fd5b610f048482856115bc565b509392505050565b600081519050610f1b81611762565b92915050565b600081519050610f3081611779565b92915050565b600082601f830112610f4757600080fd5b8135610f57848260208601610ece565b91505092915050565b600081359050610f6f81611790565b92915050565b600081519050610f8481611790565b92915050565b600060208284031215610f9c57600080fd5b6000610faa84828501610f0c565b91505092915050565b600060208284031215610fc557600080fd5b6000610fd384828501610f21565b91505092915050565b60008060408385031215610fef57600080fd5b600083013567ffffffffffffffff81111561100957600080fd5b61101585828601610f36565b925050602083013567ffffffffffffffff81111561103257600080fd5b61103e85828601610f36565b9150509250929050565b60006020828403121561105a57600080fd5b600061106884828501610f60565b91505092915050565b60006020828403121561108357600080fd5b600061109184828501610f75565b91505092915050565b600080604083850312156110ad57600080fd5b60006110bb85828601610f60565b925050602083013567ffffffffffffffff8111156110d857600080fd5b6110e485828601610f36565b9150509250929050565b6000806040838503121561110157600080fd5b600061110f85828601610f60565b925050602061112085828601610f60565b9150509250929050565b600061113683836111be565b60208301905092915050565b61114b8161153e565b82525050565b600061115c826114f9565b611166818561151c565b9350611171836114e9565b8060005b838110156111a2578151611189888261112a565b97506111948361150f565b925050600181019050611175565b5085935050505092915050565b6111b881611550565b82525050565b6111c781611598565b82525050565b6111d681611598565b82525050565b60006111e782611504565b6111f1818561152d565b93506112018185602086016115cb565b61120a8161165e565b840191505092915050565b600061122260128361152d565b915061122d8261166f565b602082019050919050565b6000611245600d8361152d565b915061125082611698565b602082019050919050565b600061126860158361152d565b9150611273826116c1565b602082019050919050565b600061128b60288361152d565b9150611296826116ea565b604082019050919050565b60006112ae601f8361152d565b91506112b982611739565b602082019050919050565b6112cd8161158e565b82525050565b60006060820190506112e86000830186611142565b6112f56020830185611142565b61130260408301846112c4565b949350505050565b600060208201905081810360008301526113248184611151565b905092915050565b6000604082019050818103600083015261134681856111dc565b90506113556020830184611142565b9392505050565b6000604082019050818103600083015261137681856111dc565b9050818103602083015261138a81846111dc565b90509392505050565b600060208201905081810360008301526113ac81611215565b9050919050565b600060208201905081810360008301526113cc81611238565b9050919050565b600060208201905081810360008301526113ec8161125b565b9050919050565b6000602082019050818103600083015261140c8161127e565b9050919050565b6000602082019050818103600083015261142c816112a1565b9050919050565b600060208201905061144860008301846112c4565b92915050565b600060808201905061146360008301876112c4565b61147060208301866111cd565b61147d60408301856112c4565b61148a60608301846111af565b95945050505050565b600061149d6114ae565b90506114a982826115fe565b919050565b6000604051905090565b600067ffffffffffffffff8211156114d3576114d261162f565b5b6114dc8261165e565b9050602081019050919050565b6000819050602082019050919050565b600081519050919050565b600081519050919050565b6000602082019050919050565b600082825260208201905092915050565b600082825260208201905092915050565b60006115498261156e565b9050919050565b60008115159050919050565b60006115678261153e565b9050919050565b600073ffffffffffffffffffffffffffffffffffffffff82169050919050565b6000819050919050565b60006115a3826115aa565b9050919050565b60006115b58261156e565b9050919050565b82818337600083830152505050565b60005b838110156115e95780820151818401526020810190506115ce565b838111156115f8576000848401525b50505050565b6116078261165e565b810181811067ffffffffffffffff821117156116265761162561162f565b5b80604052505050565b7f4e487b7100000000000000000000000000000000000000000000000000000000600052604160045260246000fd5b6000601f19601f8301169050919050565b7f50726963652063616e6e6f7420626520302e0000000000000000000000000000600082015250565b7f4e6f7420666f722073656c6c2e00000000000000000000000000000000000000600082015250565b7f54686973206973206e6f7420796f7572204e46542e0000000000000000000000600082015250565b7f5375626d697474656420707269636520646f65736e2774206d61746368206e6660008201527f742070726963652e000000000000000000000000000000000000000000000000602082015250565b7f5265656e7472616e637947756172643a207265656e7472616e742063616c6c00600082015250565b61176b8161153e565b811461177657600080fd5b50565b6117828161155c565b811461178d57600080fd5b50565b6117998161158e565b81146117a457600080fd5b5056fea26469706673582212205a84545e854fb5e4d2e46cc9dcedbca24a388639feea05b40f76f1d23daf8d5d64736f6c63430008040033",
  "linkReferences": {},
  "deployedLinkReferences": {}
}