{
  "_format": "hh-sol-artifact-1",
  "contractName": "Marketplace",
  "sourceName": "contracts/Marketplace.sol",
  "abi": [
    {
      "inputs": [],
      "stateMutability": "nonpayable",
      "type": "constructor"
    },
    {
      "anonymous": false,
      "inputs": [
        {
          "indexed": false,
          "internalType": "address",
          "name": "collectionAddress",
          "type": "address"
        },
        {
          "indexed": false,
          "internalType": "address",
          "name": "owner",
          "type": "address"
        }
      ],
      "name": "newCollection",
      "type": "event"
    },
    {
      "anonymous": false,
      "inputs": [
        {
          "indexed": false,
          "internalType": "string",
          "name": "action",
          "type": "string"
        },
        {
          "indexed": false,
          "internalType": "uint256",
          "name": "id",
          "type": "uint256"
        },
        {
          "indexed": false,
          "internalType": "address",
          "name": "issuer",
          "type": "address"
        }
      ],
      "name": "nft",
      "type": "event"
    },
    {
      "inputs": [],
      "name": "NFTFactoryContract",
      "outputs": [
        {
          "internalType": "contract NFTFactory",
          "name": "",
          "type": "address"
        }
      ],
      "stateMutability": "view",
      "type": "function"
    },
    {
      "inputs": [
        {
          "internalType": "uint256",
          "name": "_itemId",
          "type": "uint256"
        }
      ],
      "name": "acceptBid",
      "outputs": [],
      "stateMutability": "payable",
      "type": "function"
    },
    {
      "inputs": [
        {
          "internalType": "uint256",
          "name": "_itemId",
          "type": "uint256"
        }
      ],
      "name": "bidOnNFT",
      "outputs": [],
      "stateMutability": "payable",
      "type": "function"
    },
    {
      "inputs": [
        {
          "internalType": "uint256",
          "name": "_itemId",
          "type": "uint256"
        }
      ],
      "name": "buyNFT",
      "outputs": [],
      "stateMutability": "payable",
      "type": "function"
    },
    {
      "inputs": [
        {
          "internalType": "uint256",
          "name": "_itemId",
          "type": "uint256"
        }
      ],
      "name": "cancelSell",
      "outputs": [],
      "stateMutability": "nonpayable",
      "type": "function"
    },
    {
      "inputs": [
        {
          "internalType": "uint256",
          "name": "",
          "type": "uint256"
        }
      ],
      "name": "collections",
      "outputs": [
        {
          "internalType": "contract ERC721Upgradeable",
          "name": "Contract",
          "type": "address"
        },
        {
          "internalType": "address",
          "name": "Owner",
          "type": "address"
        },
        {
          "internalType": "string",
          "name": "imageLink",
          "type": "string"
        },
        {
          "internalType": "string",
          "name": "info",
          "type": "string"
        }
      ],
      "stateMutability": "view",
      "type": "function"
    },
    {
      "inputs": [
        {
          "internalType": "string",
          "name": "_name",
          "type": "string"
        },
        {
          "internalType": "string",
          "name": "_ticker",
          "type": "string"
        },
        {
          "internalType": "string",
          "name": "_imageLink",
          "type": "string"
        },
        {
          "internalType": "string",
          "name": "_info",
          "type": "string"
        }
      ],
      "name": "createCollection",
      "outputs": [],
      "stateMutability": "nonpayable",
      "type": "function"
    },
    {
      "inputs": [
        {
          "internalType": "uint256",
          "name": "_itemId",
          "type": "uint256"
        }
      ],
      "name": "getApproved",
      "outputs": [
        {
          "internalType": "address",
          "name": "",
          "type": "address"
        }
      ],
      "stateMutability": "view",
      "type": "function"
    },
    {
      "inputs": [],
      "name": "getBalance",
      "outputs": [
        {
          "internalType": "uint256",
          "name": "",
          "type": "uint256"
        }
      ],
      "stateMutability": "view",
      "type": "function"
    },
    {
      "inputs": [
        {
          "internalType": "uint256",
          "name": "",
          "type": "uint256"
        }
      ],
      "name": "items",
      "outputs": [
        {
          "internalType": "uint256",
          "name": "tokenId",
          "type": "uint256"
        },
        {
          "internalType": "contract ERC721Upgradeable",
          "name": "nft",
          "type": "address"
        },
        {
          "internalType": "uint256",
          "name": "price",
          "type": "uint256"
        },
        {
          "internalType": "uint256",
          "name": "bidPrice",
          "type": "uint256"
        },
        {
          "internalType": "address",
          "name": "bidAddress",
          "type": "address"
        },
        {
          "internalType": "bool",
          "name": "forSell",
          "type": "bool"
        }
      ],
      "stateMutability": "view",
      "type": "function"
    },
    {
      "inputs": [
        {
          "internalType": "uint256",
          "name": "_collectionId",
          "type": "uint256"
        },
        {
          "internalType": "string",
          "name": "_tokenURI",
          "type": "string"
        }
      ],
      "name": "mintNFT",
      "outputs": [],
      "stateMutability": "nonpayable",
      "type": "function"
    },
    {
      "inputs": [],
      "name": "returnCollections",
      "outputs": [
        {
          "components": [
            {
              "internalType": "contract ERC721Upgradeable",
              "name": "Contract",
              "type": "address"
            },
            {
              "internalType": "address",
              "name": "Owner",
              "type": "address"
            },
            {
              "internalType": "string",
              "name": "imageLink",
              "type": "string"
            },
            {
              "internalType": "string",
              "name": "info",
              "type": "string"
            }
          ],
          "internalType": "struct Marketplace.collection[]",
          "name": "",
          "type": "tuple[]"
        }
      ],
      "stateMutability": "view",
      "type": "function"
    },
    {
      "inputs": [],
      "name": "returnCollectionsLength",
      "outputs": [
        {
          "internalType": "uint256",
          "name": "",
          "type": "uint256"
        }
      ],
      "stateMutability": "view",
      "type": "function"
    },
    {
      "inputs": [],
      "name": "returnItemsLength",
      "outputs": [
        {
          "internalType": "uint256",
          "name": "",
          "type": "uint256"
        }
      ],
      "stateMutability": "view",
      "type": "function"
    },
    {
      "inputs": [
        {
          "internalType": "uint256",
          "name": "_itemId",
          "type": "uint256"
        },
        {
          "internalType": "uint256",
          "name": "_price",
          "type": "uint256"
        }
      ],
      "name": "sellNFT",
      "outputs": [],
      "stateMutability": "nonpayable",
      "type": "function"
    },
    {
      "inputs": [],
      "name": "tokenCount",
      "outputs": [
        {
          "internalType": "uint256",
          "name": "_value",
          "type": "uint256"
        }
      ],
      "stateMutability": "view",
      "type": "function"
    }
  ],
  "bytecode": "0x60806040523480156200001157600080fd5b50600160008190555060405162000028906200008c565b604051809103906000f08015801562000045573d6000803e3d6000fd5b50600260006101000a81548173ffffffffffffffffffffffffffffffffffffffff021916908373ffffffffffffffffffffffffffffffffffffffff1602179055506200009a565b6137f180620031ce83390190565b61312480620000aa6000396000f3fe6080604052600436106100f35760003560e01c806351ed82881161008a5780639f181b5e116100595780639f181b5e146102db578063bfb231d214610306578063fa15927814610348578063fdbda0ec14610371576100f3565b806351ed8288146102405780636ab3bd791461025c578063783488db1461028757806391a48a1e146102b2576100f3565b80631a0c8fa0116100c65780631a0c8fa0146101b457806327bf3410146101dd5780632a0b4f02146101f95780632b1fd58a14610224576100f3565b806307c9cd45146100f8578063081812fc1461012157806312065fe01461015e57806315ab8a7114610189575b600080fd5b34801561010457600080fd5b5061011f600480360381019061011a919061211f565b6103b1565b005b34801561012d57600080fd5b506101486004803603810190610143919061211f565b61055e565b6040516101559190612637565b60405180910390f35b34801561016a57600080fd5b5061017361063c565b6040516101809190612a5f565b60405180910390f35b34801561019557600080fd5b5061019e610644565b6040516101ab9190612a5f565b60405180910390f35b3480156101c057600080fd5b506101db60048036038101906101d69190612171565b610655565b005b6101f760048036038101906101f2919061211f565b610a4c565b005b34801561020557600080fd5b5061020e610c1c565b60405161021b9190612727565b60405180910390f35b61023e6004803603810190610239919061211f565b610c42565b005b61025a6004803603810190610255919061211f565b6110a5565b005b34801561026857600080fd5b5061027161149d565b60405161027e91906126b2565b60405180910390f35b34801561029357600080fd5b5061029c6116cc565b6040516102a99190612a5f565b60405180910390f35b3480156102be57600080fd5b506102d960048036038101906102d491906121c5565b6116d9565b005b3480156102e757600080fd5b506102f06118e6565b6040516102fd9190612a5f565b60405180910390f35b34801561031257600080fd5b5061032d6004803603810190610328919061211f565b6118f2565b60405161033f96959493929190612a7a565b60405180910390f35b34801561035457600080fd5b5061036f600480360381019061036a9190612057565b61197b565b005b34801561037d57600080fd5b506103986004803603810190610393919061211f565b611bf7565b6040516103a894939291906126d4565b60405180910390f35b3373ffffffffffffffffffffffffffffffffffffffff166006600083815260200190815260200160002060010160009054906101000a900473ffffffffffffffffffffffffffffffffffffffff1673ffffffffffffffffffffffffffffffffffffffff16636352211e60066000858152602001908152602001600020600001546040518263ffffffff1660e01b815260040161044d9190612a5f565b60206040518083038186803b15801561046557600080fd5b505afa158015610479573d6000803e3d6000fd5b505050506040513d601f19601f8201168201806040525081019061049d9190612005565b73ffffffffffffffffffffffffffffffffffffffff16146104f3576040517f08c379a00000000000000000000000000000000000000000000000000000000081526004016104ea906129a3565b60405180910390fd5b60006006600083815260200190815260200160002060040160146101000a81548160ff0219169083151502179055507ff2d297eac80d2d16471c4d7e861e173d751386a6667de8ed5c0eea80959dda1081336040516105539291906129e3565b60405180910390a150565b60006006600083815260200190815260200160002060010160009054906101000a900473ffffffffffffffffffffffffffffffffffffffff1673ffffffffffffffffffffffffffffffffffffffff1663081812fc60066000858152602001908152602001600020600001546040518263ffffffff1660e01b81526004016105e59190612a5f565b60206040518083038186803b1580156105fd57600080fd5b505afa158015610611573d6000803e3d6000fd5b505050506040513d601f19601f820116820180604052508101906106359190612005565b9050919050565b600047905090565b60006106506001611d87565b905090565b3373ffffffffffffffffffffffffffffffffffffffff16600583815481106106a6577f4e487b7100000000000000000000000000000000000000000000000000000000600052603260045260246000fd5b906000526020600020906004020160010160009054906101000a900473ffffffffffffffffffffffffffffffffffffffff1673ffffffffffffffffffffffffffffffffffffffff161461072e576040517f08c379a0000000000000000000000000000000000000000000000000000000008152600401610725906128ab565b60405180910390fd5b60058281548110610768577f4e487b7100000000000000000000000000000000000000000000000000000000600052603260045260246000fd5b906000526020600020906004020160000160009054906101000a900473ffffffffffffffffffffffffffffffffffffffff16600360006101000a81548173ffffffffffffffffffffffffffffffffffffffff021916908373ffffffffffffffffffffffffffffffffffffffff160217905550600360009054906101000a900473ffffffffffffffffffffffffffffffffffffffff1673ffffffffffffffffffffffffffffffffffffffff16631c351a9d82336040518363ffffffff1660e01b8152600401610837929190612742565b602060405180830381600087803b15801561085157600080fd5b505af1158015610865573d6000803e3d6000fd5b505050506040513d601f19601f820116820180604052508101906108899190612148565b6004819055506108996001611d95565b6040518060c001604052806004548152602001600360009054906101000a900473ffffffffffffffffffffffffffffffffffffffff1673ffffffffffffffffffffffffffffffffffffffff16815260200160008152602001600081526020013073ffffffffffffffffffffffffffffffffffffffff16815260200160001515815250600660006109296001611d87565b81526020019081526020016000206000820151816000015560208201518160010160006101000a81548173ffffffffffffffffffffffffffffffffffffffff021916908373ffffffffffffffffffffffffffffffffffffffff160217905550604082015181600201556060820151816003015560808201518160040160006101000a81548173ffffffffffffffffffffffffffffffffffffffff021916908373ffffffffffffffffffffffffffffffffffffffff16021790555060a08201518160040160146101000a81548160ff0219169083151502179055509050507ff2d297eac80d2d16471c4d7e861e173d751386a6667de8ed5c0eea80959dda10610a316001611d87565b33604051610a40929190612813565b60405180910390a15050565b60026000541415610a92576040517f08c379a0000000000000000000000000000000000000000000000000000000008152600401610a8990612a3f565b60405180910390fd5b600260008190555060066000828152602001908152602001600020600301543411610af2576040517f08c379a0000000000000000000000000000000000000000000000000000000008152600401610ae9906129c3565b60405180910390fd5b600060066000838152602001908152602001600020600301541115610b6857610b676006600083815260200190815260200160002060040160009054906101000a900473ffffffffffffffffffffffffffffffffffffffff166006600084815260200190815260200160002060030154611dab565b5b346006600083815260200190815260200160002060030181905550336006600083815260200190815260200160002060040160006101000a81548173ffffffffffffffffffffffffffffffffffffffff021916908373ffffffffffffffffffffffffffffffffffffffff1602179055507ff2d297eac80d2d16471c4d7e861e173d751386a6667de8ed5c0eea80959dda108133604051610c09929190612927565b60405180910390a1600160008190555050565b600260009054906101000a900473ffffffffffffffffffffffffffffffffffffffff1681565b60026000541415610c88576040517f08c379a0000000000000000000000000000000000000000000000000000000008152600401610c7f90612a3f565b60405180910390fd5b60026000819055506000600660008381526020019081526020016000206003015411610ce9576040517f08c379a0000000000000000000000000000000000000000000000000000000008152600401610ce0906127b7565b60405180910390fd5b60006006600083815260200190815260200160002060010160009054906101000a900473ffffffffffffffffffffffffffffffffffffffff1673ffffffffffffffffffffffffffffffffffffffff16636352211e60066000858152602001908152602001600020600001546040518263ffffffff1660e01b8152600401610d709190612a5f565b60206040518083038186803b158015610d8857600080fd5b505afa158015610d9c573d6000803e3d6000fd5b505050506040513d601f19601f82011682018060405250810190610dc09190612005565b90503373ffffffffffffffffffffffffffffffffffffffff166006600084815260200190815260200160002060010160009054906101000a900473ffffffffffffffffffffffffffffffffffffffff1673ffffffffffffffffffffffffffffffffffffffff16636352211e60066000868152602001908152602001600020600001546040518263ffffffff1660e01b8152600401610e5e9190612a5f565b60206040518083038186803b158015610e7657600080fd5b505afa158015610e8a573d6000803e3d6000fd5b505050506040513d601f19601f82011682018060405250810190610eae9190612005565b73ffffffffffffffffffffffffffffffffffffffff1614610f04576040517f08c379a0000000000000000000000000000000000000000000000000000000008152600401610efb90612963565b60405180910390fd5b610f24816006600085815260200190815260200160002060030154611dab565b6006600083815260200190815260200160002060010160009054906101000a900473ffffffffffffffffffffffffffffffffffffffff1673ffffffffffffffffffffffffffffffffffffffff166323b872dd826006600086815260200190815260200160002060040160009054906101000a900473ffffffffffffffffffffffffffffffffffffffff1660066000878152602001908152602001600020600001546040518463ffffffff1660e01b8152600401610fe39392919061267b565b600060405180830381600087803b158015610ffd57600080fd5b505af1158015611011573d6000803e3d6000fd5b5050505060006006600084815260200190815260200160002060040160146101000a81548160ff021916908315150217905550600060066000848152602001908152602001600020600301819055507ff2d297eac80d2d16471c4d7e861e173d751386a6667de8ed5c0eea80959dda1082336040516110919291906127d7565b60405180910390a150600160008190555050565b600260005414156110eb576040517f08c379a00000000000000000000000000000000000000000000000000000000081526004016110e290612a3f565b60405180910390fd5b6002600081905550600115156006600083815260200190815260200160002060040160149054906101000a900460ff1615151461115d576040517f08c379a000000000000000000000000000000000000000000000000000000000815260040161115490612983565b60405180910390fd5b60066000828152602001908152602001600020600201543410156111b6576040517f08c379a00000000000000000000000000000000000000000000000000000000081526004016111ad90612a1f565b60405180910390fd5b60006006600083815260200190815260200160002060010160009054906101000a900473ffffffffffffffffffffffffffffffffffffffff1673ffffffffffffffffffffffffffffffffffffffff16636352211e60066000858152602001908152602001600020600001546040518263ffffffff1660e01b815260040161123d9190612a5f565b60206040518083038186803b15801561125557600080fd5b505afa158015611269573d6000803e3d6000fd5b505050506040513d601f19601f8201168201806040525081019061128d9190612005565b905060006006600084815260200190815260200160002060040160146101000a81548160ff021916908315150217905550600060066000848152602001908152602001600020600301819055506006600083815260200190815260200160002060010160009054906101000a900473ffffffffffffffffffffffffffffffffffffffff1673ffffffffffffffffffffffffffffffffffffffff166342842e0e823360066000878152602001908152602001600020600001546040518463ffffffff1660e01b81526004016113639392919061267b565b600060405180830381600087803b15801561137d57600080fd5b505af1158015611391573d6000803e3d6000fd5b5050505060008173ffffffffffffffffffffffffffffffffffffffff1660066000858152602001908152602001600020600201546040516113d190612622565b60006040518083038185875af1925050503d806000811461140e576040519150601f19603f3d011682016040523d82523d6000602084013e611413565b606091505b5050905080611457576040517f08c379a000000000000000000000000000000000000000000000000000000000815260040161144e9061288b565b60405180910390fd5b7ff2d297eac80d2d16471c4d7e861e173d751386a6667de8ed5c0eea80959dda1083336040516114889291906128eb565b60405180910390a15050600160008190555050565b60606005805480602002602001604051908101604052809291908181526020016000905b828210156116c357838290600052602060002090600402016040518060800160405290816000820160009054906101000a900473ffffffffffffffffffffffffffffffffffffffff1673ffffffffffffffffffffffffffffffffffffffff1673ffffffffffffffffffffffffffffffffffffffff1681526020016001820160009054906101000a900473ffffffffffffffffffffffffffffffffffffffff1673ffffffffffffffffffffffffffffffffffffffff1673ffffffffffffffffffffffffffffffffffffffff1681526020016002820180546115a090612c86565b80601f01602080910402602001604051908101604052809291908181526020018280546115cc90612c86565b80156116195780601f106115ee57610100808354040283529160200191611619565b820191906000526020600020905b8154815290600101906020018083116115fc57829003601f168201915b5050505050815260200160038201805461163290612c86565b80601f016020809104026020016040519081016040528092919081815260200182805461165e90612c86565b80156116ab5780601f10611680576101008083540402835291602001916116ab565b820191906000526020600020905b81548152906001019060200180831161168e57829003601f168201915b505050505081525050815260200190600101906114c1565b50505050905090565b6000600580549050905090565b600081141561171d576040517f08c379a0000000000000000000000000000000000000000000000000000000008152600401611714906128cb565b60405180910390fd5b3373ffffffffffffffffffffffffffffffffffffffff166006600084815260200190815260200160002060010160009054906101000a900473ffffffffffffffffffffffffffffffffffffffff1673ffffffffffffffffffffffffffffffffffffffff16636352211e60066000868152602001908152602001600020600001546040518263ffffffff1660e01b81526004016117b99190612a5f565b60206040518083038186803b1580156117d157600080fd5b505afa1580156117e5573d6000803e3d6000fd5b505050506040513d601f19601f820116820180604052508101906118099190612005565b73ffffffffffffffffffffffffffffffffffffffff161461185f576040517f08c379a0000000000000000000000000000000000000000000000000000000008152600401611856906129a3565b60405180910390fd5b80600660008481526020019081526020016000206002018190555060016006600084815260200190815260200160002060040160146101000a81548160ff0219169083151502179055507ff2d297eac80d2d16471c4d7e861e173d751386a6667de8ed5c0eea80959dda1082336040516118da92919061284f565b60405180910390a15050565b60018060000154905081565b60066020528060005260406000206000915090508060000154908060010160009054906101000a900473ffffffffffffffffffffffffffffffffffffffff16908060020154908060030154908060040160009054906101000a900473ffffffffffffffffffffffffffffffffffffffff16908060040160149054906101000a900460ff16905086565b6000600260009054906101000a900473ffffffffffffffffffffffffffffffffffffffff1673ffffffffffffffffffffffffffffffffffffffff16630fba44538787336040518463ffffffff1660e01b81526004016119dc93929190612772565b602060405180830381600087803b1580156119f657600080fd5b505af1158015611a0a573d6000803e3d6000fd5b505050506040513d601f19601f82011682018060405250810190611a2e919061202e565b9050600560405180608001604052808373ffffffffffffffffffffffffffffffffffffffff1681526020013373ffffffffffffffffffffffffffffffffffffffff16815260200186868080601f016020809104026020016040519081016040528093929190818152602001838380828437600081840152601f19601f82011690508083019250505050505050815260200184815250908060018154018082558091505060019003906000526020600020906004020160009091909190915060008201518160000160006101000a81548173ffffffffffffffffffffffffffffffffffffffff021916908373ffffffffffffffffffffffffffffffffffffffff16021790555060208201518160010160006101000a81548173ffffffffffffffffffffffffffffffffffffffff021916908373ffffffffffffffffffffffffffffffffffffffff1602179055506040820151816002019080519060200190611b96929190611e5c565b506060820151816003019080519060200190611bb3929190611e5c565b5050507f7a2eb8f39b8a781cd83c1b46630618f9cac4768ce34adb76d0ef41f659170a048133604051611be7929190612652565b60405180910390a1505050505050565b60058181548110611c0757600080fd5b90600052602060002090600402016000915090508060000160009054906101000a900473ffffffffffffffffffffffffffffffffffffffff16908060010160009054906101000a900473ffffffffffffffffffffffffffffffffffffffff1690806002018054611c7690612c86565b80601f0160208091040260200160405190810160405280929190818152602001828054611ca290612c86565b8015611cef5780601f10611cc457610100808354040283529160200191611cef565b820191906000526020600020905b815481529060010190602001808311611cd257829003601f168201915b505050505090806003018054611d0490612c86565b80601f0160208091040260200160405190810160405280929190818152602001828054611d3090612c86565b8015611d7d5780601f10611d5257610100808354040283529160200191611d7d565b820191906000526020600020905b815481529060010190602001808311611d6057829003601f168201915b5050505050905084565b600081600001549050919050565b6001816000016000828254019250508190555050565b60008273ffffffffffffffffffffffffffffffffffffffff1682604051611dd190612622565b60006040518083038185875af1925050503d8060008114611e0e576040519150601f19603f3d011682016040523d82523d6000602084013e611e13565b606091505b5050905080611e57576040517f08c379a0000000000000000000000000000000000000000000000000000000008152600401611e4e9061288b565b60405180910390fd5b505050565b828054611e6890612c86565b90600052602060002090601f016020900481019282611e8a5760008555611ed1565b82601f10611ea357805160ff1916838001178555611ed1565b82800160010185558215611ed1579182015b82811115611ed0578251825591602001919060010190611eb5565b5b509050611ede9190611ee2565b5090565b5b80821115611efb576000816000905550600101611ee3565b5090565b6000611f12611f0d84612b00565b612adb565b905082815260208101848484011115611f2a57600080fd5b611f35848285612c44565b509392505050565b600081519050611f4c816130a9565b92915050565b600081519050611f61816130c0565b92915050565b60008083601f840112611f7957600080fd5b8235905067ffffffffffffffff811115611f9257600080fd5b602083019150836001820283011115611faa57600080fd5b9250929050565b600082601f830112611fc257600080fd5b8135611fd2848260208601611eff565b91505092915050565b600081359050611fea816130d7565b92915050565b600081519050611fff816130d7565b92915050565b60006020828403121561201757600080fd5b600061202584828501611f3d565b91505092915050565b60006020828403121561204057600080fd5b600061204e84828501611f52565b91505092915050565b60008060008060006080868803121561206f57600080fd5b600086013567ffffffffffffffff81111561208957600080fd5b61209588828901611fb1565b955050602086013567ffffffffffffffff8111156120b257600080fd5b6120be88828901611fb1565b945050604086013567ffffffffffffffff8111156120db57600080fd5b6120e788828901611f67565b9350935050606086013567ffffffffffffffff81111561210657600080fd5b61211288828901611fb1565b9150509295509295909350565b60006020828403121561213157600080fd5b600061213f84828501611fdb565b91505092915050565b60006020828403121561215a57600080fd5b600061216884828501611ff0565b91505092915050565b6000806040838503121561218457600080fd5b600061219285828601611fdb565b925050602083013567ffffffffffffffff8111156121af57600080fd5b6121bb85828601611fb1565b9150509250929050565b600080604083850312156121d857600080fd5b60006121e685828601611fdb565b92505060206121f785828601611fdb565b9150509250929050565b600061220d83836125a9565b905092915050565b61221e81612ba2565b82525050565b61222d81612ba2565b82525050565b600061223e82612b41565b6122488185612b64565b93508360208202850161225a85612b31565b8060005b8581101561229657848403895281516122778582612201565b945061228283612b57565b925060208a0199505060018101905061225e565b50829750879550505050505092915050565b6122b181612bb4565b82525050565b6122c081612bfc565b82525050565b6122cf81612bfc565b82525050565b6122de81612c20565b82525050565b60006122ef82612b4c565b6122f98185612b80565b9350612309818560208601612c53565b61231281612d47565b840191505092915050565b600061232882612b4c565b6123328185612b91565b9350612342818560208601612c53565b61234b81612d47565b840191505092915050565b6000612363602383612b91565b915061236e82612d58565b604082019050919050565b6000612386600983612b91565b915061239182612da7565b602082019050919050565b60006123a9600483612b91565b91506123b482612dd0565b602082019050919050565b60006123cc600483612b91565b91506123d782612df9565b602082019050919050565b60006123ef601983612b91565b91506123fa82612e22565b602082019050919050565b6000612412602983612b91565b915061241d82612e4b565b604082019050919050565b6000612435601283612b91565b915061244082612e9a565b602082019050919050565b6000612458600383612b91565b915061246382612ec3565b602082019050919050565b600061247b600383612b91565b915061248682612eec565b602082019050919050565b600061249e602283612b91565b91506124a982612f15565b604082019050919050565b60006124c1601183612b91565b91506124cc82612f64565b602082019050919050565b60006124e4600083612b75565b91506124ef82612f8d565b600082019050919050565b6000612507601583612b91565b915061251282612f90565b602082019050919050565b600061252a602d83612b91565b915061253582612fb9565b604082019050919050565b600061254d600a83612b91565b915061255882613008565b602082019050919050565b6000612570602883612b91565b915061257b82613031565b604082019050919050565b6000612593601f83612b91565b915061259e82613080565b602082019050919050565b60006080830160008301516125c160008601826122b7565b5060208301516125d46020860182612215565b50604083015184820360408601526125ec82826122e4565b9150506060830151848203606086015261260682826122e4565b9150508091505092915050565b61261c81612bf2565b82525050565b600061262d826124d7565b9150819050919050565b600060208201905061264c6000830184612224565b92915050565b60006040820190506126676000830185612224565b6126746020830184612224565b9392505050565b60006060820190506126906000830186612224565b61269d6020830185612224565b6126aa6040830184612613565b949350505050565b600060208201905081810360008301526126cc8184612233565b905092915050565b60006080820190506126e960008301876122c6565b6126f66020830186612224565b8181036040830152612708818561231d565b9050818103606083015261271c818461231d565b905095945050505050565b600060208201905061273c60008301846122d5565b92915050565b6000604082019050818103600083015261275c818561231d565b905061276b6020830184612224565b9392505050565b6000606082019050818103600083015261278c818661231d565b905081810360208301526127a0818561231d565b90506127af6040830184612224565b949350505050565b600060208201905081810360008301526127d081612356565b9050919050565b600060608201905081810360008301526127f081612379565b90506127ff6020830185612613565b61280c6040830184612224565b9392505050565b6000606082019050818103600083015261282c8161239c565b905061283b6020830185612613565b6128486040830184612224565b9392505050565b60006060820190508181036000830152612868816123bf565b90506128776020830185612613565b6128846040830184612224565b9392505050565b600060208201905081810360008301526128a4816123e2565b9050919050565b600060208201905081810360008301526128c481612405565b9050919050565b600060208201905081810360008301526128e481612428565b9050919050565b600060608201905081810360008301526129048161244b565b90506129136020830185612613565b6129206040830184612224565b9392505050565b600060608201905081810360008301526129408161246e565b905061294f6020830185612613565b61295c6040830184612224565b9392505050565b6000602082019050818103600083015261297c81612491565b9050919050565b6000602082019050818103600083015261299c816124b4565b9050919050565b600060208201905081810360008301526129bc816124fa565b9050919050565b600060208201905081810360008301526129dc8161251d565b9050919050565b600060608201905081810360008301526129fc81612540565b9050612a0b6020830185612613565b612a186040830184612224565b9392505050565b60006020820190508181036000830152612a3881612563565b9050919050565b60006020820190508181036000830152612a5881612586565b9050919050565b6000602082019050612a746000830184612613565b92915050565b600060c082019050612a8f6000830189612613565b612a9c60208301886122c6565b612aa96040830187612613565b612ab66060830186612613565b612ac36080830185612224565b612ad060a08301846122a8565b979650505050505050565b6000612ae5612af6565b9050612af18282612cb8565b919050565b6000604051905090565b600067ffffffffffffffff821115612b1b57612b1a612d18565b5b612b2482612d47565b9050602081019050919050565b6000819050602082019050919050565b600081519050919050565b600081519050919050565b6000602082019050919050565b600082825260208201905092915050565b600081905092915050565b600082825260208201905092915050565b600082825260208201905092915050565b6000612bad82612bd2565b9050919050565b60008115159050919050565b6000612bcb82612ba2565b9050919050565b600073ffffffffffffffffffffffffffffffffffffffff82169050919050565b6000819050919050565b6000612c0782612c0e565b9050919050565b6000612c1982612bd2565b9050919050565b6000612c2b82612c32565b9050919050565b6000612c3d82612bd2565b9050919050565b82818337600083830152505050565b60005b83811015612c71578082015181840152602081019050612c56565b83811115612c80576000848401525b50505050565b60006002820490506001821680612c9e57607f821691505b60208210811415612cb257612cb1612ce9565b5b50919050565b612cc182612d47565b810181811067ffffffffffffffff82111715612ce057612cdf612d18565b5b80604052505050565b7f4e487b7100000000000000000000000000000000000000000000000000000000600052602260045260246000fd5b7f4e487b7100000000000000000000000000000000000000000000000000000000600052604160045260246000fd5b6000601f19601f8301169050919050565b7f4e6f20626964732068617665206265656e206d616465206f6e2074686174206e60008201527f66742e0000000000000000000000000000000000000000000000000000000000602082015250565b7f4163636570744269640000000000000000000000000000000000000000000000600082015250565b7f4d696e7400000000000000000000000000000000000000000000000000000000600082015250565b7f53656c6c00000000000000000000000000000000000000000000000000000000600082015250565b7f556e61626c6520746f207472616e736665722066756e64732e00000000000000600082015250565b7f596f7520617265206e6f7420746865206f776e6572206f66207468697320636f60008201527f6c6c656374696f6e2e0000000000000000000000000000000000000000000000602082015250565b7f50726963652063616e6e6f7420626520302e0000000000000000000000000000600082015250565b7f4275790000000000000000000000000000000000000000000000000000000000600082015250565b7f4269640000000000000000000000000000000000000000000000000000000000600082015250565b7f596f7520617265206e6f7420746865206f776e6572206f662074686973204e4660008201527f542e000000000000000000000000000000000000000000000000000000000000602082015250565b7f4e4654204e6f7420666f722073656c6c2e000000000000000000000000000000600082015250565b50565b7f54686973206973206e6f7420796f7572204e46542e0000000000000000000000600082015250565b7f596f757220626964206d75737420626520626967676572207468616e2074686560008201527f2063757272656e74206f6e652e00000000000000000000000000000000000000602082015250565b7f43616e63656c53656c6c00000000000000000000000000000000000000000000600082015250565b7f5375626d697474656420707269636520646f65736e2774206d61746368206e6660008201527f742070726963652e000000000000000000000000000000000000000000000000602082015250565b7f5265656e7472616e637947756172643a207265656e7472616e742063616c6c00600082015250565b6130b281612ba2565b81146130bd57600080fd5b50565b6130c981612bc0565b81146130d457600080fd5b50565b6130e081612bf2565b81146130eb57600080fd5b5056fea2646970667358221220d2fa9f9fc6227360cf65adc6caabd8e8908ae5754db3d417d21b636dfee74d9164736f6c6343000804003360a060405234801561001057600080fd5b5060405161001d90610075565b604051809103906000f080158015610039573d6000803e3d6000fd5b5073ffffffffffffffffffffffffffffffffffffffff1660808173ffffffffffffffffffffffffffffffffffffffff1660601b81525050610082565b612fe58061080c83390190565b60805160601c6107656100a76000396000818161013c01526101f401526107656000f3fe608060405234801561001057600080fd5b50600436106100415760003560e01c80630fba445314610046578063e6a8ee4f14610076578063ec2adb4b14610094575b600080fd5b610060600480360381019061005b91906103ce565b6100b2565b60405161006d9190610587565b60405180910390f35b61007e61013a565b60405161008b919061054a565b60405180910390f35b61009c61015e565b6040516100a99190610565565b60405180910390f35b6000806100c287878787876101ec565b905060008190506000819080600181540180825580915050600190039060005260206000200160009091909190916101000a81548173ffffffffffffffffffffffffffffffffffffffff021916908373ffffffffffffffffffffffffffffffffffffffff160217905550809250505095945050505050565b7f000000000000000000000000000000000000000000000000000000000000000081565b606060008054806020026020016040519081016040528092919081815260200182805480156101e257602002820191906000526020600020905b8160009054906101000a900473ffffffffffffffffffffffffffffffffffffffff1673ffffffffffffffffffffffffffffffffffffffff1681526020019060010190808311610198575b5050505050905090565b6000806102187f000000000000000000000000000000000000000000000000000000000000000061029a565b90508073ffffffffffffffffffffffffffffffffffffffff1663077f224a88888888886040518663ffffffff1660e01b815260040161025b9594939291906105a2565b600060405180830381600087803b15801561027557600080fd5b505af1158015610289573d6000803e3d6000fd5b505050508091505095945050505050565b60006040517f3d602d80600a3d3981f3363d3d373d3d3d363d7300000000000000000000000081528260601b60148201527f5af43d82803e903d91602b57fd5bf3000000000000000000000000000000000060288201526037816000f0915050600073ffffffffffffffffffffffffffffffffffffffff168173ffffffffffffffffffffffffffffffffffffffff16141561036a576040517f08c379a0000000000000000000000000000000000000000000000000000000008152600401610361906105eb565b60405180910390fd5b919050565b60008135905061037e81610718565b92915050565b60008083601f84011261039657600080fd5b8235905067ffffffffffffffff8111156103af57600080fd5b6020830191508360018202830111156103c757600080fd5b9250929050565b6000806000806000606086880312156103e657600080fd5b600086013567ffffffffffffffff81111561040057600080fd5b61040c88828901610384565b9550955050602086013567ffffffffffffffff81111561042b57600080fd5b61043788828901610384565b9350935050604061044a8882890161036f565b9150509295509295909350565b600061046383836104eb565b60208301905092915050565b61047881610655565b82525050565b60006104898261061b565b6104938185610633565b935061049e8361060b565b8060005b838110156104cf5781516104b68882610457565b97506104c183610626565b9250506001810190506104a2565b5085935050505092915050565b6104e581610687565b82525050565b6104f4816106ab565b82525050565b60006105068385610644565b93506105138385846106cf565b61051c836106de565b840190509392505050565b6000610534601683610644565b915061053f826106ef565b602082019050919050565b600060208201905061055f600083018461046f565b92915050565b6000602082019050818103600083015261057f818461047e565b905092915050565b600060208201905061059c60008301846104dc565b92915050565b600060608201905081810360008301526105bd8187896104fa565b905081810360208301526105d28185876104fa565b90506105e1604083018461046f565b9695505050505050565b6000602082019050818103600083015261060481610527565b9050919050565b6000819050602082019050919050565b600081519050919050565b6000602082019050919050565b600082825260208201905092915050565b600082825260208201905092915050565b600061066082610667565b9050919050565b600073ffffffffffffffffffffffffffffffffffffffff82169050919050565b600061069282610699565b9050919050565b60006106a482610667565b9050919050565b60006106b6826106bd565b9050919050565b60006106c882610667565b9050919050565b82818337600083830152505050565b6000601f19601f8301169050919050565b7f455243313136373a20637265617465206661696c656400000000000000000000600082015250565b61072181610655565b811461072c57600080fd5b5056fea2646970667358221220bd549f8d3ec8126fd5d2e6b90bd854f90555b2d72d95247fe2897ab9bdb3ed1f64736f6c63430008040033608060405234801561001057600080fd5b50612fc5806100206000396000f3fe608060405234801561001057600080fd5b506004361061010b5760003560e01c80636352211e116100a25780639f181b5e116100715780639f181b5e146102ca578063a22cb465146102e8578063b88d4fde14610304578063c87b56dd14610320578063e985e9c5146103505761010b565b80636352211e1461022e57806370a082311461025e5780638da5cb5b1461028e57806395d89b41146102ac5761010b565b8063095ea7b3116100de578063095ea7b3146101aa5780631c351a9d146101c657806323b872dd146101f657806342842e0e146102125761010b565b806301ffc9a71461011057806306fdde0314610140578063077f224a1461015e578063081812fc1461017a575b600080fd5b61012a6004803603810190610125919061200b565b610380565b60405161013791906124de565b60405180910390f35b610148610462565b6040516101559190612514565b60405180910390f35b610178600480360381019061017391906120b5565b6104f4565b005b610194600480360381019061018f919061213e565b610702565b6040516101a19190612477565b60405180910390f35b6101c460048036038101906101bf9190611fcf565b610748565b005b6101e060048036038101906101db919061205d565b610860565b6040516101ed9190612716565b60405180910390f35b610210600480360381019061020b9190611ec9565b610979565b005b61022c60048036038101906102279190611ec9565b6109d9565b005b6102486004803603810190610243919061213e565b6109f9565b6040516102559190612477565b60405180910390f35b61027860048036038101906102739190611e64565b610aab565b6040516102859190612716565b60405180910390f35b610296610b63565b6040516102a39190612477565b60405180910390f35b6102b4610b89565b6040516102c19190612514565b60405180910390f35b6102d2610c1b565b6040516102df9190612716565b60405180910390f35b61030260048036038101906102fd9190611f93565b610c27565b005b61031e60048036038101906103199190611f18565b610c3d565b005b61033a6004803603810190610335919061213e565b610c9f565b6040516103479190612514565b60405180910390f35b61036a60048036038101906103659190611e8d565b610db2565b60405161037791906124de565b60405180910390f35b60007f80ac58cd000000000000000000000000000000000000000000000000000000007bffffffffffffffffffffffffffffffffffffffffffffffffffffffff1916827bffffffffffffffffffffffffffffffffffffffffffffffffffffffff1916148061044b57507f5b5e139f000000000000000000000000000000000000000000000000000000007bffffffffffffffffffffffffffffffffffffffffffffffffffffffff1916827bffffffffffffffffffffffffffffffffffffffffffffffffffffffff1916145b8061045b575061045a82610e46565b5b9050919050565b6060606580546104719061295a565b80601f016020809104026020016040519081016040528092919081815260200182805461049d9061295a565b80156104ea5780601f106104bf576101008083540402835291602001916104ea565b820191906000526020600020905b8154815290600101906020018083116104cd57829003601f168201915b5050505050905090565b60008060019054906101000a900460ff161590508080156105255750600160008054906101000a900460ff1660ff16105b80610552575061053430610eb0565b1580156105515750600160008054906101000a900460ff1660ff16145b5b610591576040517f08c379a000000000000000000000000000000000000000000000000000000000815260040161058890612616565b60405180910390fd5b60016000806101000a81548160ff021916908360ff16021790555080156105ce576001600060016101000a81548160ff0219169083151502179055505b61066086868080601f016020809104026020016040519081016040528093929190818152602001838380828437600081840152601f19601f8201169050808301925050505050505085858080601f016020809104026020016040519081016040528093929190818152602001838380828437600081840152601f19601f82011690508083019250505050505050610ed3565b8160ca60006101000a81548173ffffffffffffffffffffffffffffffffffffffff021916908373ffffffffffffffffffffffffffffffffffffffff16021790555080156106fa5760008060016101000a81548160ff0219169083151502179055507f7f26b83ff96e1f2b6a682f133852f6798a09c465da95921460cefb384740249860016040516106f191906124f9565b60405180910390a15b505050505050565b600061070d82610f30565b6069600083815260200190815260200160002060009054906101000a900473ffffffffffffffffffffffffffffffffffffffff169050919050565b6000610753826109f9565b90508073ffffffffffffffffffffffffffffffffffffffff168373ffffffffffffffffffffffffffffffffffffffff1614156107c4576040517f08c379a00000000000000000000000000000000000000000000000000000000081526004016107bb906126b6565b60405180910390fd5b8073ffffffffffffffffffffffffffffffffffffffff166107e3610f7b565b73ffffffffffffffffffffffffffffffffffffffff16148061081257506108118161080c610f7b565b610db2565b5b610851576040517f08c379a000000000000000000000000000000000000000000000000000000000815260040161084890612636565b60405180910390fd5b61085b8383610f83565b505050565b600060ca60009054906101000a900473ffffffffffffffffffffffffffffffffffffffff1673ffffffffffffffffffffffffffffffffffffffff163273ffffffffffffffffffffffffffffffffffffffff16146108f2576040517f08c379a00000000000000000000000000000000000000000000000000000000081526004016108e990612676565b60405180910390fd5b6108fc60c961103c565b61090f8261090a60c9611052565b611060565b61096661091c60c9611052565b85858080601f016020809104026020016040519081016040528093929190818152602001838380828437600081840152601f19601f8201169050808301925050505050505061107e565b61097060c9611052565b90509392505050565b61098a610984610f7b565b826110f2565b6109c9576040517f08c379a00000000000000000000000000000000000000000000000000000000081526004016109c0906126f6565b60405180910390fd5b6109d4838383611187565b505050565b6109f483838360405180602001604052806000815250610c3d565b505050565b6000806067600084815260200190815260200160002060009054906101000a900473ffffffffffffffffffffffffffffffffffffffff169050600073ffffffffffffffffffffffffffffffffffffffff168173ffffffffffffffffffffffffffffffffffffffff161415610aa2576040517f08c379a0000000000000000000000000000000000000000000000000000000008152600401610a9990612696565b60405180910390fd5b80915050919050565b60008073ffffffffffffffffffffffffffffffffffffffff168273ffffffffffffffffffffffffffffffffffffffff161415610b1c576040517f08c379a0000000000000000000000000000000000000000000000000000000008152600401610b13906125d6565b60405180910390fd5b606860008373ffffffffffffffffffffffffffffffffffffffff1673ffffffffffffffffffffffffffffffffffffffff168152602001908152602001600020549050919050565b60ca60009054906101000a900473ffffffffffffffffffffffffffffffffffffffff1681565b606060668054610b989061295a565b80601f0160208091040260200160405190810160405280929190818152602001828054610bc49061295a565b8015610c115780601f10610be657610100808354040283529160200191610c11565b820191906000526020600020905b815481529060010190602001808311610bf457829003601f168201915b5050505050905090565b60c98060000154905081565b610c39610c32610f7b565b83836113ee565b5050565b610c4e610c48610f7b565b836110f2565b610c8d576040517f08c379a0000000000000000000000000000000000000000000000000000000008152600401610c84906126f6565b60405180910390fd5b610c998484848461155b565b50505050565b6060610caa82610f30565b6000609760008481526020019081526020016000208054610cca9061295a565b80601f0160208091040260200160405190810160405280929190818152602001828054610cf69061295a565b8015610d435780601f10610d1857610100808354040283529160200191610d43565b820191906000526020600020905b815481529060010190602001808311610d2657829003601f168201915b505050505090506000610d546115b7565b9050600081511415610d6a578192505050610dad565b600082511115610d9f578082604051602001610d87929190612453565b60405160208183030381529060405292505050610dad565b610da8846115ce565b925050505b919050565b6000606a60008473ffffffffffffffffffffffffffffffffffffffff1673ffffffffffffffffffffffffffffffffffffffff16815260200190815260200160002060008373ffffffffffffffffffffffffffffffffffffffff1673ffffffffffffffffffffffffffffffffffffffff16815260200190815260200160002060009054906101000a900460ff16905092915050565b60007f01ffc9a7000000000000000000000000000000000000000000000000000000007bffffffffffffffffffffffffffffffffffffffffffffffffffffffff1916827bffffffffffffffffffffffffffffffffffffffffffffffffffffffff1916149050919050565b6000808273ffffffffffffffffffffffffffffffffffffffff163b119050919050565b600060019054906101000a900460ff16610f22576040517f08c379a0000000000000000000000000000000000000000000000000000000008152600401610f19906126d6565b60405180910390fd5b610f2c8282611636565b5050565b610f39816116b7565b610f78576040517f08c379a0000000000000000000000000000000000000000000000000000000008152600401610f6f90612696565b60405180910390fd5b50565b600033905090565b816069600083815260200190815260200160002060006101000a81548173ffffffffffffffffffffffffffffffffffffffff021916908373ffffffffffffffffffffffffffffffffffffffff160217905550808273ffffffffffffffffffffffffffffffffffffffff16610ff6836109f9565b73ffffffffffffffffffffffffffffffffffffffff167f8c5be1e5ebec7d5bd14f71427d1e84f3dd0314c0f7b2291e5b200ac8c7c3b92560405160405180910390a45050565b6001816000016000828254019250508190555050565b600081600001549050919050565b61107a828260405180602001604052806000815250611723565b5050565b611087826116b7565b6110c6576040517f08c379a00000000000000000000000000000000000000000000000000000000081526004016110bd906125f6565b60405180910390fd5b806097600084815260200190815260200160002090805190602001906110ed929190611ca6565b505050565b6000806110fe836109f9565b90508073ffffffffffffffffffffffffffffffffffffffff168473ffffffffffffffffffffffffffffffffffffffff161480611140575061113f8185610db2565b5b8061117e57508373ffffffffffffffffffffffffffffffffffffffff1661116684610702565b73ffffffffffffffffffffffffffffffffffffffff16145b91505092915050565b8273ffffffffffffffffffffffffffffffffffffffff166111a7826109f9565b73ffffffffffffffffffffffffffffffffffffffff16146111fd576040517f08c379a00000000000000000000000000000000000000000000000000000000081526004016111f490612556565b60405180910390fd5b600073ffffffffffffffffffffffffffffffffffffffff168273ffffffffffffffffffffffffffffffffffffffff16141561126d576040517f08c379a000000000000000000000000000000000000000000000000000000000815260040161126490612596565b60405180910390fd5b61127883838361177e565b611283600082610f83565b6001606860008573ffffffffffffffffffffffffffffffffffffffff1673ffffffffffffffffffffffffffffffffffffffff16815260200190815260200160002060008282546112d39190612851565b925050819055506001606860008473ffffffffffffffffffffffffffffffffffffffff1673ffffffffffffffffffffffffffffffffffffffff168152602001908152602001600020600082825461132a91906127ca565b92505081905550816067600083815260200190815260200160002060006101000a81548173ffffffffffffffffffffffffffffffffffffffff021916908373ffffffffffffffffffffffffffffffffffffffff160217905550808273ffffffffffffffffffffffffffffffffffffffff168473ffffffffffffffffffffffffffffffffffffffff167fddf252ad1be2c89b69c2b068fc378daa952ba7f163c4a11628f55a4df523b3ef60405160405180910390a46113e9838383611783565b505050565b8173ffffffffffffffffffffffffffffffffffffffff168373ffffffffffffffffffffffffffffffffffffffff16141561145d576040517f08c379a0000000000000000000000000000000000000000000000000000000008152600401611454906125b6565b60405180910390fd5b80606a60008573ffffffffffffffffffffffffffffffffffffffff1673ffffffffffffffffffffffffffffffffffffffff16815260200190815260200160002060008473ffffffffffffffffffffffffffffffffffffffff1673ffffffffffffffffffffffffffffffffffffffff16815260200190815260200160002060006101000a81548160ff0219169083151502179055508173ffffffffffffffffffffffffffffffffffffffff168373ffffffffffffffffffffffffffffffffffffffff167f17307eab39ab6107e8899845ad3d59bd9653f200f220920489ca2b5937696c318360405161154e91906124de565b60405180910390a3505050565b611566848484611187565b61157284848484611788565b6115b1576040517f08c379a00000000000000000000000000000000000000000000000000000000081526004016115a890612536565b60405180910390fd5b50505050565b606060405180602001604052806000815250905090565b60606115d982610f30565b60006115e36115b7565b90506000815111611603576040518060200160405280600081525061162e565b8061160d8461191f565b60405160200161161e929190612453565b6040516020818303038152906040525b915050919050565b600060019054906101000a900460ff16611685576040517f08c379a000000000000000000000000000000000000000000000000000000000815260040161167c906126d6565b60405180910390fd5b816065908051906020019061169b929190611ca6565b5080606690805190602001906116b2929190611ca6565b505050565b60008073ffffffffffffffffffffffffffffffffffffffff166067600084815260200190815260200160002060009054906101000a900473ffffffffffffffffffffffffffffffffffffffff1673ffffffffffffffffffffffffffffffffffffffff1614159050919050565b61172d8383611acc565b61173a6000848484611788565b611779576040517f08c379a000000000000000000000000000000000000000000000000000000000815260040161177090612536565b60405180910390fd5b505050565b505050565b505050565b60006117a98473ffffffffffffffffffffffffffffffffffffffff16610eb0565b15611912578373ffffffffffffffffffffffffffffffffffffffff1663150b7a026117d2610f7b565b8786866040518563ffffffff1660e01b81526004016117f49493929190612492565b602060405180830381600087803b15801561180e57600080fd5b505af192505050801561183f57506040513d601f19601f8201168201806040525081019061183c9190612034565b60015b6118c2573d806000811461186f576040519150601f19603f3d011682016040523d82523d6000602084013e611874565b606091505b506000815114156118ba576040517f08c379a00000000000000000000000000000000000000000000000000000000081526004016118b190612536565b60405180910390fd5b805181602001fd5b63150b7a0260e01b7bffffffffffffffffffffffffffffffffffffffffffffffffffffffff1916817bffffffffffffffffffffffffffffffffffffffffffffffffffffffff191614915050611917565b600190505b949350505050565b60606000821415611967576040518060400160405280600181526020017f30000000000000000000000000000000000000000000000000000000000000008152509050611ac7565b600082905060005b60008214611999578080611982906129bd565b915050600a826119929190612820565b915061196f565b60008167ffffffffffffffff8111156119db577f4e487b7100000000000000000000000000000000000000000000000000000000600052604160045260246000fd5b6040519080825280601f01601f191660200182016040528015611a0d5781602001600182028036833780820191505090505b5090505b60008514611ac057600182611a269190612851565b9150600a85611a359190612a06565b6030611a4191906127ca565b60f81b818381518110611a7d577f4e487b7100000000000000000000000000000000000000000000000000000000600052603260045260246000fd5b60200101907effffffffffffffffffffffffffffffffffffffffffffffffffffffffffffff1916908160001a905350600a85611ab99190612820565b9450611a11565b8093505050505b919050565b600073ffffffffffffffffffffffffffffffffffffffff168273ffffffffffffffffffffffffffffffffffffffff161415611b3c576040517f08c379a0000000000000000000000000000000000000000000000000000000008152600401611b3390612656565b60405180910390fd5b611b45816116b7565b15611b85576040517f08c379a0000000000000000000000000000000000000000000000000000000008152600401611b7c90612576565b60405180910390fd5b611b916000838361177e565b6001606860008473ffffffffffffffffffffffffffffffffffffffff1673ffffffffffffffffffffffffffffffffffffffff1681526020019081526020016000206000828254611be191906127ca565b92505081905550816067600083815260200190815260200160002060006101000a81548173ffffffffffffffffffffffffffffffffffffffff021916908373ffffffffffffffffffffffffffffffffffffffff160217905550808273ffffffffffffffffffffffffffffffffffffffff16600073ffffffffffffffffffffffffffffffffffffffff167fddf252ad1be2c89b69c2b068fc378daa952ba7f163c4a11628f55a4df523b3ef60405160405180910390a4611ca260008383611783565b5050565b828054611cb29061295a565b90600052602060002090601f016020900481019282611cd45760008555611d1b565b82601f10611ced57805160ff1916838001178555611d1b565b82800160010185558215611d1b579182015b82811115611d1a578251825591602001919060010190611cff565b5b509050611d289190611d2c565b5090565b5b80821115611d45576000816000905550600101611d2d565b5090565b6000611d5c611d5784612756565b612731565b905082815260208101848484011115611d7457600080fd5b611d7f848285612918565b509392505050565b600081359050611d9681612f33565b92915050565b600081359050611dab81612f4a565b92915050565b600081359050611dc081612f61565b92915050565b600081519050611dd581612f61565b92915050565b600082601f830112611dec57600080fd5b8135611dfc848260208601611d49565b91505092915050565b60008083601f840112611e1757600080fd5b8235905067ffffffffffffffff811115611e3057600080fd5b602083019150836001820283011115611e4857600080fd5b9250929050565b600081359050611e5e81612f78565b92915050565b600060208284031215611e7657600080fd5b6000611e8484828501611d87565b91505092915050565b60008060408385031215611ea057600080fd5b6000611eae85828601611d87565b9250506020611ebf85828601611d87565b9150509250929050565b600080600060608486031215611ede57600080fd5b6000611eec86828701611d87565b9350506020611efd86828701611d87565b9250506040611f0e86828701611e4f565b9150509250925092565b60008060008060808587031215611f2e57600080fd5b6000611f3c87828801611d87565b9450506020611f4d87828801611d87565b9350506040611f5e87828801611e4f565b925050606085013567ffffffffffffffff811115611f7b57600080fd5b611f8787828801611ddb565b91505092959194509250565b60008060408385031215611fa657600080fd5b6000611fb485828601611d87565b9250506020611fc585828601611d9c565b9150509250929050565b60008060408385031215611fe257600080fd5b6000611ff085828601611d87565b925050602061200185828601611e4f565b9150509250929050565b60006020828403121561201d57600080fd5b600061202b84828501611db1565b91505092915050565b60006020828403121561204657600080fd5b600061205484828501611dc6565b91505092915050565b60008060006040848603121561207257600080fd5b600084013567ffffffffffffffff81111561208c57600080fd5b61209886828701611e05565b935093505060206120ab86828701611d87565b9150509250925092565b6000806000806000606086880312156120cd57600080fd5b600086013567ffffffffffffffff8111156120e757600080fd5b6120f388828901611e05565b9550955050602086013567ffffffffffffffff81111561211257600080fd5b61211e88828901611e05565b9350935050604061213188828901611d87565b9150509295509295909350565b60006020828403121561215057600080fd5b600061215e84828501611e4f565b91505092915050565b61217081612885565b82525050565b61217f81612897565b82525050565b600061219082612787565b61219a818561279d565b93506121aa818560208601612927565b6121b381612af3565b840191505092915050565b6121c781612906565b82525050565b60006121d882612792565b6121e281856127ae565b93506121f2818560208601612927565b6121fb81612af3565b840191505092915050565b600061221182612792565b61221b81856127bf565b935061222b818560208601612927565b80840191505092915050565b60006122446032836127ae565b915061224f82612b04565b604082019050919050565b60006122676025836127ae565b915061227282612b53565b604082019050919050565b600061228a601c836127ae565b915061229582612ba2565b602082019050919050565b60006122ad6024836127ae565b91506122b882612bcb565b604082019050919050565b60006122d06019836127ae565b91506122db82612c1a565b602082019050919050565b60006122f36029836127ae565b91506122fe82612c43565b604082019050919050565b6000612316602e836127ae565b915061232182612c92565b604082019050919050565b6000612339602e836127ae565b915061234482612ce1565b604082019050919050565b600061235c603e836127ae565b915061236782612d30565b604082019050919050565b600061237f6020836127ae565b915061238a82612d7f565b602082019050919050565b60006123a26048836127ae565b91506123ad82612da8565b606082019050919050565b60006123c56018836127ae565b91506123d082612e1d565b602082019050919050565b60006123e86021836127ae565b91506123f382612e46565b604082019050919050565b600061240b602b836127ae565b915061241682612e95565b604082019050919050565b600061242e602e836127ae565b915061243982612ee4565b604082019050919050565b61244d816128ef565b82525050565b600061245f8285612206565b915061246b8284612206565b91508190509392505050565b600060208201905061248c6000830184612167565b92915050565b60006080820190506124a76000830187612167565b6124b46020830186612167565b6124c16040830185612444565b81810360608301526124d38184612185565b905095945050505050565b60006020820190506124f36000830184612176565b92915050565b600060208201905061250e60008301846121be565b92915050565b6000602082019050818103600083015261252e81846121cd565b905092915050565b6000602082019050818103600083015261254f81612237565b9050919050565b6000602082019050818103600083015261256f8161225a565b9050919050565b6000602082019050818103600083015261258f8161227d565b9050919050565b600060208201905081810360008301526125af816122a0565b9050919050565b600060208201905081810360008301526125cf816122c3565b9050919050565b600060208201905081810360008301526125ef816122e6565b9050919050565b6000602082019050818103600083015261260f81612309565b9050919050565b6000602082019050818103600083015261262f8161232c565b9050919050565b6000602082019050818103600083015261264f8161234f565b9050919050565b6000602082019050818103600083015261266f81612372565b9050919050565b6000602082019050818103600083015261268f81612395565b9050919050565b600060208201905081810360008301526126af816123b8565b9050919050565b600060208201905081810360008301526126cf816123db565b9050919050565b600060208201905081810360008301526126ef816123fe565b9050919050565b6000602082019050818103600083015261270f81612421565b9050919050565b600060208201905061272b6000830184612444565b92915050565b600061273b61274c565b9050612747828261298c565b919050565b6000604051905090565b600067ffffffffffffffff82111561277157612770612ac4565b5b61277a82612af3565b9050602081019050919050565b600081519050919050565b600081519050919050565b600082825260208201905092915050565b600082825260208201905092915050565b600081905092915050565b60006127d5826128ef565b91506127e0836128ef565b9250827fffffffffffffffffffffffffffffffffffffffffffffffffffffffffffffffff0382111561281557612814612a37565b5b828201905092915050565b600061282b826128ef565b9150612836836128ef565b92508261284657612845612a66565b5b828204905092915050565b600061285c826128ef565b9150612867836128ef565b92508282101561287a57612879612a37565b5b828203905092915050565b6000612890826128cf565b9050919050565b60008115159050919050565b60007fffffffff0000000000000000000000000000000000000000000000000000000082169050919050565b600073ffffffffffffffffffffffffffffffffffffffff82169050919050565b6000819050919050565b600060ff82169050919050565b6000612911826128f9565b9050919050565b82818337600083830152505050565b60005b8381101561294557808201518184015260208101905061292a565b83811115612954576000848401525b50505050565b6000600282049050600182168061297257607f821691505b6020821081141561298657612985612a95565b5b50919050565b61299582612af3565b810181811067ffffffffffffffff821117156129b4576129b3612ac4565b5b80604052505050565b60006129c8826128ef565b91507fffffffffffffffffffffffffffffffffffffffffffffffffffffffffffffffff8214156129fb576129fa612a37565b5b600182019050919050565b6000612a11826128ef565b9150612a1c836128ef565b925082612a2c57612a2b612a66565b5b828206905092915050565b7f4e487b7100000000000000000000000000000000000000000000000000000000600052601160045260246000fd5b7f4e487b7100000000000000000000000000000000000000000000000000000000600052601260045260246000fd5b7f4e487b7100000000000000000000000000000000000000000000000000000000600052602260045260246000fd5b7f4e487b7100000000000000000000000000000000000000000000000000000000600052604160045260246000fd5b6000601f19601f8301169050919050565b7f4552433732313a207472616e7366657220746f206e6f6e20455243373231526560008201527f63656976657220696d706c656d656e7465720000000000000000000000000000602082015250565b7f4552433732313a207472616e736665722066726f6d20696e636f72726563742060008201527f6f776e6572000000000000000000000000000000000000000000000000000000602082015250565b7f4552433732313a20746f6b656e20616c7265616479206d696e74656400000000600082015250565b7f4552433732313a207472616e7366657220746f20746865207a65726f2061646460008201527f7265737300000000000000000000000000000000000000000000000000000000602082015250565b7f4552433732313a20617070726f766520746f2063616c6c657200000000000000600082015250565b7f4552433732313a2061646472657373207a65726f206973206e6f74206120766160008201527f6c6964206f776e65720000000000000000000000000000000000000000000000602082015250565b7f45524337323155524953746f726167653a2055524920736574206f66206e6f6e60008201527f6578697374656e7420746f6b656e000000000000000000000000000000000000602082015250565b7f496e697469616c697a61626c653a20636f6e747261637420697320616c72656160008201527f647920696e697469616c697a6564000000000000000000000000000000000000602082015250565b7f4552433732313a20617070726f76652063616c6c6572206973206e6f7420746f60008201527f6b656e206f776e6572206e6f7220617070726f76656420666f7220616c6c0000602082015250565b7f4552433732313a206d696e7420746f20746865207a65726f2061646472657373600082015250565b7f596f7520617265206e6f7420746865206f776e6572206f66207468697320636f60008201527f6c6c656374696f6e206f7220636f6e7472616374206973206e6f7420696e697460208201527f69616c697a65642e000000000000000000000000000000000000000000000000604082015250565b7f4552433732313a20696e76616c696420746f6b656e2049440000000000000000600082015250565b7f4552433732313a20617070726f76616c20746f2063757272656e74206f776e6560008201527f7200000000000000000000000000000000000000000000000000000000000000602082015250565b7f496e697469616c697a61626c653a20636f6e7472616374206973206e6f74206960008201527f6e697469616c697a696e67000000000000000000000000000000000000000000602082015250565b7f4552433732313a2063616c6c6572206973206e6f7420746f6b656e206f776e6560008201527f72206e6f7220617070726f766564000000000000000000000000000000000000602082015250565b612f3c81612885565b8114612f4757600080fd5b50565b612f5381612897565b8114612f5e57600080fd5b50565b612f6a816128a3565b8114612f7557600080fd5b50565b612f81816128ef565b8114612f8c57600080fd5b5056fea264697066735822122022fa4d6a081c6fdbf8acbf317f5d23b74b0247d7077605353b134a0b4105626964736f6c63430008040033",
  "linkReferences": {},
  "deployedLinkReferences": {}
}