{
  "_format": "hh-sol-artifact-1",
  "contractName": "Marketplace",
  "sourceName": "contracts/Marketplace.sol",
  "abi": [
    {
      "inputs": [],
      "stateMutability": "nonpayable",
      "type": "constructor"
    },
    {
      "anonymous": false,
      "inputs": [
        {
          "indexed": false,
          "internalType": "address",
          "name": "collectionAddress",
          "type": "address"
        },
        {
          "indexed": false,
          "internalType": "address",
          "name": "owner",
          "type": "address"
        }
      ],
      "name": "newCollection",
      "type": "event"
    },
    {
      "anonymous": false,
      "inputs": [
        {
          "indexed": false,
          "internalType": "string",
          "name": "action",
          "type": "string"
        },
        {
          "indexed": false,
          "internalType": "uint256",
          "name": "id",
          "type": "uint256"
        },
        {
          "indexed": false,
          "internalType": "address",
          "name": "issuer",
          "type": "address"
        }
      ],
      "name": "nft",
      "type": "event"
    },
    {
      "inputs": [],
      "name": "NFTFactoryContract",
      "outputs": [
        {
          "internalType": "contract NFTFactory",
          "name": "",
          "type": "address"
        }
      ],
      "stateMutability": "view",
      "type": "function"
    },
    {
      "inputs": [
        {
          "internalType": "uint256",
          "name": "_itemId",
          "type": "uint256"
        }
      ],
      "name": "acceptBid",
      "outputs": [],
      "stateMutability": "payable",
      "type": "function"
    },
    {
      "inputs": [
        {
          "internalType": "uint256",
          "name": "_itemId",
          "type": "uint256"
        }
      ],
      "name": "bidOnNFT",
      "outputs": [],
      "stateMutability": "payable",
      "type": "function"
    },
    {
      "inputs": [
        {
          "internalType": "uint256",
          "name": "_itemId",
          "type": "uint256"
        }
      ],
      "name": "buyNFT",
      "outputs": [],
      "stateMutability": "payable",
      "type": "function"
    },
    {
      "inputs": [
        {
          "internalType": "uint256",
          "name": "_itemId",
          "type": "uint256"
        }
      ],
      "name": "cancelSell",
      "outputs": [],
      "stateMutability": "nonpayable",
      "type": "function"
    },
    {
      "inputs": [
        {
          "internalType": "uint256",
          "name": "",
          "type": "uint256"
        }
      ],
      "name": "collections",
      "outputs": [
        {
          "internalType": "contract ERC721Upgradeable",
          "name": "Contract",
          "type": "address"
        },
        {
          "internalType": "address",
          "name": "Owner",
          "type": "address"
        },
        {
          "internalType": "string",
          "name": "imageLink",
          "type": "string"
        },
        {
          "internalType": "string",
          "name": "info",
          "type": "string"
        },
        {
          "internalType": "bool",
          "name": "rentable",
          "type": "bool"
        }
      ],
      "stateMutability": "view",
      "type": "function"
    },
    {
      "inputs": [
        {
          "internalType": "string",
          "name": "_name",
          "type": "string"
        },
        {
          "internalType": "string",
          "name": "_ticker",
          "type": "string"
        },
        {
          "internalType": "string",
          "name": "_imageLink",
          "type": "string"
        },
        {
          "internalType": "string",
          "name": "_info",
          "type": "string"
        },
        {
          "internalType": "bool",
          "name": "_rentable",
          "type": "bool"
        }
      ],
      "name": "createCollection",
      "outputs": [],
      "stateMutability": "nonpayable",
      "type": "function"
    },
    {
      "inputs": [
        {
          "internalType": "uint256",
          "name": "_itemId",
          "type": "uint256"
        }
      ],
      "name": "getApproved",
      "outputs": [
        {
          "internalType": "address",
          "name": "",
          "type": "address"
        }
      ],
      "stateMutability": "view",
      "type": "function"
    },
    {
      "inputs": [],
      "name": "getBalance",
      "outputs": [
        {
          "internalType": "uint256",
          "name": "",
          "type": "uint256"
        }
      ],
      "stateMutability": "view",
      "type": "function"
    },
    {
      "inputs": [
        {
          "internalType": "uint256",
          "name": "",
          "type": "uint256"
        }
      ],
      "name": "items",
      "outputs": [
        {
          "internalType": "uint256",
          "name": "tokenId",
          "type": "uint256"
        },
        {
          "internalType": "contract ERC721Upgradeable",
          "name": "nft",
          "type": "address"
        },
        {
          "internalType": "uint256",
          "name": "price",
          "type": "uint256"
        },
        {
          "internalType": "uint256",
          "name": "bidPrice",
          "type": "uint256"
        },
        {
          "internalType": "uint256",
          "name": "rentPrice",
          "type": "uint256"
        },
        {
          "internalType": "uint256",
          "name": "rentPeriod",
          "type": "uint256"
        },
        {
          "internalType": "address",
          "name": "bidAddress",
          "type": "address"
        },
        {
          "internalType": "bool",
          "name": "forSell",
          "type": "bool"
        },
        {
          "internalType": "bool",
          "name": "forRent",
          "type": "bool"
        }
      ],
      "stateMutability": "view",
      "type": "function"
    },
    {
      "inputs": [
        {
          "internalType": "uint256",
          "name": "_collectionId",
          "type": "uint256"
        },
        {
          "internalType": "string",
          "name": "_tokenURI",
          "type": "string"
        }
      ],
      "name": "mintNFT",
      "outputs": [],
      "stateMutability": "nonpayable",
      "type": "function"
    },
    {
      "inputs": [
        {
          "internalType": "uint256",
          "name": "_itemId",
          "type": "uint256"
        },
        {
          "internalType": "uint256",
          "name": "_price",
          "type": "uint256"
        },
        {
          "internalType": "uint256",
          "name": "_rentPeriod",
          "type": "uint256"
        }
      ],
      "name": "rentNFT",
      "outputs": [],
      "stateMutability": "nonpayable",
      "type": "function"
    },
    {
      "inputs": [],
      "name": "returnCollections",
      "outputs": [
        {
          "components": [
            {
              "internalType": "contract ERC721Upgradeable",
              "name": "Contract",
              "type": "address"
            },
            {
              "internalType": "address",
              "name": "Owner",
              "type": "address"
            },
            {
              "internalType": "string",
              "name": "imageLink",
              "type": "string"
            },
            {
              "internalType": "string",
              "name": "info",
              "type": "string"
            },
            {
              "internalType": "bool",
              "name": "rentable",
              "type": "bool"
            }
          ],
          "internalType": "struct Marketplace.collection[]",
          "name": "",
          "type": "tuple[]"
        }
      ],
      "stateMutability": "view",
      "type": "function"
    },
    {
      "inputs": [],
      "name": "returnCollectionsLength",
      "outputs": [
        {
          "internalType": "uint256",
          "name": "",
          "type": "uint256"
        }
      ],
      "stateMutability": "view",
      "type": "function"
    },
    {
      "inputs": [],
      "name": "returnItemsLength",
      "outputs": [
        {
          "internalType": "uint256",
          "name": "",
          "type": "uint256"
        }
      ],
      "stateMutability": "view",
      "type": "function"
    },
    {
      "inputs": [
        {
          "internalType": "uint256",
          "name": "_itemId",
          "type": "uint256"
        },
        {
          "internalType": "uint256",
          "name": "_price",
          "type": "uint256"
        }
      ],
      "name": "sellNFT",
      "outputs": [],
      "stateMutability": "nonpayable",
      "type": "function"
    },
    {
      "inputs": [
        {
          "internalType": "uint256",
          "name": "_itemId",
          "type": "uint256"
        }
      ],
      "name": "takeNFT",
      "outputs": [],
      "stateMutability": "payable",
      "type": "function"
    },
    {
      "inputs": [],
      "name": "tokenCount",
      "outputs": [
        {
          "internalType": "uint256",
          "name": "_value",
          "type": "uint256"
        }
      ],
      "stateMutability": "view",
      "type": "function"
    }
  ],
  "bytecode": "0x60806040523480156200001157600080fd5b50600160008190555060405162000028906200008c565b604051809103906000f08015801562000045573d6000803e3d6000fd5b50600260006101000a81548173ffffffffffffffffffffffffffffffffffffffff021916908373ffffffffffffffffffffffffffffffffffffffff1602179055506200009a565b616fdc8062003f0b83390190565b613e6180620000aa6000396000f3fe6080604052600436106101095760003560e01c80636a7219d5116100955780639f181b5e116100645780639f181b5e1461031a578063bfb231d214610345578063f217c54e1461038a578063fb2facc3146103b3578063fdbda0ec146103cf57610109565b80636a7219d5146102725780636ab3bd791461029b578063783488db146102c657806391a48a1e146102f157610109565b80631a0c8fa0116100dc5780631a0c8fa0146101ca57806327bf3410146101f35780632a0b4f021461020f5780632b1fd58a1461023a57806351ed82881461025657610109565b806307c9cd451461010e578063081812fc1461013757806312065fe01461017457806315ab8a711461019f575b600080fd5b34801561011a57600080fd5b5061013560048036038101906101309190612ab7565b610410565b005b34801561014357600080fd5b5061015e60048036038101906101599190612ab7565b6105bd565b60405161016b9190613111565b60405180910390f35b34801561018057600080fd5b5061018961069b565b60405161019691906135f5565b60405180910390f35b3480156101ab57600080fd5b506101b46106a3565b6040516101c191906135f5565b60405180910390f35b3480156101d657600080fd5b506101f160048036038101906101ec9190612b1c565b6106b4565b005b61020d60048036038101906102089190612ab7565b610b9d565b005b34801561021b57600080fd5b50610224610d6d565b604051610231919061320f565b60405180910390f35b610254600480360381019061024f9190612ab7565b610d93565b005b610270600480360381019061026b9190612ab7565b6111f6565b005b34801561027e57600080fd5b5061029960048036038101906102949190612bac565b61175a565b005b3480156102a757600080fd5b506102b061193a565b6040516102bd919061318c565b60405180910390f35b3480156102d257600080fd5b506102db611b84565b6040516102e891906135f5565b60405180910390f35b3480156102fd57600080fd5b5061031860048036038101906103139190612b70565b611b91565b005b34801561032657600080fd5b5061032f611d9e565b60405161033c91906135f5565b60405180910390f35b34801561035157600080fd5b5061036c60048036038101906103679190612ab7565b611daa565b60405161038199989796959493929190613647565b60405180910390f35b34801561039657600080fd5b506103b160048036038101906103ac91906129dd565b611e52565b005b6103cd60048036038101906103c89190612ab7565b61213c565b005b3480156103db57600080fd5b506103f660048036038101906103f19190612ab7565b61252d565b6040516104079594939291906131ae565b60405180910390f35b3373ffffffffffffffffffffffffffffffffffffffff166005600083815260200190815260200160002060010160009054906101000a900473ffffffffffffffffffffffffffffffffffffffff1673ffffffffffffffffffffffffffffffffffffffff16636352211e60056000858152602001908152602001600020600001546040518263ffffffff1660e01b81526004016104ac91906135f5565b60206040518083038186803b1580156104c457600080fd5b505afa1580156104d8573d6000803e3d6000fd5b505050506040513d601f19601f820116820180604052508101906104fc9190612978565b73ffffffffffffffffffffffffffffffffffffffff1614610552576040517f08c379a000000000000000000000000000000000000000000000000000000000815260040161054990613519565b60405180910390fd5b60006005600083815260200190815260200160002060060160146101000a81548160ff0219169083151502179055507ff2d297eac80d2d16471c4d7e861e173d751386a6667de8ed5c0eea80959dda1081336040516105b2929190613559565b60405180910390a150565b60006005600083815260200190815260200160002060010160009054906101000a900473ffffffffffffffffffffffffffffffffffffffff1673ffffffffffffffffffffffffffffffffffffffff1663081812fc60056000858152602001908152602001600020600001546040518263ffffffff1660e01b815260040161064491906135f5565b60206040518083038186803b15801561065c57600080fd5b505afa158015610670573d6000803e3d6000fd5b505050506040513d601f19601f820116820180604052508101906106949190612978565b9050919050565b600047905090565b60006106af60016126d0565b905090565b3373ffffffffffffffffffffffffffffffffffffffff1660048381548110610705577f4e487b7100000000000000000000000000000000000000000000000000000000600052603260045260246000fd5b906000526020600020906005020160010160009054906101000a900473ffffffffffffffffffffffffffffffffffffffff1673ffffffffffffffffffffffffffffffffffffffff161461078d576040517f08c379a0000000000000000000000000000000000000000000000000000000008152600401610784906133e1565b60405180910390fd5b600482815481106107c7577f4e487b7100000000000000000000000000000000000000000000000000000000600052603260045260246000fd5b906000526020600020906005020160000160009054906101000a900473ffffffffffffffffffffffffffffffffffffffff16600360006101000a81548173ffffffffffffffffffffffffffffffffffffffff021916908373ffffffffffffffffffffffffffffffffffffffff160217905550600080600360009054906101000a900473ffffffffffffffffffffffffffffffffffffffff1673ffffffffffffffffffffffffffffffffffffffff16631c351a9d84336040518363ffffffff1660e01b815260040161089992919061322a565b6040805180830381600087803b1580156108b257600080fd5b505af11580156108c6573d6000803e3d6000fd5b505050506040513d601f19601f820116820180604052508101906108ea9190612ae0565b915091508061092e576040517f08c379a0000000000000000000000000000000000000000000000000000000008152600401610925906134f9565b60405180910390fd5b61093860016126de565b600060048581548110610974577f4e487b7100000000000000000000000000000000000000000000000000000000600052603260045260246000fd5b906000526020600020906005020160040160009054906101000a900460ff161561099d57600190505b604051806101200160405280848152602001600360009054906101000a900473ffffffffffffffffffffffffffffffffffffffff1673ffffffffffffffffffffffffffffffffffffffff168152602001600081526020016000815260200160008152602001600081526020013073ffffffffffffffffffffffffffffffffffffffff16815260200160001515815260200182151581525060056000610a4260016126d0565b81526020019081526020016000206000820151816000015560208201518160010160006101000a81548173ffffffffffffffffffffffffffffffffffffffff021916908373ffffffffffffffffffffffffffffffffffffffff16021790555060408201518160020155606082015181600301556080820151816004015560a0820151816005015560c08201518160060160006101000a81548173ffffffffffffffffffffffffffffffffffffffff021916908373ffffffffffffffffffffffffffffffffffffffff16021790555060e08201518160060160146101000a81548160ff0219169083151502179055506101008201518160060160156101000a81548160ff0219169083151502179055509050507ff2d297eac80d2d16471c4d7e861e173d751386a6667de8ed5c0eea80959dda10610b7f60016126d0565b33604051610b8e929190613329565b60405180910390a15050505050565b60026000541415610be3576040517f08c379a0000000000000000000000000000000000000000000000000000000008152600401610bda906135b5565b60405180910390fd5b600260008190555060056000828152602001908152602001600020600301543411610c43576040517f08c379a0000000000000000000000000000000000000000000000000000000008152600401610c3a90613539565b60405180910390fd5b600060056000838152602001908152602001600020600301541115610cb957610cb86005600083815260200190815260200160002060060160009054906101000a900473ffffffffffffffffffffffffffffffffffffffff1660056000848152602001908152602001600020600301546126f4565b5b346005600083815260200190815260200160002060030181905550336005600083815260200190815260200160002060060160006101000a81548173ffffffffffffffffffffffffffffffffffffffff021916908373ffffffffffffffffffffffffffffffffffffffff1602179055507ff2d297eac80d2d16471c4d7e861e173d751386a6667de8ed5c0eea80959dda108133604051610d5a92919061345d565b60405180910390a1600160008190555050565b600260009054906101000a900473ffffffffffffffffffffffffffffffffffffffff1681565b60026000541415610dd9576040517f08c379a0000000000000000000000000000000000000000000000000000000008152600401610dd0906135b5565b60405180910390fd5b60026000819055506000600560008381526020019081526020016000206003015411610e3a576040517f08c379a0000000000000000000000000000000000000000000000000000000008152600401610e31906132ad565b60405180910390fd5b60006005600083815260200190815260200160002060010160009054906101000a900473ffffffffffffffffffffffffffffffffffffffff1673ffffffffffffffffffffffffffffffffffffffff16636352211e60056000858152602001908152602001600020600001546040518263ffffffff1660e01b8152600401610ec191906135f5565b60206040518083038186803b158015610ed957600080fd5b505afa158015610eed573d6000803e3d6000fd5b505050506040513d601f19601f82011682018060405250810190610f119190612978565b90503373ffffffffffffffffffffffffffffffffffffffff166005600084815260200190815260200160002060010160009054906101000a900473ffffffffffffffffffffffffffffffffffffffff1673ffffffffffffffffffffffffffffffffffffffff16636352211e60056000868152602001908152602001600020600001546040518263ffffffff1660e01b8152600401610faf91906135f5565b60206040518083038186803b158015610fc757600080fd5b505afa158015610fdb573d6000803e3d6000fd5b505050506040513d601f19601f82011682018060405250810190610fff9190612978565b73ffffffffffffffffffffffffffffffffffffffff1614611055576040517f08c379a000000000000000000000000000000000000000000000000000000000815260040161104c906134b9565b60405180910390fd5b6110758160056000858152602001908152602001600020600301546126f4565b6005600083815260200190815260200160002060010160009054906101000a900473ffffffffffffffffffffffffffffffffffffffff1673ffffffffffffffffffffffffffffffffffffffff166323b872dd826005600086815260200190815260200160002060060160009054906101000a900473ffffffffffffffffffffffffffffffffffffffff1660056000878152602001908152602001600020600001546040518463ffffffff1660e01b815260040161113493929190613155565b600060405180830381600087803b15801561114e57600080fd5b505af1158015611162573d6000803e3d6000fd5b5050505060006005600084815260200190815260200160002060060160146101000a81548160ff021916908315150217905550600060056000848152602001908152602001600020600301819055507ff2d297eac80d2d16471c4d7e861e173d751386a6667de8ed5c0eea80959dda1082336040516111e29291906132ed565b60405180910390a150600160008190555050565b6002600054141561123c576040517f08c379a0000000000000000000000000000000000000000000000000000000008152600401611233906135b5565b60405180910390fd5b6002600081905550600115156005600083815260200190815260200160002060060160149054906101000a900460ff161515146112ae576040517f08c379a00000000000000000000000000000000000000000000000000000000081526004016112a5906134d9565b60405180910390fd5b60056000828152602001908152602001600020600201543414611306576040517f08c379a00000000000000000000000000000000000000000000000000000000081526004016112fd90613595565b60405180910390fd5b6005600082815260200190815260200160002060060160159054906101000a900460ff161561147357600073ffffffffffffffffffffffffffffffffffffffff166005600083815260200190815260200160002060010160009054906101000a900473ffffffffffffffffffffffffffffffffffffffff1673ffffffffffffffffffffffffffffffffffffffff1663c2f1f14a60056000858152602001908152602001600020600001546040518263ffffffff1660e01b81526004016113cc91906135f5565b60206040518083038186803b1580156113e457600080fd5b505afa1580156113f8573d6000803e3d6000fd5b505050506040513d601f19601f8201168201806040525081019061141c9190612978565b73ffffffffffffffffffffffffffffffffffffffff1614611472576040517f08c379a0000000000000000000000000000000000000000000000000000000008152600401611469906132cd565b60405180910390fd5b5b60006005600083815260200190815260200160002060010160009054906101000a900473ffffffffffffffffffffffffffffffffffffffff1673ffffffffffffffffffffffffffffffffffffffff16636352211e60056000858152602001908152602001600020600001546040518263ffffffff1660e01b81526004016114fa91906135f5565b60206040518083038186803b15801561151257600080fd5b505afa158015611526573d6000803e3d6000fd5b505050506040513d601f19601f8201168201806040525081019061154a9190612978565b905060006005600084815260200190815260200160002060060160146101000a81548160ff021916908315150217905550600060056000848152602001908152602001600020600301819055506005600083815260200190815260200160002060010160009054906101000a900473ffffffffffffffffffffffffffffffffffffffff1673ffffffffffffffffffffffffffffffffffffffff166342842e0e823360056000878152602001908152602001600020600001546040518463ffffffff1660e01b815260040161162093929190613155565b600060405180830381600087803b15801561163a57600080fd5b505af115801561164e573d6000803e3d6000fd5b5050505060008173ffffffffffffffffffffffffffffffffffffffff16600560008581526020019081526020016000206002015460405161168e906130fc565b60006040518083038185875af1925050503d80600081146116cb576040519150601f19603f3d011682016040523d82523d6000602084013e6116d0565b606091505b5050905080611714576040517f08c379a000000000000000000000000000000000000000000000000000000000815260040161170b906133a1565b60405180910390fd5b7ff2d297eac80d2d16471c4d7e861e173d751386a6667de8ed5c0eea80959dda108333604051611745929190613421565b60405180910390a15050600160008190555050565b3373ffffffffffffffffffffffffffffffffffffffff166005600085815260200190815260200160002060010160009054906101000a900473ffffffffffffffffffffffffffffffffffffffff1673ffffffffffffffffffffffffffffffffffffffff16636352211e60056000878152602001908152602001600020600001546040518263ffffffff1660e01b81526004016117f691906135f5565b60206040518083038186803b15801561180e57600080fd5b505afa158015611822573d6000803e3d6000fd5b505050506040513d601f19601f820116820180604052508101906118469190612978565b73ffffffffffffffffffffffffffffffffffffffff161461189c576040517f08c379a000000000000000000000000000000000000000000000000000000000815260040161189390613519565b60405180910390fd5b6005600084815260200190815260200160002060060160159054906101000a900460ff166118ff576040517f08c379a00000000000000000000000000000000000000000000000000000000081526004016118f6906135d5565b60405180910390fd5b816005600085815260200190815260200160002060040181905550806005600085815260200190815260200160002060050181905550505050565b60606004805480602002602001604051908101604052809291908181526020016000905b82821015611b7b57838290600052602060002090600502016040518060a00160405290816000820160009054906101000a900473ffffffffffffffffffffffffffffffffffffffff1673ffffffffffffffffffffffffffffffffffffffff1673ffffffffffffffffffffffffffffffffffffffff1681526020016001820160009054906101000a900473ffffffffffffffffffffffffffffffffffffffff1673ffffffffffffffffffffffffffffffffffffffff1673ffffffffffffffffffffffffffffffffffffffff168152602001600282018054611a3d90613893565b80601f0160208091040260200160405190810160405280929190818152602001828054611a6990613893565b8015611ab65780601f10611a8b57610100808354040283529160200191611ab6565b820191906000526020600020905b815481529060010190602001808311611a9957829003601f168201915b50505050508152602001600382018054611acf90613893565b80601f0160208091040260200160405190810160405280929190818152602001828054611afb90613893565b8015611b485780601f10611b1d57610100808354040283529160200191611b48565b820191906000526020600020905b815481529060010190602001808311611b2b57829003601f168201915b505050505081526020016004820160009054906101000a900460ff1615151515815250508152602001906001019061195e565b50505050905090565b6000600480549050905090565b6000811415611bd5576040517f08c379a0000000000000000000000000000000000000000000000000000000008152600401611bcc90613401565b60405180910390fd5b3373ffffffffffffffffffffffffffffffffffffffff166005600084815260200190815260200160002060010160009054906101000a900473ffffffffffffffffffffffffffffffffffffffff1673ffffffffffffffffffffffffffffffffffffffff16636352211e60056000868152602001908152602001600020600001546040518263ffffffff1660e01b8152600401611c7191906135f5565b60206040518083038186803b158015611c8957600080fd5b505afa158015611c9d573d6000803e3d6000fd5b505050506040513d601f19601f82011682018060405250810190611cc19190612978565b73ffffffffffffffffffffffffffffffffffffffff1614611d17576040517f08c379a0000000000000000000000000000000000000000000000000000000008152600401611d0e90613519565b60405180910390fd5b80600560008481526020019081526020016000206002018190555060016005600084815260200190815260200160002060060160146101000a81548160ff0219169083151502179055507ff2d297eac80d2d16471c4d7e861e173d751386a6667de8ed5c0eea80959dda108233604051611d92929190613365565b60405180910390a15050565b60018060000154905081565b60056020528060005260406000206000915090508060000154908060010160009054906101000a900473ffffffffffffffffffffffffffffffffffffffff16908060020154908060030154908060040154908060050154908060060160009054906101000a900473ffffffffffffffffffffffffffffffffffffffff16908060060160149054906101000a900460ff16908060060160159054906101000a900460ff16905089565b600080600260009054906101000a900473ffffffffffffffffffffffffffffffffffffffff1673ffffffffffffffffffffffffffffffffffffffff16637ffea011898933876040518563ffffffff1660e01b8152600401611eb6949392919061325a565b6040805180830381600087803b158015611ecf57600080fd5b505af1158015611ee3573d6000803e3d6000fd5b505050506040513d601f19601f82011682018060405250810190611f0791906129a1565b9150915080611f4b576040517f08c379a0000000000000000000000000000000000000000000000000000000008152600401611f42906133c1565b60405180910390fd5b60046040518060a001604052808473ffffffffffffffffffffffffffffffffffffffff1681526020013373ffffffffffffffffffffffffffffffffffffffff16815260200188888080601f016020809104026020016040519081016040528093929190818152602001838380828437600081840152601f19601f820116905080830192505050505050508152602001868152602001851515815250908060018154018082558091505060019003906000526020600020906005020160009091909190915060008201518160000160006101000a81548173ffffffffffffffffffffffffffffffffffffffff021916908373ffffffffffffffffffffffffffffffffffffffff16021790555060208201518160010160006101000a81548173ffffffffffffffffffffffffffffffffffffffff021916908373ffffffffffffffffffffffffffffffffffffffff16021790555060408201518160020190805190602001906120b99291906127a5565b5060608201518160030190805190602001906120d69291906127a5565b5060808201518160040160006101000a81548160ff02191690831515021790555050507f7a2eb8f39b8a781cd83c1b46630618f9cac4768ce34adb76d0ef41f659170a04823360405161212a92919061312c565b60405180910390a15050505050505050565b6000600560008381526020019081526020016000206004015411612195576040517f08c379a000000000000000000000000000000000000000000000000000000000815260040161218c90613499565b60405180910390fd5b600073ffffffffffffffffffffffffffffffffffffffff166005600083815260200190815260200160002060010160009054906101000a900473ffffffffffffffffffffffffffffffffffffffff1673ffffffffffffffffffffffffffffffffffffffff1663c2f1f14a60056000858152602001908152602001600020600001546040518263ffffffff1660e01b815260040161223291906135f5565b60206040518083038186803b15801561224a57600080fd5b505afa15801561225e573d6000803e3d6000fd5b505050506040513d601f19601f820116820180604052508101906122829190612978565b73ffffffffffffffffffffffffffffffffffffffff16146122d8576040517f08c379a00000000000000000000000000000000000000000000000000000000081526004016122cf906132cd565b60405180910390fd5b6005600082815260200190815260200160002060010160009054906101000a900473ffffffffffffffffffffffffffffffffffffffff1673ffffffffffffffffffffffffffffffffffffffff1663e030565e60056000848152602001908152602001600020600001543360056000868152602001908152602001600020600501546040518463ffffffff1660e01b815260040161237793929190613610565b600060405180830381600087803b15801561239157600080fd5b505af11580156123a5573d6000803e3d6000fd5b5050505060006005600083815260200190815260200160002060010160009054906101000a900473ffffffffffffffffffffffffffffffffffffffff1673ffffffffffffffffffffffffffffffffffffffff16636352211e60056000858152602001908152602001600020600001546040518263ffffffff1660e01b815260040161243091906135f5565b60206040518083038186803b15801561244857600080fd5b505afa15801561245c573d6000803e3d6000fd5b505050506040513d601f19601f820116820180604052508101906124809190612978565b73ffffffffffffffffffffffffffffffffffffffff16346040516124a3906130fc565b60006040518083038185875af1925050503d80600081146124e0576040519150601f19603f3d011682016040523d82523d6000602084013e6124e5565b606091505b5050905080612529576040517f08c379a0000000000000000000000000000000000000000000000000000000008152600401612520906133a1565b60405180910390fd5b5050565b6004818154811061253d57600080fd5b90600052602060002090600502016000915090508060000160009054906101000a900473ffffffffffffffffffffffffffffffffffffffff16908060010160009054906101000a900473ffffffffffffffffffffffffffffffffffffffff16908060020180546125ac90613893565b80601f01602080910402602001604051908101604052809291908181526020018280546125d890613893565b80156126255780601f106125fa57610100808354040283529160200191612625565b820191906000526020600020905b81548152906001019060200180831161260857829003601f168201915b50505050509080600301805461263a90613893565b80601f016020809104026020016040519081016040528092919081815260200182805461266690613893565b80156126b35780601f10612688576101008083540402835291602001916126b3565b820191906000526020600020905b81548152906001019060200180831161269657829003601f168201915b5050505050908060040160009054906101000a900460ff16905085565b600081600001549050919050565b6001816000016000828254019250508190555050565b60008273ffffffffffffffffffffffffffffffffffffffff168260405161271a906130fc565b60006040518083038185875af1925050503d8060008114612757576040519150601f19603f3d011682016040523d82523d6000602084013e61275c565b606091505b50509050806127a0576040517f08c379a0000000000000000000000000000000000000000000000000000000008152600401612797906133a1565b60405180910390fd5b505050565b8280546127b190613893565b90600052602060002090601f0160209004810192826127d3576000855561281a565b82601f106127ec57805160ff191683800117855561281a565b8280016001018555821561281a579182015b828111156128195782518255916020019190600101906127fe565b5b509050612827919061282b565b5090565b5b8082111561284457600081600090555060010161282c565b5090565b600061285b612856846136f9565b6136d4565b90508281526020810184848401111561287357600080fd5b61287e848285613851565b509392505050565b60008151905061289581613dcf565b92915050565b6000813590506128aa81613de6565b92915050565b6000815190506128bf81613de6565b92915050565b6000815190506128d481613dfd565b92915050565b60008083601f8401126128ec57600080fd5b8235905067ffffffffffffffff81111561290557600080fd5b60208301915083600182028301111561291d57600080fd5b9250929050565b600082601f83011261293557600080fd5b8135612945848260208601612848565b91505092915050565b60008135905061295d81613e14565b92915050565b60008151905061297281613e14565b92915050565b60006020828403121561298a57600080fd5b600061299884828501612886565b91505092915050565b600080604083850312156129b457600080fd5b60006129c2858286016128c5565b92505060206129d3858286016128b0565b9150509250929050565b60008060008060008060a087890312156129f657600080fd5b600087013567ffffffffffffffff811115612a1057600080fd5b612a1c89828a01612924565b965050602087013567ffffffffffffffff811115612a3957600080fd5b612a4589828a01612924565b955050604087013567ffffffffffffffff811115612a6257600080fd5b612a6e89828a016128da565b9450945050606087013567ffffffffffffffff811115612a8d57600080fd5b612a9989828a01612924565b9250506080612aaa89828a0161289b565b9150509295509295509295565b600060208284031215612ac957600080fd5b6000612ad78482850161294e565b91505092915050565b60008060408385031215612af357600080fd5b6000612b0185828601612963565b9250506020612b12858286016128b0565b9150509250929050565b60008060408385031215612b2f57600080fd5b6000612b3d8582860161294e565b925050602083013567ffffffffffffffff811115612b5a57600080fd5b612b6685828601612924565b9150509250929050565b60008060408385031215612b8357600080fd5b6000612b918582860161294e565b9250506020612ba28582860161294e565b9150509250929050565b600080600060608486031215612bc157600080fd5b6000612bcf8682870161294e565b9350506020612be08682870161294e565b9250506040612bf18682870161294e565b9150509250925092565b6000612c078383613061565b905092915050565b612c188161379b565b82525050565b612c278161379b565b82525050565b6000612c388261373a565b612c42818561375d565b935083602082028501612c548561372a565b8060005b85811015612c905784840389528151612c718582612bfb565b9450612c7c83613750565b925060208a01995050600181019050612c58565b50829750879550505050505092915050565b612cab816137ad565b82525050565b612cba816137ad565b82525050565b612cc981613809565b82525050565b612cd881613809565b82525050565b612ce78161382d565b82525050565b6000612cf882613745565b612d028185613779565b9350612d12818560208601613860565b612d1b81613954565b840191505092915050565b6000612d3182613745565b612d3b818561378a565b9350612d4b818560208601613860565b612d5481613954565b840191505092915050565b6000612d6c60238361378a565b9150612d7782613965565b604082019050919050565b6000612d8f602a8361378a565b9150612d9a826139b4565b604082019050919050565b6000612db260098361378a565b9150612dbd82613a03565b602082019050919050565b6000612dd560048361378a565b9150612de082613a2c565b602082019050919050565b6000612df860048361378a565b9150612e0382613a55565b602082019050919050565b6000612e1b60198361378a565b9150612e2682613a7e565b602082019050919050565b6000612e3e601b8361378a565b9150612e4982613aa7565b602082019050919050565b6000612e6160298361378a565b9150612e6c82613ad0565b604082019050919050565b6000612e8460128361378a565b9150612e8f82613b1f565b602082019050919050565b6000612ea760038361378a565b9150612eb282613b48565b602082019050919050565b6000612eca60038361378a565b9150612ed582613b71565b602082019050919050565b6000612eed60238361378a565b9150612ef882613b9a565b604082019050919050565b6000612f1060228361378a565b9150612f1b82613be9565b604082019050919050565b6000612f3360118361378a565b9150612f3e82613c38565b602082019050919050565b6000612f5660108361378a565b9150612f6182613c61565b602082019050919050565b6000612f7960008361376e565b9150612f8482613c8a565b600082019050919050565b6000612f9c60158361378a565b9150612fa782613c8d565b602082019050919050565b6000612fbf602d8361378a565b9150612fca82613cb6565b604082019050919050565b6000612fe2600a8361378a565b9150612fed82613d05565b602082019050919050565b600061300560288361378a565b915061301082613d2e565b604082019050919050565b6000613028601f8361378a565b915061303382613d7d565b602082019050919050565b600061304b601a8361378a565b915061305682613da6565b602082019050919050565b600060a0830160008301516130796000860182612cc0565b50602083015161308c6020860182612c0f565b50604083015184820360408601526130a48282612ced565b915050606083015184820360608601526130be8282612ced565b91505060808301516130d36080860182612ca2565b508091505092915050565b6130e7816137eb565b82525050565b6130f6816137f5565b82525050565b600061310782612f6c565b9150819050919050565b60006020820190506131266000830184612c1e565b92915050565b60006040820190506131416000830185612c1e565b61314e6020830184612c1e565b9392505050565b600060608201905061316a6000830186612c1e565b6131776020830185612c1e565b61318460408301846130de565b949350505050565b600060208201905081810360008301526131a68184612c2d565b905092915050565b600060a0820190506131c36000830188612ccf565b6131d06020830187612c1e565b81810360408301526131e28186612d26565b905081810360608301526131f68185612d26565b90506132056080830184612cb1565b9695505050505050565b60006020820190506132246000830184612cde565b92915050565b600060408201905081810360008301526132448185612d26565b90506132536020830184612c1e565b9392505050565b600060808201905081810360008301526132748187612d26565b905081810360208301526132888186612d26565b90506132976040830185612c1e565b6132a46060830184612cb1565b95945050505050565b600060208201905081810360008301526132c681612d5f565b9050919050565b600060208201905081810360008301526132e681612d82565b9050919050565b6000606082019050818103600083015261330681612da5565b905061331560208301856130de565b6133226040830184612c1e565b9392505050565b6000606082019050818103600083015261334281612dc8565b905061335160208301856130de565b61335e6040830184612c1e565b9392505050565b6000606082019050818103600083015261337e81612deb565b905061338d60208301856130de565b61339a6040830184612c1e565b9392505050565b600060208201905081810360008301526133ba81612e0e565b9050919050565b600060208201905081810360008301526133da81612e31565b9050919050565b600060208201905081810360008301526133fa81612e54565b9050919050565b6000602082019050818103600083015261341a81612e77565b9050919050565b6000606082019050818103600083015261343a81612e9a565b905061344960208301856130de565b6134566040830184612c1e565b9392505050565b6000606082019050818103600083015261347681612ebd565b905061348560208301856130de565b6134926040830184612c1e565b9392505050565b600060208201905081810360008301526134b281612ee0565b9050919050565b600060208201905081810360008301526134d281612f03565b9050919050565b600060208201905081810360008301526134f281612f26565b9050919050565b6000602082019050818103600083015261351281612f49565b9050919050565b6000602082019050818103600083015261353281612f8f565b9050919050565b6000602082019050818103600083015261355281612fb2565b9050919050565b6000606082019050818103600083015261357281612fd5565b905061358160208301856130de565b61358e6040830184612c1e565b9392505050565b600060208201905081810360008301526135ae81612ff8565b9050919050565b600060208201905081810360008301526135ce8161301b565b9050919050565b600060208201905081810360008301526135ee8161303e565b9050919050565b600060208201905061360a60008301846130de565b92915050565b600060608201905061362560008301866130de565b6136326020830185612c1e565b61363f60408301846130ed565b949350505050565b60006101208201905061365d600083018c6130de565b61366a602083018b612ccf565b613677604083018a6130de565b61368460608301896130de565b61369160808301886130de565b61369e60a08301876130de565b6136ab60c0830186612c1e565b6136b860e0830185612cb1565b6136c6610100830184612cb1565b9a9950505050505050505050565b60006136de6136ef565b90506136ea82826138c5565b919050565b6000604051905090565b600067ffffffffffffffff82111561371457613713613925565b5b61371d82613954565b9050602081019050919050565b6000819050602082019050919050565b600081519050919050565b600081519050919050565b6000602082019050919050565b600082825260208201905092915050565b600081905092915050565b600082825260208201905092915050565b600082825260208201905092915050565b60006137a6826137cb565b9050919050565b60008115159050919050565b60006137c48261379b565b9050919050565b600073ffffffffffffffffffffffffffffffffffffffff82169050919050565b6000819050919050565b600067ffffffffffffffff82169050919050565b60006138148261381b565b9050919050565b6000613826826137cb565b9050919050565b60006138388261383f565b9050919050565b600061384a826137cb565b9050919050565b82818337600083830152505050565b60005b8381101561387e578082015181840152602081019050613863565b8381111561388d576000848401525b50505050565b600060028204905060018216806138ab57607f821691505b602082108114156138bf576138be6138f6565b5b50919050565b6138ce82613954565b810181811067ffffffffffffffff821117156138ed576138ec613925565b5b80604052505050565b7f4e487b7100000000000000000000000000000000000000000000000000000000600052602260045260246000fd5b7f4e487b7100000000000000000000000000000000000000000000000000000000600052604160045260246000fd5b6000601f19601f8301169050919050565b7f4e6f20626964732068617665206265656e206d616465206f6e2074686174206e60008201527f66742e0000000000000000000000000000000000000000000000000000000000602082015250565b7f4e46542049732063757272656e746c792072656e74656420746f20616e6f746860008201527f657220706572736f6e2e00000000000000000000000000000000000000000000602082015250565b7f4163636570744269640000000000000000000000000000000000000000000000600082015250565b7f4d696e7400000000000000000000000000000000000000000000000000000000600082015250565b7f53656c6c00000000000000000000000000000000000000000000000000000000600082015250565b7f556e61626c6520746f207472616e736665722066756e64732e00000000000000600082015250565b7f436f6c6c656374696f6e206372656174696f6e206661696c65642e0000000000600082015250565b7f596f7520617265206e6f7420746865206f776e6572206f66207468697320636f60008201527f6c6c656374696f6e2e0000000000000000000000000000000000000000000000602082015250565b7f50726963652063616e6e6f7420626520302e0000000000000000000000000000600082015250565b7f4275790000000000000000000000000000000000000000000000000000000000600082015250565b7f4269640000000000000000000000000000000000000000000000000000000000600082015250565b7f54686973204e46542069732063757272656e746c79206e6f7420666f7220726560008201527f6e742e0000000000000000000000000000000000000000000000000000000000602082015250565b7f596f7520617265206e6f7420746865206f776e6572206f662074686973204e4660008201527f542e000000000000000000000000000000000000000000000000000000000000602082015250565b7f4e4654204e6f7420666f722073656c6c2e000000000000000000000000000000600082015250565b7f4e4654204d696e74206661696c65642e00000000000000000000000000000000600082015250565b50565b7f54686973206973206e6f7420796f7572204e46542e0000000000000000000000600082015250565b7f596f757220626964206d75737420626520626967676572207468616e2074686560008201527f2063757272656e74206f6e652e00000000000000000000000000000000000000602082015250565b7f43616e63656c53656c6c00000000000000000000000000000000000000000000600082015250565b7f5375626d697474656420707269636520646f65736e2774206d61746368206e6660008201527f742070726963652e000000000000000000000000000000000000000000000000602082015250565b7f5265656e7472616e637947756172643a207265656e7472616e742063616c6c00600082015250565b7f54686973204e46542063616e6e6f742062652072656e7465642e000000000000600082015250565b613dd88161379b565b8114613de357600080fd5b50565b613def816137ad565b8114613dfa57600080fd5b50565b613e06816137b9565b8114613e1157600080fd5b50565b613e1d816137eb565b8114613e2857600080fd5b5056fea264697066735822122029caa2aa779d62db915528126618ee2960660b85f4f35e3f4e07be307be1930164736f6c6343000804003360c060405234801561001057600080fd5b5060405161001d906100d4565b604051809103906000f080158015610039573d6000803e3d6000fd5b5073ffffffffffffffffffffffffffffffffffffffff1660808173ffffffffffffffffffffffffffffffffffffffff1660601b8152505060405161007c906100e1565b604051809103906000f080158015610098573d6000803e3d6000fd5b5073ffffffffffffffffffffffffffffffffffffffff1660a08173ffffffffffffffffffffffffffffffffffffffff1660601b815250506100ee565b6130158061098183390190565b6136468061399683390190565b60805160601c60a05160601c61085b6101266000396000818160de01526102510152600081816101930152610281015261085b6000f3fe608060405234801561001057600080fd5b506004361061004c5760003560e01c806302f9fc60146100515780637ffea0111461006f578063e6a8ee4f146100a0578063ec2adb4b146100be575b600080fd5b6100596100dc565b604051610066919061060f565b60405180910390f35b61008960048036038101906100849190610472565b610100565b60405161009792919061064c565b60405180910390f35b6100a8610191565b6040516100b5919061060f565b60405180910390f35b6100c66101b5565b6040516100d3919061062a565b60405180910390f35b7f000000000000000000000000000000000000000000000000000000000000000081565b6000806000610113898989898989610243565b905060008190506000819080600181540180825580915050600190039060005260206000200160009091909190916101000a81548173ffffffffffffffffffffffffffffffffffffffff021916908373ffffffffffffffffffffffffffffffffffffffff160217905550809350600192505050965096945050505050565b7f000000000000000000000000000000000000000000000000000000000000000081565b6060600080548060200260200160405190810160405280929190818152602001828054801561023957602002820191906000526020600020905b8160009054906101000a900473ffffffffffffffffffffffffffffffffffffffff1673ffffffffffffffffffffffffffffffffffffffff16815260200190600101908083116101ef575b5050505050905090565b600080821561027c576102757f0000000000000000000000000000000000000000000000000000000000000000610329565b90506102a8565b6102a57f0000000000000000000000000000000000000000000000000000000000000000610329565b90505b8073ffffffffffffffffffffffffffffffffffffffff1663077f224a89898989896040518663ffffffff1660e01b81526004016102e9959493929190610675565b600060405180830381600087803b15801561030357600080fd5b505af1158015610317573d6000803e3d6000fd5b50505050809150509695505050505050565b60006040517f3d602d80600a3d3981f3363d3d373d3d3d363d7300000000000000000000000081528260601b60148201527f5af43d82803e903d91602b57fd5bf3000000000000000000000000000000000060288201526037816000f0915050600073ffffffffffffffffffffffffffffffffffffffff168173ffffffffffffffffffffffffffffffffffffffff1614156103f9576040517f08c379a00000000000000000000000000000000000000000000000000000000081526004016103f0906106be565b60405180910390fd5b919050565b60008135905061040d816107f7565b92915050565b6000813590506104228161080e565b92915050565b60008083601f84011261043a57600080fd5b8235905067ffffffffffffffff81111561045357600080fd5b60208301915083600182028301111561046b57600080fd5b9250929050565b6000806000806000806080878903121561048b57600080fd5b600087013567ffffffffffffffff8111156104a557600080fd5b6104b189828a01610428565b9650965050602087013567ffffffffffffffff8111156104d057600080fd5b6104dc89828a01610428565b945094505060406104ef89828a016103fe565b925050606061050089828a01610413565b9150509295509295509295565b600061051983836105b0565b60208301905092915050565b61052e81610728565b82525050565b600061053f826106ee565b6105498185610706565b9350610554836106de565b8060005b8381101561058557815161056c888261050d565b9750610577836106f9565b925050600181019050610558565b5085935050505092915050565b61059b8161073a565b82525050565b6105aa81610766565b82525050565b6105b98161078a565b82525050565b60006105cb8385610717565b93506105d88385846107ae565b6105e1836107bd565b840190509392505050565b60006105f9601683610717565b9150610604826107ce565b602082019050919050565b60006020820190506106246000830184610525565b92915050565b600060208201905081810360008301526106448184610534565b905092915050565b600060408201905061066160008301856105a1565b61066e6020830184610592565b9392505050565b600060608201905081810360008301526106908187896105bf565b905081810360208301526106a58185876105bf565b90506106b46040830184610525565b9695505050505050565b600060208201905081810360008301526106d7816105ec565b9050919050565b6000819050602082019050919050565b600081519050919050565b6000602082019050919050565b600082825260208201905092915050565b600082825260208201905092915050565b600061073382610746565b9050919050565b60008115159050919050565b600073ffffffffffffffffffffffffffffffffffffffff82169050919050565b600061077182610778565b9050919050565b600061078382610746565b9050919050565b60006107958261079c565b9050919050565b60006107a782610746565b9050919050565b82818337600083830152505050565b6000601f19601f8301169050919050565b7f455243313136373a20637265617465206661696c656400000000000000000000600082015250565b61080081610728565b811461080b57600080fd5b50565b6108178161073a565b811461082257600080fd5b5056fea2646970667358221220c7f66d52b3d6d41aaecb2165d65279e072f996b3d045cb3a3bc502677ae0675064736f6c63430008040033608060405234801561001057600080fd5b50612ff5806100206000396000f3fe608060405234801561001057600080fd5b506004361061010b5760003560e01c80636352211e116100a25780639f181b5e116100715780639f181b5e146102cb578063a22cb465146102e9578063b88d4fde14610305578063c87b56dd14610321578063e985e9c5146103515761010b565b80636352211e1461022f57806370a082311461025f5780638da5cb5b1461028f57806395d89b41146102ad5761010b565b8063095ea7b3116100de578063095ea7b3146101aa5780631c351a9d146101c657806323b872dd146101f757806342842e0e146102135761010b565b806301ffc9a71461011057806306fdde0314610140578063077f224a1461015e578063081812fc1461017a575b600080fd5b61012a60048036038101906101259190612012565b610381565b60405161013791906124e5565b60405180910390f35b610148610463565b604051610155919061251b565b60405180910390f35b610178600480360381019061017391906120bc565b6104f5565b005b610194600480360381019061018f9190612145565b610703565b6040516101a1919061247e565b60405180910390f35b6101c460048036038101906101bf9190611fd6565b610749565b005b6101e060048036038101906101db9190612064565b610861565b6040516101ee929190612738565b60405180910390f35b610211600480360381019061020c9190611ed0565b610980565b005b61022d60048036038101906102289190611ed0565b6109e0565b005b61024960048036038101906102449190612145565b610a00565b604051610256919061247e565b60405180910390f35b61027960048036038101906102749190611e6b565b610ab2565b604051610286919061271d565b60405180910390f35b610297610b6a565b6040516102a4919061247e565b60405180910390f35b6102b5610b90565b6040516102c2919061251b565b60405180910390f35b6102d3610c22565b6040516102e0919061271d565b60405180910390f35b61030360048036038101906102fe9190611f9a565b610c2e565b005b61031f600480360381019061031a9190611f1f565b610c44565b005b61033b60048036038101906103369190612145565b610ca6565b604051610348919061251b565b60405180910390f35b61036b60048036038101906103669190611e94565b610db9565b60405161037891906124e5565b60405180910390f35b60007f80ac58cd000000000000000000000000000000000000000000000000000000007bffffffffffffffffffffffffffffffffffffffffffffffffffffffff1916827bffffffffffffffffffffffffffffffffffffffffffffffffffffffff1916148061044c57507f5b5e139f000000000000000000000000000000000000000000000000000000007bffffffffffffffffffffffffffffffffffffffffffffffffffffffff1916827bffffffffffffffffffffffffffffffffffffffffffffffffffffffff1916145b8061045c575061045b82610e4d565b5b9050919050565b6060606580546104729061298a565b80601f016020809104026020016040519081016040528092919081815260200182805461049e9061298a565b80156104eb5780601f106104c0576101008083540402835291602001916104eb565b820191906000526020600020905b8154815290600101906020018083116104ce57829003601f168201915b5050505050905090565b60008060019054906101000a900460ff161590508080156105265750600160008054906101000a900460ff1660ff16105b80610553575061053530610eb7565b1580156105525750600160008054906101000a900460ff1660ff16145b5b610592576040517f08c379a00000000000000000000000000000000000000000000000000000000081526004016105899061261d565b60405180910390fd5b60016000806101000a81548160ff021916908360ff16021790555080156105cf576001600060016101000a81548160ff0219169083151502179055505b61066186868080601f016020809104026020016040519081016040528093929190818152602001838380828437600081840152601f19601f8201169050808301925050505050505085858080601f016020809104026020016040519081016040528093929190818152602001838380828437600081840152601f19601f82011690508083019250505050505050610eda565b8160ca60006101000a81548173ffffffffffffffffffffffffffffffffffffffff021916908373ffffffffffffffffffffffffffffffffffffffff16021790555080156106fb5760008060016101000a81548160ff0219169083151502179055507f7f26b83ff96e1f2b6a682f133852f6798a09c465da95921460cefb384740249860016040516106f29190612500565b60405180910390a15b505050505050565b600061070e82610f37565b6069600083815260200190815260200160002060009054906101000a900473ffffffffffffffffffffffffffffffffffffffff169050919050565b600061075482610a00565b90508073ffffffffffffffffffffffffffffffffffffffff168373ffffffffffffffffffffffffffffffffffffffff1614156107c5576040517f08c379a00000000000000000000000000000000000000000000000000000000081526004016107bc906126bd565b60405180910390fd5b8073ffffffffffffffffffffffffffffffffffffffff166107e4610f82565b73ffffffffffffffffffffffffffffffffffffffff16148061081357506108128161080d610f82565b610db9565b5b610852576040517f08c379a00000000000000000000000000000000000000000000000000000000081526004016108499061263d565b60405180910390fd5b61085c8383610f8a565b505050565b60008060ca60009054906101000a900473ffffffffffffffffffffffffffffffffffffffff1673ffffffffffffffffffffffffffffffffffffffff163273ffffffffffffffffffffffffffffffffffffffff16146108f4576040517f08c379a00000000000000000000000000000000000000000000000000000000081526004016108eb9061267d565b60405180910390fd5b6108fe60c9611043565b6109118361090c60c9611059565b611067565b61096861091e60c9611059565b86868080601f016020809104026020016040519081016040528093929190818152602001838380828437600081840152601f19601f82011690508083019250505050505050611085565b61097260c9611059565b915060019050935093915050565b61099161098b610f82565b826110f9565b6109d0576040517f08c379a00000000000000000000000000000000000000000000000000000000081526004016109c7906126fd565b60405180910390fd5b6109db83838361118e565b505050565b6109fb83838360405180602001604052806000815250610c44565b505050565b6000806067600084815260200190815260200160002060009054906101000a900473ffffffffffffffffffffffffffffffffffffffff169050600073ffffffffffffffffffffffffffffffffffffffff168173ffffffffffffffffffffffffffffffffffffffff161415610aa9576040517f08c379a0000000000000000000000000000000000000000000000000000000008152600401610aa09061269d565b60405180910390fd5b80915050919050565b60008073ffffffffffffffffffffffffffffffffffffffff168273ffffffffffffffffffffffffffffffffffffffff161415610b23576040517f08c379a0000000000000000000000000000000000000000000000000000000008152600401610b1a906125dd565b60405180910390fd5b606860008373ffffffffffffffffffffffffffffffffffffffff1673ffffffffffffffffffffffffffffffffffffffff168152602001908152602001600020549050919050565b60ca60009054906101000a900473ffffffffffffffffffffffffffffffffffffffff1681565b606060668054610b9f9061298a565b80601f0160208091040260200160405190810160405280929190818152602001828054610bcb9061298a565b8015610c185780601f10610bed57610100808354040283529160200191610c18565b820191906000526020600020905b815481529060010190602001808311610bfb57829003601f168201915b5050505050905090565b60c98060000154905081565b610c40610c39610f82565b83836113f5565b5050565b610c55610c4f610f82565b836110f9565b610c94576040517f08c379a0000000000000000000000000000000000000000000000000000000008152600401610c8b906126fd565b60405180910390fd5b610ca084848484611562565b50505050565b6060610cb182610f37565b6000609760008481526020019081526020016000208054610cd19061298a565b80601f0160208091040260200160405190810160405280929190818152602001828054610cfd9061298a565b8015610d4a5780601f10610d1f57610100808354040283529160200191610d4a565b820191906000526020600020905b815481529060010190602001808311610d2d57829003601f168201915b505050505090506000610d5b6115be565b9050600081511415610d71578192505050610db4565b600082511115610da6578082604051602001610d8e92919061245a565b60405160208183030381529060405292505050610db4565b610daf846115d5565b925050505b919050565b6000606a60008473ffffffffffffffffffffffffffffffffffffffff1673ffffffffffffffffffffffffffffffffffffffff16815260200190815260200160002060008373ffffffffffffffffffffffffffffffffffffffff1673ffffffffffffffffffffffffffffffffffffffff16815260200190815260200160002060009054906101000a900460ff16905092915050565b60007f01ffc9a7000000000000000000000000000000000000000000000000000000007bffffffffffffffffffffffffffffffffffffffffffffffffffffffff1916827bffffffffffffffffffffffffffffffffffffffffffffffffffffffff1916149050919050565b6000808273ffffffffffffffffffffffffffffffffffffffff163b119050919050565b600060019054906101000a900460ff16610f29576040517f08c379a0000000000000000000000000000000000000000000000000000000008152600401610f20906126dd565b60405180910390fd5b610f33828261163d565b5050565b610f40816116be565b610f7f576040517f08c379a0000000000000000000000000000000000000000000000000000000008152600401610f769061269d565b60405180910390fd5b50565b600033905090565b816069600083815260200190815260200160002060006101000a81548173ffffffffffffffffffffffffffffffffffffffff021916908373ffffffffffffffffffffffffffffffffffffffff160217905550808273ffffffffffffffffffffffffffffffffffffffff16610ffd83610a00565b73ffffffffffffffffffffffffffffffffffffffff167f8c5be1e5ebec7d5bd14f71427d1e84f3dd0314c0f7b2291e5b200ac8c7c3b92560405160405180910390a45050565b6001816000016000828254019250508190555050565b600081600001549050919050565b61108182826040518060200160405280600081525061172a565b5050565b61108e826116be565b6110cd576040517f08c379a00000000000000000000000000000000000000000000000000000000081526004016110c4906125fd565b60405180910390fd5b806097600084815260200190815260200160002090805190602001906110f4929190611cad565b505050565b60008061110583610a00565b90508073ffffffffffffffffffffffffffffffffffffffff168473ffffffffffffffffffffffffffffffffffffffff16148061114757506111468185610db9565b5b8061118557508373ffffffffffffffffffffffffffffffffffffffff1661116d84610703565b73ffffffffffffffffffffffffffffffffffffffff16145b91505092915050565b8273ffffffffffffffffffffffffffffffffffffffff166111ae82610a00565b73ffffffffffffffffffffffffffffffffffffffff1614611204576040517f08c379a00000000000000000000000000000000000000000000000000000000081526004016111fb9061255d565b60405180910390fd5b600073ffffffffffffffffffffffffffffffffffffffff168273ffffffffffffffffffffffffffffffffffffffff161415611274576040517f08c379a000000000000000000000000000000000000000000000000000000000815260040161126b9061259d565b60405180910390fd5b61127f838383611785565b61128a600082610f8a565b6001606860008573ffffffffffffffffffffffffffffffffffffffff1673ffffffffffffffffffffffffffffffffffffffff16815260200190815260200160002060008282546112da9190612881565b925050819055506001606860008473ffffffffffffffffffffffffffffffffffffffff1673ffffffffffffffffffffffffffffffffffffffff168152602001908152602001600020600082825461133191906127fa565b92505081905550816067600083815260200190815260200160002060006101000a81548173ffffffffffffffffffffffffffffffffffffffff021916908373ffffffffffffffffffffffffffffffffffffffff160217905550808273ffffffffffffffffffffffffffffffffffffffff168473ffffffffffffffffffffffffffffffffffffffff167fddf252ad1be2c89b69c2b068fc378daa952ba7f163c4a11628f55a4df523b3ef60405160405180910390a46113f083838361178a565b505050565b8173ffffffffffffffffffffffffffffffffffffffff168373ffffffffffffffffffffffffffffffffffffffff161415611464576040517f08c379a000000000000000000000000000000000000000000000000000000000815260040161145b906125bd565b60405180910390fd5b80606a60008573ffffffffffffffffffffffffffffffffffffffff1673ffffffffffffffffffffffffffffffffffffffff16815260200190815260200160002060008473ffffffffffffffffffffffffffffffffffffffff1673ffffffffffffffffffffffffffffffffffffffff16815260200190815260200160002060006101000a81548160ff0219169083151502179055508173ffffffffffffffffffffffffffffffffffffffff168373ffffffffffffffffffffffffffffffffffffffff167f17307eab39ab6107e8899845ad3d59bd9653f200f220920489ca2b5937696c318360405161155591906124e5565b60405180910390a3505050565b61156d84848461118e565b6115798484848461178f565b6115b8576040517f08c379a00000000000000000000000000000000000000000000000000000000081526004016115af9061253d565b60405180910390fd5b50505050565b606060405180602001604052806000815250905090565b60606115e082610f37565b60006115ea6115be565b9050600081511161160a5760405180602001604052806000815250611635565b8061161484611926565b60405160200161162592919061245a565b6040516020818303038152906040525b915050919050565b600060019054906101000a900460ff1661168c576040517f08c379a0000000000000000000000000000000000000000000000000000000008152600401611683906126dd565b60405180910390fd5b81606590805190602001906116a2929190611cad565b5080606690805190602001906116b9929190611cad565b505050565b60008073ffffffffffffffffffffffffffffffffffffffff166067600084815260200190815260200160002060009054906101000a900473ffffffffffffffffffffffffffffffffffffffff1673ffffffffffffffffffffffffffffffffffffffff1614159050919050565b6117348383611ad3565b611741600084848461178f565b611780576040517f08c379a00000000000000000000000000000000000000000000000000000000081526004016117779061253d565b60405180910390fd5b505050565b505050565b505050565b60006117b08473ffffffffffffffffffffffffffffffffffffffff16610eb7565b15611919578373ffffffffffffffffffffffffffffffffffffffff1663150b7a026117d9610f82565b8786866040518563ffffffff1660e01b81526004016117fb9493929190612499565b602060405180830381600087803b15801561181557600080fd5b505af192505050801561184657506040513d601f19601f82011682018060405250810190611843919061203b565b60015b6118c9573d8060008114611876576040519150601f19603f3d011682016040523d82523d6000602084013e61187b565b606091505b506000815114156118c1576040517f08c379a00000000000000000000000000000000000000000000000000000000081526004016118b89061253d565b60405180910390fd5b805181602001fd5b63150b7a0260e01b7bffffffffffffffffffffffffffffffffffffffffffffffffffffffff1916817bffffffffffffffffffffffffffffffffffffffffffffffffffffffff19161491505061191e565b600190505b949350505050565b6060600082141561196e576040518060400160405280600181526020017f30000000000000000000000000000000000000000000000000000000000000008152509050611ace565b600082905060005b600082146119a0578080611989906129ed565b915050600a826119999190612850565b9150611976565b60008167ffffffffffffffff8111156119e2577f4e487b7100000000000000000000000000000000000000000000000000000000600052604160045260246000fd5b6040519080825280601f01601f191660200182016040528015611a145781602001600182028036833780820191505090505b5090505b60008514611ac757600182611a2d9190612881565b9150600a85611a3c9190612a36565b6030611a4891906127fa565b60f81b818381518110611a84577f4e487b7100000000000000000000000000000000000000000000000000000000600052603260045260246000fd5b60200101907effffffffffffffffffffffffffffffffffffffffffffffffffffffffffffff1916908160001a905350600a85611ac09190612850565b9450611a18565b8093505050505b919050565b600073ffffffffffffffffffffffffffffffffffffffff168273ffffffffffffffffffffffffffffffffffffffff161415611b43576040517f08c379a0000000000000000000000000000000000000000000000000000000008152600401611b3a9061265d565b60405180910390fd5b611b4c816116be565b15611b8c576040517f08c379a0000000000000000000000000000000000000000000000000000000008152600401611b839061257d565b60405180910390fd5b611b9860008383611785565b6001606860008473ffffffffffffffffffffffffffffffffffffffff1673ffffffffffffffffffffffffffffffffffffffff1681526020019081526020016000206000828254611be891906127fa565b92505081905550816067600083815260200190815260200160002060006101000a81548173ffffffffffffffffffffffffffffffffffffffff021916908373ffffffffffffffffffffffffffffffffffffffff160217905550808273ffffffffffffffffffffffffffffffffffffffff16600073ffffffffffffffffffffffffffffffffffffffff167fddf252ad1be2c89b69c2b068fc378daa952ba7f163c4a11628f55a4df523b3ef60405160405180910390a4611ca96000838361178a565b5050565b828054611cb99061298a565b90600052602060002090601f016020900481019282611cdb5760008555611d22565b82601f10611cf457805160ff1916838001178555611d22565b82800160010185558215611d22579182015b82811115611d21578251825591602001919060010190611d06565b5b509050611d2f9190611d33565b5090565b5b80821115611d4c576000816000905550600101611d34565b5090565b6000611d63611d5e84612786565b612761565b905082815260208101848484011115611d7b57600080fd5b611d86848285612948565b509392505050565b600081359050611d9d81612f63565b92915050565b600081359050611db281612f7a565b92915050565b600081359050611dc781612f91565b92915050565b600081519050611ddc81612f91565b92915050565b600082601f830112611df357600080fd5b8135611e03848260208601611d50565b91505092915050565b60008083601f840112611e1e57600080fd5b8235905067ffffffffffffffff811115611e3757600080fd5b602083019150836001820283011115611e4f57600080fd5b9250929050565b600081359050611e6581612fa8565b92915050565b600060208284031215611e7d57600080fd5b6000611e8b84828501611d8e565b91505092915050565b60008060408385031215611ea757600080fd5b6000611eb585828601611d8e565b9250506020611ec685828601611d8e565b9150509250929050565b600080600060608486031215611ee557600080fd5b6000611ef386828701611d8e565b9350506020611f0486828701611d8e565b9250506040611f1586828701611e56565b9150509250925092565b60008060008060808587031215611f3557600080fd5b6000611f4387828801611d8e565b9450506020611f5487828801611d8e565b9350506040611f6587828801611e56565b925050606085013567ffffffffffffffff811115611f8257600080fd5b611f8e87828801611de2565b91505092959194509250565b60008060408385031215611fad57600080fd5b6000611fbb85828601611d8e565b9250506020611fcc85828601611da3565b9150509250929050565b60008060408385031215611fe957600080fd5b6000611ff785828601611d8e565b925050602061200885828601611e56565b9150509250929050565b60006020828403121561202457600080fd5b600061203284828501611db8565b91505092915050565b60006020828403121561204d57600080fd5b600061205b84828501611dcd565b91505092915050565b60008060006040848603121561207957600080fd5b600084013567ffffffffffffffff81111561209357600080fd5b61209f86828701611e0c565b935093505060206120b286828701611d8e565b9150509250925092565b6000806000806000606086880312156120d457600080fd5b600086013567ffffffffffffffff8111156120ee57600080fd5b6120fa88828901611e0c565b9550955050602086013567ffffffffffffffff81111561211957600080fd5b61212588828901611e0c565b9350935050604061213888828901611d8e565b9150509295509295909350565b60006020828403121561215757600080fd5b600061216584828501611e56565b91505092915050565b612177816128b5565b82525050565b612186816128c7565b82525050565b6000612197826127b7565b6121a181856127cd565b93506121b1818560208601612957565b6121ba81612b23565b840191505092915050565b6121ce81612936565b82525050565b60006121df826127c2565b6121e981856127de565b93506121f9818560208601612957565b61220281612b23565b840191505092915050565b6000612218826127c2565b61222281856127ef565b9350612232818560208601612957565b80840191505092915050565b600061224b6032836127de565b915061225682612b34565b604082019050919050565b600061226e6025836127de565b915061227982612b83565b604082019050919050565b6000612291601c836127de565b915061229c82612bd2565b602082019050919050565b60006122b46024836127de565b91506122bf82612bfb565b604082019050919050565b60006122d76019836127de565b91506122e282612c4a565b602082019050919050565b60006122fa6029836127de565b915061230582612c73565b604082019050919050565b600061231d602e836127de565b915061232882612cc2565b604082019050919050565b6000612340602e836127de565b915061234b82612d11565b604082019050919050565b6000612363603e836127de565b915061236e82612d60565b604082019050919050565b60006123866020836127de565b915061239182612daf565b602082019050919050565b60006123a96048836127de565b91506123b482612dd8565b606082019050919050565b60006123cc6018836127de565b91506123d782612e4d565b602082019050919050565b60006123ef6021836127de565b91506123fa82612e76565b604082019050919050565b6000612412602b836127de565b915061241d82612ec5565b604082019050919050565b6000612435602e836127de565b915061244082612f14565b604082019050919050565b6124548161291f565b82525050565b6000612466828561220d565b9150612472828461220d565b91508190509392505050565b6000602082019050612493600083018461216e565b92915050565b60006080820190506124ae600083018761216e565b6124bb602083018661216e565b6124c8604083018561244b565b81810360608301526124da818461218c565b905095945050505050565b60006020820190506124fa600083018461217d565b92915050565b600060208201905061251560008301846121c5565b92915050565b6000602082019050818103600083015261253581846121d4565b905092915050565b600060208201905081810360008301526125568161223e565b9050919050565b6000602082019050818103600083015261257681612261565b9050919050565b6000602082019050818103600083015261259681612284565b9050919050565b600060208201905081810360008301526125b6816122a7565b9050919050565b600060208201905081810360008301526125d6816122ca565b9050919050565b600060208201905081810360008301526125f6816122ed565b9050919050565b6000602082019050818103600083015261261681612310565b9050919050565b6000602082019050818103600083015261263681612333565b9050919050565b6000602082019050818103600083015261265681612356565b9050919050565b6000602082019050818103600083015261267681612379565b9050919050565b600060208201905081810360008301526126968161239c565b9050919050565b600060208201905081810360008301526126b6816123bf565b9050919050565b600060208201905081810360008301526126d6816123e2565b9050919050565b600060208201905081810360008301526126f681612405565b9050919050565b6000602082019050818103600083015261271681612428565b9050919050565b6000602082019050612732600083018461244b565b92915050565b600060408201905061274d600083018561244b565b61275a602083018461217d565b9392505050565b600061276b61277c565b905061277782826129bc565b919050565b6000604051905090565b600067ffffffffffffffff8211156127a1576127a0612af4565b5b6127aa82612b23565b9050602081019050919050565b600081519050919050565b600081519050919050565b600082825260208201905092915050565b600082825260208201905092915050565b600081905092915050565b60006128058261291f565b91506128108361291f565b9250827fffffffffffffffffffffffffffffffffffffffffffffffffffffffffffffffff0382111561284557612844612a67565b5b828201905092915050565b600061285b8261291f565b91506128668361291f565b92508261287657612875612a96565b5b828204905092915050565b600061288c8261291f565b91506128978361291f565b9250828210156128aa576128a9612a67565b5b828203905092915050565b60006128c0826128ff565b9050919050565b60008115159050919050565b60007fffffffff0000000000000000000000000000000000000000000000000000000082169050919050565b600073ffffffffffffffffffffffffffffffffffffffff82169050919050565b6000819050919050565b600060ff82169050919050565b600061294182612929565b9050919050565b82818337600083830152505050565b60005b8381101561297557808201518184015260208101905061295a565b83811115612984576000848401525b50505050565b600060028204905060018216806129a257607f821691505b602082108114156129b6576129b5612ac5565b5b50919050565b6129c582612b23565b810181811067ffffffffffffffff821117156129e4576129e3612af4565b5b80604052505050565b60006129f88261291f565b91507fffffffffffffffffffffffffffffffffffffffffffffffffffffffffffffffff821415612a2b57612a2a612a67565b5b600182019050919050565b6000612a418261291f565b9150612a4c8361291f565b925082612a5c57612a5b612a96565b5b828206905092915050565b7f4e487b7100000000000000000000000000000000000000000000000000000000600052601160045260246000fd5b7f4e487b7100000000000000000000000000000000000000000000000000000000600052601260045260246000fd5b7f4e487b7100000000000000000000000000000000000000000000000000000000600052602260045260246000fd5b7f4e487b7100000000000000000000000000000000000000000000000000000000600052604160045260246000fd5b6000601f19601f8301169050919050565b7f4552433732313a207472616e7366657220746f206e6f6e20455243373231526560008201527f63656976657220696d706c656d656e7465720000000000000000000000000000602082015250565b7f4552433732313a207472616e736665722066726f6d20696e636f72726563742060008201527f6f776e6572000000000000000000000000000000000000000000000000000000602082015250565b7f4552433732313a20746f6b656e20616c7265616479206d696e74656400000000600082015250565b7f4552433732313a207472616e7366657220746f20746865207a65726f2061646460008201527f7265737300000000000000000000000000000000000000000000000000000000602082015250565b7f4552433732313a20617070726f766520746f2063616c6c657200000000000000600082015250565b7f4552433732313a2061646472657373207a65726f206973206e6f74206120766160008201527f6c6964206f776e65720000000000000000000000000000000000000000000000602082015250565b7f45524337323155524953746f726167653a2055524920736574206f66206e6f6e60008201527f6578697374656e7420746f6b656e000000000000000000000000000000000000602082015250565b7f496e697469616c697a61626c653a20636f6e747261637420697320616c72656160008201527f647920696e697469616c697a6564000000000000000000000000000000000000602082015250565b7f4552433732313a20617070726f76652063616c6c6572206973206e6f7420746f60008201527f6b656e206f776e6572206e6f7220617070726f76656420666f7220616c6c0000602082015250565b7f4552433732313a206d696e7420746f20746865207a65726f2061646472657373600082015250565b7f596f7520617265206e6f7420746865206f776e6572206f66207468697320636f60008201527f6c6c656374696f6e206f7220636f6e7472616374206973206e6f7420696e697460208201527f69616c697a65642e000000000000000000000000000000000000000000000000604082015250565b7f4552433732313a20696e76616c696420746f6b656e2049440000000000000000600082015250565b7f4552433732313a20617070726f76616c20746f2063757272656e74206f776e6560008201527f7200000000000000000000000000000000000000000000000000000000000000602082015250565b7f496e697469616c697a61626c653a20636f6e7472616374206973206e6f74206960008201527f6e697469616c697a696e67000000000000000000000000000000000000000000602082015250565b7f4552433732313a2063616c6c6572206973206e6f7420746f6b656e206f776e6560008201527f72206e6f7220617070726f766564000000000000000000000000000000000000602082015250565b612f6c816128b5565b8114612f7757600080fd5b50565b612f83816128c7565b8114612f8e57600080fd5b50565b612f9a816128d3565b8114612fa557600080fd5b50565b612fb18161291f565b8114612fbc57600080fd5b5056fea264697066735822122019a5a058e615a8120444c7747c5cc53eb2bb75f510210566f4491d4a761298b664736f6c63430008040033608060405234801561001057600080fd5b50613626806100206000396000f3fe608060405234801561001057600080fd5b506004361061012c5760003560e01c80638da5cb5b116100ad578063b88d4fde11610071578063b88d4fde14610356578063c2f1f14a14610372578063c87b56dd146103a2578063e030565e146103d2578063e985e9c5146103ee5761012c565b80638da5cb5b146102b05780638fc88c48146102ce57806395d89b41146102fe5780639f181b5e1461031c578063a22cb4651461033a5761012c565b80631c351a9d116100f45780631c351a9d146101e757806323b872dd1461021857806342842e0e146102345780636352211e1461025057806370a08231146102805761012c565b806301ffc9a71461013157806306fdde0314610161578063077f224a1461017f578063081812fc1461019b578063095ea7b3146101cb575b600080fd5b61014b60048036038101906101469190612493565b61041e565b60405161015891906129f6565b60405180910390f35b610169610498565b6040516101769190612a47565b60405180910390f35b6101996004803603810190610194919061253d565b61052a565b005b6101b560048036038101906101b091906125c6565b610738565b6040516101c2919061298f565b60405180910390f35b6101e560048036038101906101e09190612457565b61077e565b005b61020160048036038101906101fc91906124e5565b610896565b60405161020f929190612c84565b60405180910390f35b610232600480360381019061022d9190612351565b6109b5565b005b61024e60048036038101906102499190612351565b610a15565b005b61026a600480360381019061026591906125c6565b610a35565b604051610277919061298f565b60405180910390f35b61029a600480360381019061029591906122ec565b610ae7565b6040516102a79190612c69565b60405180910390f35b6102b8610b9f565b6040516102c5919061298f565b60405180910390f35b6102e860048036038101906102e391906125c6565b610bc5565b6040516102f59190612c69565b60405180910390f35b610306610c03565b6040516103139190612a47565b60405180910390f35b610324610c95565b6040516103319190612c69565b60405180910390f35b610354600480360381019061034f919061241b565b610ca1565b005b610370600480360381019061036b91906123a0565b610cb7565b005b61038c600480360381019061038791906125c6565b610d19565b604051610399919061298f565b60405180910390f35b6103bc60048036038101906103b791906125c6565b610d9e565b6040516103c99190612a47565b60405180910390f35b6103ec60048036038101906103e791906125ef565b610eb1565b005b61040860048036038101906104039190612315565b610fe5565b60405161041591906129f6565b60405180910390f35b60007fad092b5c000000000000000000000000000000000000000000000000000000007bffffffffffffffffffffffffffffffffffffffffffffffffffffffff1916827bffffffffffffffffffffffffffffffffffffffffffffffffffffffff19161480610491575061049082611079565b5b9050919050565b6060606580546104a790612f55565b80601f01602080910402602001604051908101604052809291908181526020018280546104d390612f55565b80156105205780601f106104f557610100808354040283529160200191610520565b820191906000526020600020905b81548152906001019060200180831161050357829003601f168201915b5050505050905090565b60008060019054906101000a900460ff1615905080801561055b5750600160008054906101000a900460ff1660ff16105b80610588575061056a3061115b565b1580156105875750600160008054906101000a900460ff1660ff16145b5b6105c7576040517f08c379a00000000000000000000000000000000000000000000000000000000081526004016105be90612b49565b60405180910390fd5b60016000806101000a81548160ff021916908360ff1602179055508015610604576001600060016101000a81548160ff0219169083151502179055505b61069686868080601f016020809104026020016040519081016040528093929190818152602001838380828437600081840152601f19601f8201169050808301925050505050505085858080601f016020809104026020016040519081016040528093929190818152602001838380828437600081840152601f19601f8201169050808301925050505050505061117e565b8160cb60006101000a81548173ffffffffffffffffffffffffffffffffffffffff021916908373ffffffffffffffffffffffffffffffffffffffff16021790555080156107305760008060016101000a81548160ff0219169083151502179055507f7f26b83ff96e1f2b6a682f133852f6798a09c465da95921460cefb384740249860016040516107279190612a2c565b60405180910390a15b505050505050565b6000610743826111db565b6069600083815260200190815260200160002060009054906101000a900473ffffffffffffffffffffffffffffffffffffffff169050919050565b600061078982610a35565b90508073ffffffffffffffffffffffffffffffffffffffff168373ffffffffffffffffffffffffffffffffffffffff1614156107fa576040517f08c379a00000000000000000000000000000000000000000000000000000000081526004016107f190612be9565b60405180910390fd5b8073ffffffffffffffffffffffffffffffffffffffff16610819611226565b73ffffffffffffffffffffffffffffffffffffffff161480610848575061084781610842611226565b610fe5565b5b610887576040517f08c379a000000000000000000000000000000000000000000000000000000000815260040161087e90612b69565b60405180910390fd5b610891838361122e565b505050565b60008060cb60009054906101000a900473ffffffffffffffffffffffffffffffffffffffff1673ffffffffffffffffffffffffffffffffffffffff163273ffffffffffffffffffffffffffffffffffffffff1614610929576040517f08c379a000000000000000000000000000000000000000000000000000000000815260040161092090612ba9565b60405180910390fd5b61093360ca6112e7565b6109468361094160ca6112fd565b61130b565b61099d61095360ca6112fd565b86868080601f016020809104026020016040519081016040528093929190818152602001838380828437600081840152601f19601f82011690508083019250505050505050611329565b6109a760ca6112fd565b915060019050935093915050565b6109c66109c0611226565b8261139d565b610a05576040517f08c379a00000000000000000000000000000000000000000000000000000000081526004016109fc90612c49565b60405180910390fd5b610a10838383611432565b505050565b610a3083838360405180602001604052806000815250610cb7565b505050565b6000806067600084815260200190815260200160002060009054906101000a900473ffffffffffffffffffffffffffffffffffffffff169050600073ffffffffffffffffffffffffffffffffffffffff168173ffffffffffffffffffffffffffffffffffffffff161415610ade576040517f08c379a0000000000000000000000000000000000000000000000000000000008152600401610ad590612bc9565b60405180910390fd5b80915050919050565b60008073ffffffffffffffffffffffffffffffffffffffff168273ffffffffffffffffffffffffffffffffffffffff161415610b58576040517f08c379a0000000000000000000000000000000000000000000000000000000008152600401610b4f90612b09565b60405180910390fd5b606860008373ffffffffffffffffffffffffffffffffffffffff1673ffffffffffffffffffffffffffffffffffffffff168152602001908152602001600020549050919050565b60cb60009054906101000a900473ffffffffffffffffffffffffffffffffffffffff1681565b600060c9600083815260200190815260200160002060000160149054906101000a900467ffffffffffffffff1667ffffffffffffffff169050919050565b606060668054610c1290612f55565b80601f0160208091040260200160405190810160405280929190818152602001828054610c3e90612f55565b8015610c8b5780601f10610c6057610100808354040283529160200191610c8b565b820191906000526020600020905b815481529060010190602001808311610c6e57829003601f168201915b5050505050905090565b60ca8060000154905081565b610cb3610cac611226565b8383611699565b5050565b610cc8610cc2611226565b8361139d565b610d07576040517f08c379a0000000000000000000000000000000000000000000000000000000008152600401610cfe90612c49565b60405180910390fd5b610d1384848484611806565b50505050565b60004260c9600084815260200190815260200160002060000160149054906101000a900467ffffffffffffffff1667ffffffffffffffff1610610d945760c9600083815260200190815260200160002060000160009054906101000a900473ffffffffffffffffffffffffffffffffffffffff169050610d99565b600090505b919050565b6060610da9826111db565b6000609760008481526020019081526020016000208054610dc990612f55565b80601f0160208091040260200160405190810160405280929190818152602001828054610df590612f55565b8015610e425780601f10610e1757610100808354040283529160200191610e42565b820191906000526020600020905b815481529060010190602001808311610e2557829003601f168201915b505050505090506000610e53611862565b9050600081511415610e69578192505050610eac565b600082511115610e9e578082604051602001610e8692919061296b565b60405160208183030381529060405292505050610eac565b610ea784611879565b925050505b919050565b610ebb338461139d565b610efa576040517f08c379a0000000000000000000000000000000000000000000000000000000008152600401610ef190612c09565b60405180910390fd5b600060c96000858152602001908152602001600020905060008242610f1f9190612db7565b9050838260000160006101000a81548173ffffffffffffffffffffffffffffffffffffffff021916908373ffffffffffffffffffffffffffffffffffffffff160217905550808260000160146101000a81548167ffffffffffffffff021916908367ffffffffffffffff1602179055508373ffffffffffffffffffffffffffffffffffffffff16857f4e06b4e7000e659094299b3533b47b6aa8ad048e95e872d23d1f4ee55af89cfe83604051610fd69190612cad565b60405180910390a35050505050565b6000606a60008473ffffffffffffffffffffffffffffffffffffffff1673ffffffffffffffffffffffffffffffffffffffff16815260200190815260200160002060008373ffffffffffffffffffffffffffffffffffffffff1673ffffffffffffffffffffffffffffffffffffffff16815260200190815260200160002060009054906101000a900460ff16905092915050565b60007f80ac58cd000000000000000000000000000000000000000000000000000000007bffffffffffffffffffffffffffffffffffffffffffffffffffffffff1916827bffffffffffffffffffffffffffffffffffffffffffffffffffffffff1916148061114457507f5b5e139f000000000000000000000000000000000000000000000000000000007bffffffffffffffffffffffffffffffffffffffffffffffffffffffff1916827bffffffffffffffffffffffffffffffffffffffffffffffffffffffff1916145b806111545750611153826118e1565b5b9050919050565b6000808273ffffffffffffffffffffffffffffffffffffffff163b119050919050565b600060019054906101000a900460ff166111cd576040517f08c379a00000000000000000000000000000000000000000000000000000000081526004016111c490612c29565b60405180910390fd5b6111d7828261194b565b5050565b6111e4816119cc565b611223576040517f08c379a000000000000000000000000000000000000000000000000000000000815260040161121a90612bc9565b60405180910390fd5b50565b600033905090565b816069600083815260200190815260200160002060006101000a81548173ffffffffffffffffffffffffffffffffffffffff021916908373ffffffffffffffffffffffffffffffffffffffff160217905550808273ffffffffffffffffffffffffffffffffffffffff166112a183610a35565b73ffffffffffffffffffffffffffffffffffffffff167f8c5be1e5ebec7d5bd14f71427d1e84f3dd0314c0f7b2291e5b200ac8c7c3b92560405160405180910390a45050565b6001816000016000828254019250508190555050565b600081600001549050919050565b611325828260405180602001604052806000815250611a38565b5050565b611332826119cc565b611371576040517f08c379a000000000000000000000000000000000000000000000000000000000815260040161136890612b29565b60405180910390fd5b80609760008481526020019081526020016000209080519060200190611398929190612119565b505050565b6000806113a983610a35565b90508073ffffffffffffffffffffffffffffffffffffffff168473ffffffffffffffffffffffffffffffffffffffff1614806113eb57506113ea8185610fe5565b5b8061142957508373ffffffffffffffffffffffffffffffffffffffff1661141184610738565b73ffffffffffffffffffffffffffffffffffffffff16145b91505092915050565b8273ffffffffffffffffffffffffffffffffffffffff1661145282610a35565b73ffffffffffffffffffffffffffffffffffffffff16146114a8576040517f08c379a000000000000000000000000000000000000000000000000000000000815260040161149f90612a89565b60405180910390fd5b600073ffffffffffffffffffffffffffffffffffffffff168273ffffffffffffffffffffffffffffffffffffffff161415611518576040517f08c379a000000000000000000000000000000000000000000000000000000000815260040161150f90612ac9565b60405180910390fd5b611523838383611a93565b61152e60008261122e565b6001606860008573ffffffffffffffffffffffffffffffffffffffff1673ffffffffffffffffffffffffffffffffffffffff168152602001908152602001600020600082825461157e9190612e26565b925050819055506001606860008473ffffffffffffffffffffffffffffffffffffffff1673ffffffffffffffffffffffffffffffffffffffff16815260200190815260200160002060008282546115d59190612d61565b92505081905550816067600083815260200190815260200160002060006101000a81548173ffffffffffffffffffffffffffffffffffffffff021916908373ffffffffffffffffffffffffffffffffffffffff160217905550808273ffffffffffffffffffffffffffffffffffffffff168473ffffffffffffffffffffffffffffffffffffffff167fddf252ad1be2c89b69c2b068fc378daa952ba7f163c4a11628f55a4df523b3ef60405160405180910390a4611694838383611bf1565b505050565b8173ffffffffffffffffffffffffffffffffffffffff168373ffffffffffffffffffffffffffffffffffffffff161415611708576040517f08c379a00000000000000000000000000000000000000000000000000000000081526004016116ff90612ae9565b60405180910390fd5b80606a60008573ffffffffffffffffffffffffffffffffffffffff1673ffffffffffffffffffffffffffffffffffffffff16815260200190815260200160002060008473ffffffffffffffffffffffffffffffffffffffff1673ffffffffffffffffffffffffffffffffffffffff16815260200190815260200160002060006101000a81548160ff0219169083151502179055508173ffffffffffffffffffffffffffffffffffffffff168373ffffffffffffffffffffffffffffffffffffffff167f17307eab39ab6107e8899845ad3d59bd9653f200f220920489ca2b5937696c31836040516117f991906129f6565b60405180910390a3505050565b611811848484611432565b61181d84848484611bf6565b61185c576040517f08c379a000000000000000000000000000000000000000000000000000000000815260040161185390612a69565b60405180910390fd5b50505050565b606060405180602001604052806000815250905090565b6060611884826111db565b600061188e611862565b905060008151116118ae57604051806020016040528060008152506118d9565b806118b884611d8d565b6040516020016118c992919061296b565b6040516020818303038152906040525b915050919050565b60007f01ffc9a7000000000000000000000000000000000000000000000000000000007bffffffffffffffffffffffffffffffffffffffffffffffffffffffff1916827bffffffffffffffffffffffffffffffffffffffffffffffffffffffff1916149050919050565b600060019054906101000a900460ff1661199a576040517f08c379a000000000000000000000000000000000000000000000000000000000815260040161199190612c29565b60405180910390fd5b81606590805190602001906119b0929190612119565b5080606690805190602001906119c7929190612119565b505050565b60008073ffffffffffffffffffffffffffffffffffffffff166067600084815260200190815260200160002060009054906101000a900473ffffffffffffffffffffffffffffffffffffffff1673ffffffffffffffffffffffffffffffffffffffff1614159050919050565b611a428383611f3a565b611a4f6000848484611bf6565b611a8e576040517f08c379a0000000000000000000000000000000000000000000000000000000008152600401611a8590612a69565b60405180910390fd5b505050565b611a9e838383612114565b8173ffffffffffffffffffffffffffffffffffffffff168373ffffffffffffffffffffffffffffffffffffffff1614158015611b3d5750600073ffffffffffffffffffffffffffffffffffffffff1660c9600083815260200190815260200160002060000160009054906101000a900473ffffffffffffffffffffffffffffffffffffffff1673ffffffffffffffffffffffffffffffffffffffff1614155b15611bec5760c96000828152602001908152602001600020600080820160006101000a81549073ffffffffffffffffffffffffffffffffffffffff02191690556000820160146101000a81549067ffffffffffffffff02191690555050600073ffffffffffffffffffffffffffffffffffffffff16817f4e06b4e7000e659094299b3533b47b6aa8ad048e95e872d23d1f4ee55af89cfe6000604051611be39190612a11565b60405180910390a35b505050565b505050565b6000611c178473ffffffffffffffffffffffffffffffffffffffff1661115b565b15611d80578373ffffffffffffffffffffffffffffffffffffffff1663150b7a02611c40611226565b8786866040518563ffffffff1660e01b8152600401611c6294939291906129aa565b602060405180830381600087803b158015611c7c57600080fd5b505af1925050508015611cad57506040513d601f19601f82011682018060405250810190611caa91906124bc565b60015b611d30573d8060008114611cdd576040519150601f19603f3d011682016040523d82523d6000602084013e611ce2565b606091505b50600081511415611d28576040517f08c379a0000000000000000000000000000000000000000000000000000000008152600401611d1f90612a69565b60405180910390fd5b805181602001fd5b63150b7a0260e01b7bffffffffffffffffffffffffffffffffffffffffffffffffffffffff1916817bffffffffffffffffffffffffffffffffffffffffffffffffffffffff191614915050611d85565b600190505b949350505050565b60606000821415611dd5576040518060400160405280600181526020017f30000000000000000000000000000000000000000000000000000000000000008152509050611f35565b600082905060005b60008214611e07578080611df090612fb8565b915050600a82611e009190612df5565b9150611ddd565b60008167ffffffffffffffff811115611e49577f4e487b7100000000000000000000000000000000000000000000000000000000600052604160045260246000fd5b6040519080825280601f01601f191660200182016040528015611e7b5781602001600182028036833780820191505090505b5090505b60008514611f2e57600182611e949190612e26565b9150600a85611ea39190613001565b6030611eaf9190612d61565b60f81b818381518110611eeb577f4e487b7100000000000000000000000000000000000000000000000000000000600052603260045260246000fd5b60200101907effffffffffffffffffffffffffffffffffffffffffffffffffffffffffffff1916908160001a905350600a85611f279190612df5565b9450611e7f565b8093505050505b919050565b600073ffffffffffffffffffffffffffffffffffffffff168273ffffffffffffffffffffffffffffffffffffffff161415611faa576040517f08c379a0000000000000000000000000000000000000000000000000000000008152600401611fa190612b89565b60405180910390fd5b611fb3816119cc565b15611ff3576040517f08c379a0000000000000000000000000000000000000000000000000000000008152600401611fea90612aa9565b60405180910390fd5b611fff60008383611a93565b6001606860008473ffffffffffffffffffffffffffffffffffffffff1673ffffffffffffffffffffffffffffffffffffffff168152602001908152602001600020600082825461204f9190612d61565b92505081905550816067600083815260200190815260200160002060006101000a81548173ffffffffffffffffffffffffffffffffffffffff021916908373ffffffffffffffffffffffffffffffffffffffff160217905550808273ffffffffffffffffffffffffffffffffffffffff16600073ffffffffffffffffffffffffffffffffffffffff167fddf252ad1be2c89b69c2b068fc378daa952ba7f163c4a11628f55a4df523b3ef60405160405180910390a461211060008383611bf1565b5050565b505050565b82805461212590612f55565b90600052602060002090601f016020900481019282612147576000855561218e565b82601f1061216057805160ff191683800117855561218e565b8280016001018555821561218e579182015b8281111561218d578251825591602001919060010190612172565b5b50905061219b919061219f565b5090565b5b808211156121b85760008160009055506001016121a0565b5090565b60006121cf6121ca84612ced565b612cc8565b9050828152602081018484840111156121e757600080fd5b6121f2848285612f13565b509392505050565b6000813590506122098161357d565b92915050565b60008135905061221e81613594565b92915050565b600081359050612233816135ab565b92915050565b600081519050612248816135ab565b92915050565b600082601f83011261225f57600080fd5b813561226f8482602086016121bc565b91505092915050565b60008083601f84011261228a57600080fd5b8235905067ffffffffffffffff8111156122a357600080fd5b6020830191508360018202830111156122bb57600080fd5b9250929050565b6000813590506122d1816135c2565b92915050565b6000813590506122e6816135d9565b92915050565b6000602082840312156122fe57600080fd5b600061230c848285016121fa565b91505092915050565b6000806040838503121561232857600080fd5b6000612336858286016121fa565b9250506020612347858286016121fa565b9150509250929050565b60008060006060848603121561236657600080fd5b6000612374868287016121fa565b9350506020612385868287016121fa565b9250506040612396868287016122c2565b9150509250925092565b600080600080608085870312156123b657600080fd5b60006123c4878288016121fa565b94505060206123d5878288016121fa565b93505060406123e6878288016122c2565b925050606085013567ffffffffffffffff81111561240357600080fd5b61240f8782880161224e565b91505092959194509250565b6000806040838503121561242e57600080fd5b600061243c858286016121fa565b925050602061244d8582860161220f565b9150509250929050565b6000806040838503121561246a57600080fd5b6000612478858286016121fa565b9250506020612489858286016122c2565b9150509250929050565b6000602082840312156124a557600080fd5b60006124b384828501612224565b91505092915050565b6000602082840312156124ce57600080fd5b60006124dc84828501612239565b91505092915050565b6000806000604084860312156124fa57600080fd5b600084013567ffffffffffffffff81111561251457600080fd5b61252086828701612278565b93509350506020612533868287016121fa565b9150509250925092565b60008060008060006060868803121561255557600080fd5b600086013567ffffffffffffffff81111561256f57600080fd5b61257b88828901612278565b9550955050602086013567ffffffffffffffff81111561259a57600080fd5b6125a688828901612278565b935093505060406125b9888289016121fa565b9150509295509295909350565b6000602082840312156125d857600080fd5b60006125e6848285016122c2565b91505092915050565b60008060006060848603121561260457600080fd5b6000612612868287016122c2565b9350506020612623868287016121fa565b9250506040612634868287016122d7565b9150509250925092565b61264781612e5a565b82525050565b61265681612e6c565b82525050565b600061266782612d1e565b6126718185612d34565b9350612681818560208601612f22565b61268a816130ee565b840191505092915050565b61269e81612eef565b82525050565b6126ad81612f01565b82525050565b60006126be82612d29565b6126c88185612d45565b93506126d8818560208601612f22565b6126e1816130ee565b840191505092915050565b60006126f782612d29565b6127018185612d56565b9350612711818560208601612f22565b80840191505092915050565b600061272a603283612d45565b9150612735826130ff565b604082019050919050565b600061274d602583612d45565b91506127588261314e565b604082019050919050565b6000612770601c83612d45565b915061277b8261319d565b602082019050919050565b6000612793602483612d45565b915061279e826131c6565b604082019050919050565b60006127b6601983612d45565b91506127c182613215565b602082019050919050565b60006127d9602983612d45565b91506127e48261323e565b604082019050919050565b60006127fc602e83612d45565b91506128078261328d565b604082019050919050565b600061281f602e83612d45565b915061282a826132dc565b604082019050919050565b6000612842603e83612d45565b915061284d8261332b565b604082019050919050565b6000612865602083612d45565b91506128708261337a565b602082019050919050565b6000612888604883612d45565b9150612893826133a3565b606082019050919050565b60006128ab601883612d45565b91506128b682613418565b602082019050919050565b60006128ce602183612d45565b91506128d982613441565b604082019050919050565b60006128f1603183612d45565b91506128fc82613490565b604082019050919050565b6000612914602b83612d45565b915061291f826134df565b604082019050919050565b6000612937602e83612d45565b91506129428261352e565b604082019050919050565b61295681612ec4565b82525050565b61296581612ece565b82525050565b600061297782856126ec565b915061298382846126ec565b91508190509392505050565b60006020820190506129a4600083018461263e565b92915050565b60006080820190506129bf600083018761263e565b6129cc602083018661263e565b6129d9604083018561294d565b81810360608301526129eb818461265c565b905095945050505050565b6000602082019050612a0b600083018461264d565b92915050565b6000602082019050612a266000830184612695565b92915050565b6000602082019050612a4160008301846126a4565b92915050565b60006020820190508181036000830152612a6181846126b3565b905092915050565b60006020820190508181036000830152612a828161271d565b9050919050565b60006020820190508181036000830152612aa281612740565b9050919050565b60006020820190508181036000830152612ac281612763565b9050919050565b60006020820190508181036000830152612ae281612786565b9050919050565b60006020820190508181036000830152612b02816127a9565b9050919050565b60006020820190508181036000830152612b22816127cc565b9050919050565b60006020820190508181036000830152612b42816127ef565b9050919050565b60006020820190508181036000830152612b6281612812565b9050919050565b60006020820190508181036000830152612b8281612835565b9050919050565b60006020820190508181036000830152612ba281612858565b9050919050565b60006020820190508181036000830152612bc28161287b565b9050919050565b60006020820190508181036000830152612be28161289e565b9050919050565b60006020820190508181036000830152612c02816128c1565b9050919050565b60006020820190508181036000830152612c22816128e4565b9050919050565b60006020820190508181036000830152612c4281612907565b9050919050565b60006020820190508181036000830152612c628161292a565b9050919050565b6000602082019050612c7e600083018461294d565b92915050565b6000604082019050612c99600083018561294d565b612ca6602083018461264d565b9392505050565b6000602082019050612cc2600083018461295c565b92915050565b6000612cd2612ce3565b9050612cde8282612f87565b919050565b6000604051905090565b600067ffffffffffffffff821115612d0857612d076130bf565b5b612d11826130ee565b9050602081019050919050565b600081519050919050565b600081519050919050565b600082825260208201905092915050565b600082825260208201905092915050565b600081905092915050565b6000612d6c82612ec4565b9150612d7783612ec4565b9250827fffffffffffffffffffffffffffffffffffffffffffffffffffffffffffffffff03821115612dac57612dab613032565b5b828201905092915050565b6000612dc282612ece565b9150612dcd83612ece565b92508267ffffffffffffffff03821115612dea57612de9613032565b5b828201905092915050565b6000612e0082612ec4565b9150612e0b83612ec4565b925082612e1b57612e1a613061565b5b828204905092915050565b6000612e3182612ec4565b9150612e3c83612ec4565b925082821015612e4f57612e4e613032565b5b828203905092915050565b6000612e6582612ea4565b9050919050565b60008115159050919050565b60007fffffffff0000000000000000000000000000000000000000000000000000000082169050919050565b600073ffffffffffffffffffffffffffffffffffffffff82169050919050565b6000819050919050565b600067ffffffffffffffff82169050919050565b600060ff82169050919050565b6000612efa82612ece565b9050919050565b6000612f0c82612ee2565b9050919050565b82818337600083830152505050565b60005b83811015612f40578082015181840152602081019050612f25565b83811115612f4f576000848401525b50505050565b60006002820490506001821680612f6d57607f821691505b60208210811415612f8157612f80613090565b5b50919050565b612f90826130ee565b810181811067ffffffffffffffff82111715612faf57612fae6130bf565b5b80604052505050565b6000612fc382612ec4565b91507fffffffffffffffffffffffffffffffffffffffffffffffffffffffffffffffff821415612ff657612ff5613032565b5b600182019050919050565b600061300c82612ec4565b915061301783612ec4565b92508261302757613026613061565b5b828206905092915050565b7f4e487b7100000000000000000000000000000000000000000000000000000000600052601160045260246000fd5b7f4e487b7100000000000000000000000000000000000000000000000000000000600052601260045260246000fd5b7f4e487b7100000000000000000000000000000000000000000000000000000000600052602260045260246000fd5b7f4e487b7100000000000000000000000000000000000000000000000000000000600052604160045260246000fd5b6000601f19601f8301169050919050565b7f4552433732313a207472616e7366657220746f206e6f6e20455243373231526560008201527f63656976657220696d706c656d656e7465720000000000000000000000000000602082015250565b7f4552433732313a207472616e736665722066726f6d20696e636f72726563742060008201527f6f776e6572000000000000000000000000000000000000000000000000000000602082015250565b7f4552433732313a20746f6b656e20616c7265616479206d696e74656400000000600082015250565b7f4552433732313a207472616e7366657220746f20746865207a65726f2061646460008201527f7265737300000000000000000000000000000000000000000000000000000000602082015250565b7f4552433732313a20617070726f766520746f2063616c6c657200000000000000600082015250565b7f4552433732313a2061646472657373207a65726f206973206e6f74206120766160008201527f6c6964206f776e65720000000000000000000000000000000000000000000000602082015250565b7f45524337323155524953746f726167653a2055524920736574206f66206e6f6e60008201527f6578697374656e7420746f6b656e000000000000000000000000000000000000602082015250565b7f496e697469616c697a61626c653a20636f6e747261637420697320616c72656160008201527f647920696e697469616c697a6564000000000000000000000000000000000000602082015250565b7f4552433732313a20617070726f76652063616c6c6572206973206e6f7420746f60008201527f6b656e206f776e6572206e6f7220617070726f76656420666f7220616c6c0000602082015250565b7f4552433732313a206d696e7420746f20746865207a65726f2061646472657373600082015250565b7f596f7520617265206e6f7420746865206f776e6572206f66207468697320636f60008201527f6c6c656374696f6e206f7220636f6e7472616374206973206e6f7420696e697460208201527f69616c697a65642e000000000000000000000000000000000000000000000000604082015250565b7f4552433732313a20696e76616c696420746f6b656e2049440000000000000000600082015250565b7f4552433732313a20617070726f76616c20746f2063757272656e74206f776e6560008201527f7200000000000000000000000000000000000000000000000000000000000000602082015250565b7f4552433732313a207472616e736665722063616c6c6572206973206e6f74206f60008201527f776e6572206e6f7220617070726f766564000000000000000000000000000000602082015250565b7f496e697469616c697a61626c653a20636f6e7472616374206973206e6f74206960008201527f6e697469616c697a696e67000000000000000000000000000000000000000000602082015250565b7f4552433732313a2063616c6c6572206973206e6f7420746f6b656e206f776e6560008201527f72206e6f7220617070726f766564000000000000000000000000000000000000602082015250565b61358681612e5a565b811461359157600080fd5b50565b61359d81612e6c565b81146135a857600080fd5b50565b6135b481612e78565b81146135bf57600080fd5b50565b6135cb81612ec4565b81146135d657600080fd5b50565b6135e281612ece565b81146135ed57600080fd5b5056fea2646970667358221220dd4c54f0ee970a4c22db50899a8b250dd7911f4a2907d87eec43b19fb1bbe8b564736f6c63430008040033",
  "linkReferences": {},
  "deployedLinkReferences": {}
}