{
  "_format": "hh-sol-artifact-1",
  "contractName": "Marketplace",
  "sourceName": "contracts/Marketplace.sol",
  "abi": [
    {
      "inputs": [
        {
          "internalType": "address",
          "name": "NFTFactoryAddress",
          "type": "address"
        }
      ],
      "stateMutability": "nonpayable",
      "type": "constructor"
    },
    {
      "inputs": [
        {
          "internalType": "uint256",
          "name": "_itemId",
          "type": "uint256"
        }
      ],
      "name": "acceptBid",
      "outputs": [],
      "stateMutability": "payable",
      "type": "function"
    },
    {
      "inputs": [
        {
          "internalType": "uint256",
          "name": "_itemId",
          "type": "uint256"
        }
      ],
      "name": "bidOnNFT",
      "outputs": [],
      "stateMutability": "payable",
      "type": "function"
    },
    {
      "inputs": [
        {
          "internalType": "uint256",
          "name": "_itemId",
          "type": "uint256"
        }
      ],
      "name": "buyNFT",
      "outputs": [],
      "stateMutability": "payable",
      "type": "function"
    },
    {
      "inputs": [
        {
          "internalType": "uint256",
          "name": "_itemId",
          "type": "uint256"
        }
      ],
      "name": "cancelSell",
      "outputs": [],
      "stateMutability": "nonpayable",
      "type": "function"
    },
    {
      "inputs": [
        {
          "internalType": "string",
          "name": "_name",
          "type": "string"
        },
        {
          "internalType": "string",
          "name": "_ticker",
          "type": "string"
        }
      ],
      "name": "createCollection",
      "outputs": [],
      "stateMutability": "nonpayable",
      "type": "function"
    },
    {
      "inputs": [
        {
          "internalType": "uint256",
          "name": "_itemId",
          "type": "uint256"
        }
      ],
      "name": "getApproved",
      "outputs": [
        {
          "internalType": "address",
          "name": "",
          "type": "address"
        }
      ],
      "stateMutability": "view",
      "type": "function"
    },
    {
      "inputs": [],
      "name": "getBalance",
      "outputs": [
        {
          "internalType": "uint256",
          "name": "",
          "type": "uint256"
        }
      ],
      "stateMutability": "view",
      "type": "function"
    },
    {
      "inputs": [
        {
          "internalType": "uint256",
          "name": "",
          "type": "uint256"
        }
      ],
      "name": "items",
      "outputs": [
        {
          "internalType": "uint256",
          "name": "tokenId",
          "type": "uint256"
        },
        {
          "internalType": "contract ERC721",
          "name": "nft",
          "type": "address"
        },
        {
          "internalType": "uint256",
          "name": "price",
          "type": "uint256"
        },
        {
          "internalType": "uint256",
          "name": "bidPrice",
          "type": "uint256"
        },
        {
          "internalType": "address",
          "name": "bidAddress",
          "type": "address"
        },
        {
          "internalType": "bool",
          "name": "forSell",
          "type": "bool"
        }
      ],
      "stateMutability": "view",
      "type": "function"
    },
    {
      "inputs": [],
      "name": "lengthCollections",
      "outputs": [
        {
          "internalType": "uint256",
          "name": "",
          "type": "uint256"
        }
      ],
      "stateMutability": "view",
      "type": "function"
    },
    {
      "inputs": [],
      "name": "lengthItems",
      "outputs": [
        {
          "internalType": "uint256",
          "name": "",
          "type": "uint256"
        }
      ],
      "stateMutability": "view",
      "type": "function"
    },
    {
      "inputs": [
        {
          "internalType": "uint256",
          "name": "_collectionId",
          "type": "uint256"
        },
        {
          "internalType": "string",
          "name": "_tokenURI",
          "type": "string"
        }
      ],
      "name": "mintNFT",
      "outputs": [],
      "stateMutability": "nonpayable",
      "type": "function"
    },
    {
      "inputs": [],
      "name": "returnCollections",
      "outputs": [
        {
          "internalType": "contract ERC721[]",
          "name": "",
          "type": "address[]"
        }
      ],
      "stateMutability": "view",
      "type": "function"
    },
    {
      "inputs": [
        {
          "internalType": "uint256",
          "name": "_itemId",
          "type": "uint256"
        },
        {
          "internalType": "uint256",
          "name": "_price",
          "type": "uint256"
        }
      ],
      "name": "sellNFT",
      "outputs": [],
      "stateMutability": "nonpayable",
      "type": "function"
    },
    {
      "inputs": [],
      "name": "tokenCount",
      "outputs": [
        {
          "internalType": "uint256",
          "name": "_value",
          "type": "uint256"
        }
      ],
      "stateMutability": "view",
      "type": "function"
    }
  ],
  "bytecode": "0x60806040523480156200001157600080fd5b50604051620022443803806200224483398181016040528101906200003791906200009e565b600160008190555080600260006101000a81548173ffffffffffffffffffffffffffffffffffffffff021916908373ffffffffffffffffffffffffffffffffffffffff1602179055505062000118565b6000815190506200009881620000fe565b92915050565b600060208284031215620000b157600080fd5b6000620000c18482850162000087565b91505092915050565b6000620000d782620000de565b9050919050565b600073ffffffffffffffffffffffffffffffffffffffff82169050919050565b6200010981620000ca565b81146200011557600080fd5b50565b61211c80620001286000396000f3fe6080604052600436106100dd5760003560e01c80632b1fd58a1161007f57806391a48a1e1161005957806391a48a1e1461026f578063923c25a8146102985780639f181b5e146102c3578063bfb231d2146102ee576100dd565b80632b1fd58a1461020c57806351ed8288146102285780636ab3bd7914610244576100dd565b806312065fe0116100bb57806312065fe014610173578063176b9b751461019e5780631a0c8fa0146101c757806327bf3410146101f0576100dd565b806307c9cd45146100e2578063081812fc1461010b5780631166c1dc14610148575b600080fd5b3480156100ee57600080fd5b50610109600480360381019061010491906117c0565b610330565b005b34801561011757600080fd5b50610132600480360381019061012d91906117c0565b6104fa565b60405161013f9190611ab4565b60405180910390f35b34801561015457600080fd5b5061015d6105d8565b60405161016a9190611c8f565b60405180910390f35b34801561017f57600080fd5b506101886105e9565b6040516101959190611c8f565b60405180910390f35b3480156101aa57600080fd5b506101c560048036038101906101c09190611754565b6105f1565b005b3480156101d357600080fd5b506101ee60048036038101906101e99190611812565b61075c565b005b61020a600480360381019061020591906117c0565b610a87565b005b610226600480360381019061022191906117c0565b610bc8565b005b610242600480360381019061023d91906117c0565b610f1e565b005b34801561025057600080fd5b50610259611277565b6040516102669190611b06565b60405180910390f35b34801561027b57600080fd5b5061029660048036038101906102919190611866565b611305565b005b3480156102a457600080fd5b506102ad61152f565b6040516102ba9190611c8f565b60405180910390f35b3480156102cf57600080fd5b506102d861153c565b6040516102e59190611c8f565b60405180910390f35b3480156102fa57600080fd5b50610315600480360381019061031091906117c0565b611548565b60405161032796959493929190611caa565b60405180910390f35b60026000541415610376576040517f08c379a000000000000000000000000000000000000000000000000000000000815260040161036d90611c4f565b60405180910390fd5b60026000819055503373ffffffffffffffffffffffffffffffffffffffff166006600083815260200190815260200160002060010160009054906101000a900473ffffffffffffffffffffffffffffffffffffffff1673ffffffffffffffffffffffffffffffffffffffff16636352211e60066000858152602001908152602001600020600001546040518263ffffffff1660e01b815260040161041a9190611c8f565b60206040518083038186803b15801561043257600080fd5b505afa158015610446573d6000803e3d6000fd5b505050506040513d601f19601f8201168201806040525081019061046a9190611702565b73ffffffffffffffffffffffffffffffffffffffff16146104c0576040517f08c379a00000000000000000000000000000000000000000000000000000000081526004016104b790611bef565b60405180910390fd5b60006006600083815260200190815260200160002060040160146101000a81548160ff021916908315150217905550600160008190555050565b60006006600083815260200190815260200160002060010160009054906101000a900473ffffffffffffffffffffffffffffffffffffffff1673ffffffffffffffffffffffffffffffffffffffff1663081812fc60066000858152602001908152602001600020600001546040518263ffffffff1660e01b81526004016105819190611c8f565b60206040518083038186803b15801561059957600080fd5b505afa1580156105ad573d6000803e3d6000fd5b505050506040513d601f19601f820116820180604052508101906105d19190611702565b9050919050565b60006105e460016115d1565b905090565b600047905090565b60026000541415610637576040517f08c379a000000000000000000000000000000000000000000000000000000000815260040161062e90611c4f565b60405180910390fd5b60026000819055506005600260009054906101000a900473ffffffffffffffffffffffffffffffffffffffff1673ffffffffffffffffffffffffffffffffffffffff166314d76ffc84846040518363ffffffff1660e01b815260040161069e929190611b58565b602060405180830381600087803b1580156106b857600080fd5b505af11580156106cc573d6000803e3d6000fd5b505050506040513d601f19601f820116820180604052508101906106f0919061172b565b9080600181540180825580915050600190039060005260206000200160009091909190916101000a81548173ffffffffffffffffffffffffffffffffffffffff021916908373ffffffffffffffffffffffffffffffffffffffff16021790555060016000819055505050565b600260005414156107a2576040517f08c379a000000000000000000000000000000000000000000000000000000000815260040161079990611c4f565b60405180910390fd5b6002600081905550600582815481106107e4577f4e487b7100000000000000000000000000000000000000000000000000000000600052603260045260246000fd5b9060005260206000200160009054906101000a900473ffffffffffffffffffffffffffffffffffffffff16600360006101000a81548173ffffffffffffffffffffffffffffffffffffffff021916908373ffffffffffffffffffffffffffffffffffffffff160217905550600360009054906101000a900473ffffffffffffffffffffffffffffffffffffffff1673ffffffffffffffffffffffffffffffffffffffff16631c351a9d82336040518363ffffffff1660e01b81526004016108ac929190611b28565b602060405180830381600087803b1580156108c657600080fd5b505af11580156108da573d6000803e3d6000fd5b505050506040513d601f19601f820116820180604052508101906108fe91906117e9565b60048190555061090e60016115df565b6040518060c001604052806004548152602001600360009054906101000a900473ffffffffffffffffffffffffffffffffffffffff1673ffffffffffffffffffffffffffffffffffffffff16815260200160008152602001600081526020013073ffffffffffffffffffffffffffffffffffffffff168152602001600015158152506006600061099e60016115d1565b81526020019081526020016000206000820151816000015560208201518160010160006101000a81548173ffffffffffffffffffffffffffffffffffffffff021916908373ffffffffffffffffffffffffffffffffffffffff160217905550604082015181600201556060820151816003015560808201518160040160006101000a81548173ffffffffffffffffffffffffffffffffffffffff021916908373ffffffffffffffffffffffffffffffffffffffff16021790555060a08201518160040160146101000a81548160ff02191690831515021790555090505060016000819055505050565b60066000828152602001908152602001600020600301543411610adf576040517f08c379a0000000000000000000000000000000000000000000000000000000008152600401610ad690611c0f565b60405180910390fd5b600060066000838152602001908152602001600020600301541115610b5557610b546006600083815260200190815260200160002060040160009054906101000a900473ffffffffffffffffffffffffffffffffffffffff1660066000848152602001908152602001600020600301546115f5565b5b346006600083815260200190815260200160002060030181905550336006600083815260200190815260200160002060040160006101000a81548173ffffffffffffffffffffffffffffffffffffffff021916908373ffffffffffffffffffffffffffffffffffffffff16021790555050565b60026000541415610c0e576040517f08c379a0000000000000000000000000000000000000000000000000000000008152600401610c0590611c4f565b60405180910390fd5b60026000819055506000600660008381526020019081526020016000206003015411610c6f576040517f08c379a0000000000000000000000000000000000000000000000000000000008152600401610c6690611c6f565b60405180910390fd5b60006006600083815260200190815260200160002060010160009054906101000a900473ffffffffffffffffffffffffffffffffffffffff1673ffffffffffffffffffffffffffffffffffffffff16636352211e60066000858152602001908152602001600020600001546040518263ffffffff1660e01b8152600401610cf69190611c8f565b60206040518083038186803b158015610d0e57600080fd5b505afa158015610d22573d6000803e3d6000fd5b505050506040513d601f19601f82011682018060405250810190610d469190611702565b90503373ffffffffffffffffffffffffffffffffffffffff168173ffffffffffffffffffffffffffffffffffffffff1614610db6576040517f08c379a0000000000000000000000000000000000000000000000000000000008152600401610dad90611bcf565b60405180910390fd5b610dd68160066000858152602001908152602001600020600301546115f5565b6006600083815260200190815260200160002060010160009054906101000a900473ffffffffffffffffffffffffffffffffffffffff1673ffffffffffffffffffffffffffffffffffffffff166323b872dd826006600086815260200190815260200160002060040160009054906101000a900473ffffffffffffffffffffffffffffffffffffffff1660066000878152602001908152602001600020600001546040518463ffffffff1660e01b8152600401610e9593929190611acf565b600060405180830381600087803b158015610eaf57600080fd5b505af1158015610ec3573d6000803e3d6000fd5b5050505060006006600084815260200190815260200160002060040160146101000a81548160ff0219169083151502179055506000600660008481526020019081526020016000206003018190555050600160008190555050565b60026000541415610f64576040517f08c379a0000000000000000000000000000000000000000000000000000000008152600401610f5b90611c4f565b60405180910390fd5b6002600081905550600115156006600083815260200190815260200160002060040160149054906101000a900460ff16151514610fd6576040517f08c379a0000000000000000000000000000000000000000000000000000000008152600401610fcd90611baf565b60405180910390fd5b600660008281526020019081526020016000206002015434101561102f576040517f08c379a000000000000000000000000000000000000000000000000000000000815260040161102690611c2f565b60405180910390fd5b60006006600083815260200190815260200160002060010160009054906101000a900473ffffffffffffffffffffffffffffffffffffffff1673ffffffffffffffffffffffffffffffffffffffff16636352211e60066000858152602001908152602001600020600001546040518263ffffffff1660e01b81526004016110b69190611c8f565b60206040518083038186803b1580156110ce57600080fd5b505afa1580156110e2573d6000803e3d6000fd5b505050506040513d601f19601f820116820180604052508101906111069190611702565b90508073ffffffffffffffffffffffffffffffffffffffff166108fc60066000858152602001908152602001600020600201549081150290604051600060405180830381858888f19350505050158015611164573d6000803e3d6000fd5b506006600083815260200190815260200160002060010160009054906101000a900473ffffffffffffffffffffffffffffffffffffffff1673ffffffffffffffffffffffffffffffffffffffff166323b872dd823360066000878152602001908152602001600020600001546040518463ffffffff1660e01b81526004016111ee93929190611acf565b600060405180830381600087803b15801561120857600080fd5b505af115801561121c573d6000803e3d6000fd5b5050505060006006600084815260200190815260200160002060040160146101000a81548160ff0219169083151502179055506000600660008481526020019081526020016000206003018190555050600160008190555050565b606060058054806020026020016040519081016040528092919081815260200182805480156112fb57602002820191906000526020600020905b8160009054906101000a900473ffffffffffffffffffffffffffffffffffffffff1673ffffffffffffffffffffffffffffffffffffffff16815260200190600101908083116112b1575b5050505050905090565b6002600054141561134b576040517f08c379a000000000000000000000000000000000000000000000000000000000815260040161134290611c4f565b60405180910390fd5b60026000819055506000811415611397576040517f08c379a000000000000000000000000000000000000000000000000000000000815260040161138e90611b8f565b60405180910390fd5b3373ffffffffffffffffffffffffffffffffffffffff166006600084815260200190815260200160002060010160009054906101000a900473ffffffffffffffffffffffffffffffffffffffff1673ffffffffffffffffffffffffffffffffffffffff16636352211e60066000868152602001908152602001600020600001546040518263ffffffff1660e01b81526004016114339190611c8f565b60206040518083038186803b15801561144b57600080fd5b505afa15801561145f573d6000803e3d6000fd5b505050506040513d601f19601f820116820180604052508101906114839190611702565b73ffffffffffffffffffffffffffffffffffffffff16146114d9576040517f08c379a00000000000000000000000000000000000000000000000000000000081526004016114d090611bef565b60405180910390fd5b80600660008481526020019081526020016000206002018190555060016006600084815260200190815260200160002060040160146101000a81548160ff02191690831515021790555060016000819055505050565b6000600580549050905090565b60018060000154905081565b60066020528060005260406000206000915090508060000154908060010160009054906101000a900473ffffffffffffffffffffffffffffffffffffffff16908060020154908060030154908060040160009054906101000a900473ffffffffffffffffffffffffffffffffffffffff16908060040160149054906101000a900460ff16905086565b600081600001549050919050565b6001816000016000828254019250508190555050565b60008290508073ffffffffffffffffffffffffffffffffffffffff166108fc839081150290604051600060405180830381858888f19350505050158015611640573d6000803e3d6000fd5b50505050565b600061165961165484611d30565b611d0b565b90508281526020810184848401111561167157600080fd5b61167c848285611e34565b509392505050565b600081519050611693816120a1565b92915050565b6000815190506116a8816120b8565b92915050565b600082601f8301126116bf57600080fd5b81356116cf848260208601611646565b91505092915050565b6000813590506116e7816120cf565b92915050565b6000815190506116fc816120cf565b92915050565b60006020828403121561171457600080fd5b600061172284828501611684565b91505092915050565b60006020828403121561173d57600080fd5b600061174b84828501611699565b91505092915050565b6000806040838503121561176757600080fd5b600083013567ffffffffffffffff81111561178157600080fd5b61178d858286016116ae565b925050602083013567ffffffffffffffff8111156117aa57600080fd5b6117b6858286016116ae565b9150509250929050565b6000602082840312156117d257600080fd5b60006117e0848285016116d8565b91505092915050565b6000602082840312156117fb57600080fd5b6000611809848285016116ed565b91505092915050565b6000806040838503121561182557600080fd5b6000611833858286016116d8565b925050602083013567ffffffffffffffff81111561185057600080fd5b61185c858286016116ae565b9150509250929050565b6000806040838503121561187957600080fd5b6000611887858286016116d8565b9250506020611898858286016116d8565b9150509250929050565b60006118ae8383611936565b60208301905092915050565b6118c381611db6565b82525050565b60006118d482611d71565b6118de8185611d94565b93506118e983611d61565b8060005b8381101561191a57815161190188826118a2565b975061190c83611d87565b9250506001810190506118ed565b5085935050505092915050565b61193081611dc8565b82525050565b61193f81611e10565b82525050565b61194e81611e10565b82525050565b600061195f82611d7c565b6119698185611da5565b9350611979818560208601611e43565b61198281611ed6565b840191505092915050565b600061199a601283611da5565b91506119a582611ee7565b602082019050919050565b60006119bd600d83611da5565b91506119c882611f10565b602082019050919050565b60006119e0602283611da5565b91506119eb82611f39565b604082019050919050565b6000611a03601583611da5565b9150611a0e82611f88565b602082019050919050565b6000611a26602d83611da5565b9150611a3182611fb1565b604082019050919050565b6000611a49602883611da5565b9150611a5482612000565b604082019050919050565b6000611a6c601f83611da5565b9150611a778261204f565b602082019050919050565b6000611a8f600c83611da5565b9150611a9a82612078565b602082019050919050565b611aae81611e06565b82525050565b6000602082019050611ac960008301846118ba565b92915050565b6000606082019050611ae460008301866118ba565b611af160208301856118ba565b611afe6040830184611aa5565b949350505050565b60006020820190508181036000830152611b2081846118c9565b905092915050565b60006040820190508181036000830152611b428185611954565b9050611b5160208301846118ba565b9392505050565b60006040820190508181036000830152611b728185611954565b90508181036020830152611b868184611954565b90509392505050565b60006020820190508181036000830152611ba88161198d565b9050919050565b60006020820190508181036000830152611bc8816119b0565b9050919050565b60006020820190508181036000830152611be8816119d3565b9050919050565b60006020820190508181036000830152611c08816119f6565b9050919050565b60006020820190508181036000830152611c2881611a19565b9050919050565b60006020820190508181036000830152611c4881611a3c565b9050919050565b60006020820190508181036000830152611c6881611a5f565b9050919050565b60006020820190508181036000830152611c8881611a82565b9050919050565b6000602082019050611ca46000830184611aa5565b92915050565b600060c082019050611cbf6000830189611aa5565b611ccc6020830188611945565b611cd96040830187611aa5565b611ce66060830186611aa5565b611cf360808301856118ba565b611d0060a0830184611927565b979650505050505050565b6000611d15611d26565b9050611d218282611e76565b919050565b6000604051905090565b600067ffffffffffffffff821115611d4b57611d4a611ea7565b5b611d5482611ed6565b9050602081019050919050565b6000819050602082019050919050565b600081519050919050565b600081519050919050565b6000602082019050919050565b600082825260208201905092915050565b600082825260208201905092915050565b6000611dc182611de6565b9050919050565b60008115159050919050565b6000611ddf82611db6565b9050919050565b600073ffffffffffffffffffffffffffffffffffffffff82169050919050565b6000819050919050565b6000611e1b82611e22565b9050919050565b6000611e2d82611de6565b9050919050565b82818337600083830152505050565b60005b83811015611e61578082015181840152602081019050611e46565b83811115611e70576000848401525b50505050565b611e7f82611ed6565b810181811067ffffffffffffffff82111715611e9e57611e9d611ea7565b5b80604052505050565b7f4e487b7100000000000000000000000000000000000000000000000000000000600052604160045260246000fd5b6000601f19601f8301169050919050565b7f50726963652063616e6e6f7420626520302e0000000000000000000000000000600082015250565b7f4e6f7420666f722073656c6c2e00000000000000000000000000000000000000600082015250565b7f596f7520617265206e6f7420746865206f776e6572206f662074686973204e4660008201527f542e000000000000000000000000000000000000000000000000000000000000602082015250565b7f54686973206973206e6f7420796f7572204e46542e0000000000000000000000600082015250565b7f596f757220626964206d75737420626520626967676572207468616e2074686560008201527f2063757272656e74206f6e652e00000000000000000000000000000000000000602082015250565b7f5375626d697474656420707269636520646f65736e2774206d61746368206e6660008201527f742070726963652e000000000000000000000000000000000000000000000000602082015250565b7f5265656e7472616e637947756172643a207265656e7472616e742063616c6c00600082015250565b7f4e6f20616e7920626964732e0000000000000000000000000000000000000000600082015250565b6120aa81611db6565b81146120b557600080fd5b50565b6120c181611dd4565b81146120cc57600080fd5b50565b6120d881611e06565b81146120e357600080fd5b5056fea264697066735822122076212a0c56da75c876433a5a8dcafe57b5b8bded28d3c048b106778cac6f80aa64736f6c63430008040033",
  "linkReferences": {},
  "deployedLinkReferences": {}
}